:020000040800F2
:100000005019002001010008650B0008610A000872
:10001000610B0008FF080008D92400080000000058
:10002000000000000000000000000000AD0E00080D
:1000300003090008000000007D0B000841220008B1
:100040001B0100081B0100081B0100081B01000820
:100050001B0100081B0100081B0100081B01000810
:100060001B0100081B0100081B0100081B01000800
:100070001B0100081B0100081B0100081B010008F0
:100080001B0100081B0100081B0100081B010008E0
:100090001B0100081B0100081B0100081B010008D0
:1000A0001B0100081B0100081B0100081B010008C0
:1000B0001B0100081B0100081B0100081B010008B0
:1000C0001B0100081B0100081B0100081B010008A0
:1000D0001B0100081B0100081B0100081B01000890
:1000E0001B0100081B0100081B010008DFF80CD0F1
:1000F00000F020FB00480047C136000850190020DE
:100100000648804706480047FEE7FEE7FEE7FEE7B1
:10011000FEE7FEE7FEE7FEE7FEE7FEE759220008FE
:10012000ED0000080649074A0868504343F23902C7
:10013000104408604008704701490860704700009B
:10014000780000206D4EC64140EA01039B0703D0B2
:1001500009E008C9121F08C0042AFAD203E011F806
:10016000013B00F8013B521EF9D27047D2B201E0C8
:1001700000F8012B491EFBD270470022F6E710B5AC
:1001800013460A4604461946FFF7F0FF204610BD05
:1001900030B504460020034600E05B1C934203D2C6
:1001A000E05CCD5C401BF8D030BD2DE9FE4F8046B1
:1001B00081EA0300C00F0C46009021F0004123F0BB
:1001C0000045B8EB0200A94105D2404621469046C1
:1001D0001C460B46024623F00040104347D0270D33
:1001E000C7F30A00C3F30A510290401A0190402855
:1001F0006BDAC3F3130040F4801B0098924620B1E1
:100200000023D2EB030A63EB0B0B01985946C0F1B4
:100210004002504600F0CFF906460D46504659467A
:10022000019A00F0E7F910EB08006141002487EA29
:10023000115284EAE7731A4340D0009A62B3019ADC
:10024000012A4FEA075215DC001B61EB02014FF057
:10025000004202EA0752CDE90042001C41F580113C
:1002600032462B4600F0E7F903B0BDE8F08F404678
:100270002146F9E7001B61EB0201001C41F58013E8
:1002800000185B412018A2F5001747EB030140EA74
:10029000D570B6196D4111E06D084FEA360645EA92
:1002A000C0754FEA0752001B61EB0201001C41F5CB
:1002B000801149084FEA30000019514132462B465F
:1002C00003B0BDE8F04F00F0A7B90098012240004C
:1002D0000023D0EB020263EBE073009821464FEA63
:1002E000E074B8EB000061EB0401E9E783F0004340
:1002F0005BE781F0004158E72DE9FE4F81EA0304F6
:1003000004F0004421F0004100944FF0000B23F072
:10031000004350EA01045ED052EA03045BD0C3F309
:100320000A54C1F30A552C44A4F2F3340194A0FBFF
:100330000254C1F3130141F48011C3F3130343F4D6
:10034000801301FB024400FB034E840A970A44EA2F
:10035000815447EA8357A4FB076802958D0A05FB81
:1003600007854FEA932C04FB0C542705029D4FEAA6
:10037000065847EA1637B5EB08056EEB070C870EF3
:10038000920E47EA811742EA8312A7FB0201B6EBFD
:100390000B0164EB00042B0D43EA0C335E1844EBB5
:1003A0001C50DA465146E7FB0201C5F313044FEA3D
:1003B0000B3343EA14534FEA0432019C43EA060329
:1003C000A4F10C040294009CCDE900B400F033F9D0
:1003D00003B0BDE8F08F00200146F9E72DE9F04DAC
:1003E00081EA030404F0004B21F0004514464FF06D
:1003F000000A23F0004150EA050220D054EA01022D
:100400001DD0C5F30A570246C5F31303C1F3130009
:10041000C1F30A5640F4801543F48013A7EB060895
:10042000101BD64608F2FD3873EB050002D308F125
:10043000010801E092185B41B8F1000F03DA0020D7
:100440000146BDE8F08D00204FF480110646844639
:100450000EE0171B73EB050705D3121B63EB0503B7
:1004600006434CEA010C49084FEA300092185B4100
:1004700050EA0107EDD152EA030012D082EA0400EB
:1004800083EA0501084305D0101BAB4106D20122C7
:10049000002306E000224FF0004302E06FF001026B
:1004A00053101AEB06004CEB085110EB0A0041EB1D
:1004B0000B01BDE8F04D00F0AFB80EB5C10F80EAFA
:1004C000E0700844CA07002140F233438DE80E0073
:1004D0000A460B4600F0AFF803B000BD0EB540F27F
:1004E000334102910021CDE900110A460B4600F08C
:1004F000A2F803B000BDC1F30A5210B5C1F3130155
:1005000040F2FF3341F480119A4201DA002010BD1D
:1005100040F233439A42A2F2334203DC524200F0EB
:1005200059F810BD904010BD30B50B460146002073
:100530002022012409E021FA02F59D4205D303FAA5
:1005400002F5491B04FA02F52844151EA2F1010226
:10055000F1DC30BD2DE9F05F0546002092469B4658
:1005600088460646814640241BE0284641464746C9
:10057000224600F02FF853465A46C01A914110D334
:1005800011461846224600F016F82D1A67EB0108AE
:100590004F4622460120002100F00DF817EB00091C
:1005A0004E41201EA4F10104DFDC484631462A46B4
:1005B0004346BDE8F09F202A04DB203A00FA02F10E
:1005C000002070479140C2F1200320FA03F3194341
:1005D00090407047202A04DB203A21FA02F00021E3
:1005E000704721FA02F3D040C2F120029140084343
:1005F00019467047202A06DBCB17203A41FA02F051
:1006000043EAE07306E041FA02F3D040C2F120026F
:10061000914008431946704710B5141E73F1000449
:1006200008DA401C41F1000192185B411A4301D1E4
:1006300020F0010010BD2DE9F04D92469B4611B10E
:10064000B1FA81F202E0B0FA80F220329046FFF770
:10065000B2FF04460F4640EA0A0041EA0B01534646
:100660005A46084313D0114653EA010019D0C8F185
:1006700040025046FFF7AEFF05460E46504659462B
:100680004246FFF798FF084305D0012004E02046CA
:100690003946BDE8F08D0020054346EAE0762C435C
:1006A00037430A986305E40AA0EB08000022FD0A1C
:1006B00044EA47540A3002D500200146E9E7010523
:1006C00010196941DDE9084500196941BDE8F04D9F
:1006D000A2E7C1F30A52C1F3130140F2FF3341F420
:1006E00080119A4202DA00200146704740F23343FB
:1006F0009A42A2F2334202DC5242FFF76BBFFFF78D
:100700005ABF000030B5041E71F1000404DB4FF045
:100710000044404264EB0101141E73F1000405DB48
:100720001C464FF00043524263EB0403994208BF5A
:10073000904230BD064C074D06E0E06840F00103F2
:1007400094E8070098471034AC42F6D3FFF7D2FC88
:10075000A8410008C8410008CA430260704721B19F
:10076000826842F00102826003E0826822F00102A6
:100770008260704721B1826842F48072826003E037
:10078000826822F4807282607047014600208A6885
:1007900002F004020AB1012000E000207047014687
:1007A000C86C80B270470246002013680B400BB142
:1007B000012000E000207047014600208A6802F016
:1007C00008020AB1012000E00020704730B502465F
:1007D0000020002350680F4C20400D790C6844EA3B
:1007E00005242043506090680B4C2040D1E902540E
:1007F0002C434D7944EA450420439060D06A20F4AC
:1008000070000C7C641EE4B2234340EA0350D062C3
:1008100030BD0000FFFEF0FFFDF7F1FFF0B504462C
:100820000D4600200021092D11DDE068A5F10A0622
:1008300006EB4607072606FA07F18843A5F10A06E4
:1008400006EB460603FA06F10843E0600CE0206977
:1008500005EB4507072606FA07F1884305EB450631
:1008600003FA06F108432061072A0FDA606B561E6F
:1008700006EB86071F2606FA07F18843561E06EB8D
:10088000860605FA06F10843606322E00D2A0FDAB6
:10089000206BD61F06EB86071F2606FA07F1884352
:1008A000D61F06EB860605FA06F10843206310E022
:1008B000E06AA2F10D0606EB86071F2606FA07F18D
:1008C0008843A2F10D0606EB860605FA06F10843F9
:1008D000E062F0BD816841F008018160704721B19C
:1008E000826842F4A002826003E0826822F4A002DF
:1008F00082607047816841F004018160704700BFE9
:10090000FEE7704701B500BF0098411E0091002826
:10091000FAD108BD01B500BF0098401E0090002824
:10092000FAD108BD2DE9F04102460025002600203D
:1009300000230024002791F803C00CF00F0591F864
:1009400003C00CF0100CBCF1000F03D091F802C0F2
:100950004CEA050591F800C0BCF1000F31D01468D5
:1009600000202BE04FF0010C0CFA00F3B1F800C0AE
:100970000CEA03069E4220D183004FF00F0C0CFAC4
:1009800003F7BC4305FA03FC4CEA040491F803C0E6
:10099000BCF1280F06D14FF0010C0CFA00FCC2F894
:1009A00014C00AE091F803C0BCF1480F05D14FF024
:1009B000010C0CFA00FCC2F810C0401C0828D1D36E
:1009C0001460B1F800C0BCF1FF0F34DD54680020A2
:1009D0002EE000F1080C4FF0010808FA0CF3B1F812
:1009E00000C00CEA03069E4221D183004FF00F0C99
:1009F0000CFA03F7BC4305FA03FC4CEA040491F833
:100A000003C0BCF1280F05D100F1080C08FA0CF85E
:100A1000C2F8148091F803C0BCF1480F07D100F16F
:100A2000080C4FF0010808FA0CF8C2F81080401CBE
:100A30000828CED35460BDE8F08102460020D36878
:100A40000B400BB1012000E000207047416170476E
:100A5000016170470AB1016100E041617047000027
:100A60001CB542200B49CDE900100B480CC80BA067
:100A700001F034FD14A001F031FD19A001F02EFDAC
:100A800002F028FB05E0002002F0FEFA1848FFF70C
:100A900041FFF8E75E410008280000201B5B34306E
:100AA0003B33326D5B256C6C645D1B5B306D201BD2
:100AB0005B323B34303B33336D2573282564291B6F
:100AC0005B306D3A200000001B5B313B34303B3320
:100AD000316D4552524F521B5B306D2000000000BB
:100AE000486172644661756C74200D0A0000000054
:100AF00080FC0A0038B500242CE004EB4401174ABE
:100B000052F82100012100F057F804EB440013498A
:100B100001EB80008088ADF8000003208DF8020012
:100B200010208DF8030004EB44010C4A02EB810114
:100B300088686946FFF7F6FE04EB4402074B03EBB7
:100B40008202918804EB440203EB82029068FFF773
:100B50007DFF641C012CD0DB38BD0000300000207C
:100B600000BFFEE77047000002490143024A1160DE
:100B7000704700000000FA050CED00E0704700002F
:100B800001460020034A506820F44040084350606A
:100B9000704700000010024029B1064AD2690243A2
:100BA000044BDA6104E0034AD2698243014BDA6103
:100BB000704700000010024029B1064A92690243C2
:100BC000044B9A6104E0034A92698243014B9A61A3
:100BD000704700000010024030B5002100220024C0
:100BE00000232D4D6D6805F00C0121B1042905D0BD
:100BF000082923D105E0294D056022E0274D056035
:100C00001FE0254D6D6805F47012234D6D6805F4E5
:100C10008034022505EB92421CB9214D55430560F5
:100C20000BE01D4D6D6805F400351DB11C4D55439D
:100C3000056002E0194D5543056002E0174D05605F
:100C400000BF00BF144D6D6805F0F0010909154D96
:100C50006B5C0568DD4045600F4D6D6805F4E06133
:100C6000090A104D6B5C4568DD4085600A4D6D6872
:100C700005F46051C90A0B4D6B5C4568DD40C560E9
:100C8000054D6D6805F44041890B074D6B5CC568E7
:100C9000B5FBF3F5056130BD0010024000127A008B
:100CA00000093D00140000202400002008B50121A7
:100CB0000820FFF781FF4FF48070ADF8000003209B
:100CC0008DF8020010208DF8030069460E48FFF7EA
:100CD00029FE4FF480710C48FFF7BAFE4FF4E15043
:100CE000FFF710FE4FF480710748FFF7AFFE07488B
:100CF000FFF708FE4FF480710348FFF7A9FE044890
:100D0000FFF700FE08BD0000000C01404019010083
:100D10008097060008B501210820FFF74DFF4FF42A
:100D20000060ADF8000003208DF8020010208DF85F
:100D3000030069460D48FFF7F5FD4FF400610B48CD
:100D4000FFF786FE0A48FFF7DDFD4FF40061074814
:100D5000FFF77CFE0648FFF7D5FD4FF4006103481E
:100D6000FFF776FE0348FFF7CDFD08BD000C0140FC
:100D700090320100D0B0060021B1028842F040025A
:100D8000028004E002884FF6BF731A400280704769
:100D900008B5E020ADF8000003208DF8020018200F
:100DA0008DF8030069460948FFF7BCFD1420ADF833
:100DB000000010208DF8030069460448FFF7B2FDDB
:100DC00014210248FFF744FE08BD0000000801405E
:100DD00008B54FF46040ADF8000003208DF8020024
:100DE00018208DF8030069460948FFF79BFD4FF472
:100DF0008050ADF8000010208DF8030069460448CB
:100E0000FFF790FD4FF480510148FFF721FE08BD28
:100E1000000C01400246002013890B400BB1012059
:100E200000E0002070470146888970478181704743
:100E300010B50022028802F441520B884C882343EB
:100E40008C882343CC8823430C8923434C89234338
:100E50008C892343CC8923431A430280838B4FF22E
:100E6000FF74234083830B8A038210BD10B50121D8
:100E70000420FFF7A1FE01210803FFF79DFE10BD2E
:100E800010B501210820FFF797FE01218803FFF725
:100E900083FE10BD21B1828842F00402828004E00A
:100EA00082884FF6FB731A4082807047704710B5F6
:100EB00003F06CF8FFF7FAFE10BD10B503F098F8D8
:100EC000FFF728FF10BD000010B5044604F1240010
:100ED00004F5C67444F8F80C00202073E08101206A
:100EE0002077002020622085A4F5C6741C220849C2
:100EF00004F10800FFF728F9012084F8D00184F8F4
:100F0000D101002084F8D20184F8D30110BD000083
:100F10003C000020024602F5D07003C8704701462D
:100F200091F99C01704770B504460E461546B4F819
:100F30009A0128800020A4F89A012A8804F19801D7
:100F40003046FFF701F970BD10B50446D4F8B8017A
:100F500080470121204600F0C6FD002084F898015A
:100F6000204600F077FD4FF4E47003596F2204F13E
:100F70002501012098472020D4F8941008734FF4DD
:100F8000E27003596F2204F12501012098472046A1
:100F9000A16800F0FBFEA17B204600F0C3FFE17BCF
:100FA000204600F063FD217C204600F0BDFE617B01
:100FB000204600F09AFF617C204600F076FD40F26A
:100FC000FF31204600F0DDFF2020015D204600F0CB
:100FD000CAFE0121204600F0EBFD1449A0688842BA
:100FE0000FD90021204600F04FFE0021204600F0DE
:100FF00068FE0E21217394F90C10204600F0F2FED9
:101000000EE08021204600F03FFE0121204600F046
:1010100058FE1421217394F90C10204600F0E2FED2
:101020000121204600F005FE10BD0000008F423374
:1010300031B58AB0012008900A9890F898010B28E1
:101040007ED2DFE800F00607B0FDFCFBFAF97DF880
:10105000F70017E301210A9800F0EBFD9D210A98A3
:10106000D0F8940041740A98D0F89400407C07901E
:101070000A98D0F8BC0106901120DDE906219047BE
:101080000A98C07C012829D10A98017DD0F89400E3
:1010900080F824100A98D0F894001C3007900A9821
:1010A000D0F8C00106901C20DDE9062190470A987F
:1010B000D0F89400007F00F03F0006900A98006886
:1010C00005900A9840680490DDE90420069990474D
:1010D000014607900A9800F059FE05E0FF210A98A2
:1010E000D0F8940080F824100A98D0F8940090F872
:1010F000240007900A98D0F8BC0106902420DDE96E
:101100000621904700210A98D0F8940080F83D10FD
:101110000A98D0F8940080F83E100A98D0F894000D
:101120003D3007900A98D0F8C40102220690402072
:10113000DDE9063198470A98807C012806D100E055
:10114000FEE306210A9800F074FD18E00A98D0F832
:101150009400C17B0A98D0F8940041730A98D0F8A3
:101160009400407B07900A98D0F8BC0106900D20AF
:10117000DDE90621904705210A9800F05AFD4FF459
:1011800080710A989830FEF7F8FF0A98C169C0F894
:10119000B011FE4800680A99C1F8AC0102210A9812
:1011A00080F898116EE20A98D0F8CC0107901220CE
:1011B0000799884700F04000B8B3F44800680A99DE
:1011C000C1F8AC010A98C07C012822D10A98D0F855
:1011D00094001C3007900A98D0F8C00106901C209B
:1011E000DDE9062190470A98D0F89400007F00F0CE
:1011F0003F0006900A98006805900A98406804909D
:10120000DDE9042006999047014607900A9800F00E
:10121000BDFD0A98D0F8BC01402107901220079A22
:10122000904703210A9880F898110A98D0F8CC01C9
:10123000079006E08FE354E348E3F7E22AE222E274
:1012400058E012200799884700F00200C8B3CF4841
:1012500000680A99C1F8AC010A98C07C012822D123
:101260000A98D0F894001C3007900A98D0F8C00172
:1012700006901C20DDE9062190470A98D0F89400DA
:10128000007F00F03F0006900A98006805900A98D9
:1012900040680490DDE904200699904701460790D4
:1012A0000A9800F073FD0A98D0F8BC01022107905B
:1012B0001220079A90470A9800F0BCFB0A9981F81F
:1012C000A8010A98807C012813D10A980023D0F83D
:1012D000AC21D0F8B011AD48D0E90040A41A60EBC1
:1012E0000300091B73EB000203D204210A9880F863
:1012F000981166E30A98D0F89400123007900A9883
:10130000D0F8C00106901220DDE9062190470A9826
:10131000D0F89400807C00F02000202815D10A9895
:10132000D0F8BC01202107901220079A90470A9814
:10133000807C012804D101210A9880F8981103E0EB
:1013400002210A9880F898113BE30A98D0F8C0016E
:1013500007A906901920069A90479DF81C0000F0F6
:10136000800088B19DF81C00C043401CC0F385017B
:101370000A9880F89C110A9890F89C01404241B26A
:101380000A9880F89C1105E09DF81C0081080A98D5
:1013900080F89C110A98D0F894001A3007900A98A7
:1013A000D0F8C00106901A20DDE9062190470A987E
:1013B0008068774988423CD20A9890F99C010028BD
:1013C0001FDA0A9890F99C010390FFF776F8CDE9AF
:1013D00006010A98D0F89400807E0190FFF77EF80D
:1013E00000226C4BCDE90201FEF7DFFECDE90401DE
:1013F000DDE90623FEF7D9FE0A9A02F5D07203C290
:1014000053E00A98D0F89400807E0390FFF766F8C6
:10141000614A624BCDE90401FEF76EFF00225D4B8D
:10142000CDE90601FEF7C1FE0A9A02F5D07203C2A9
:101430003BE00A9890F99C0100281FDA0A9890F97D
:101440009C010390FFF739F8CDE906010A98D0F81E
:101450009400807E0190FFF741F80022504BCDE9C7
:101460000201FEF7A2FECDE90401DDE90623FEF745
:101470009CFE0A9A02F5D07203C216E00A98D0F8D0
:101480009400807E0390FFF729F8434A434BCDE94F
:101490000401FEF731FF0022414BCDE90601FEF7C2
:1014A00084FE0A9A02F5D07203C20A98807C012851
:1014B00055D10A98D0F89400C17B0A98D0F89400CE
:1014C00041730A98D0F89400407B07900A98D0F8AE
:1014D000BC0106900D20DDE9062190470A98407C6A
:1014E000012818D10A98D0F8940090F822100A9890
:1014F000A0F89A110A98D0F8940090F8220007906A
:101500000A98D0F8C80106900A9998310020DDE9C0
:1015100006329847A7E00A98D0F894001330079055
:101520000A98D0F8C00106901320DDE90621904703
:101530000A98D0F89400C17C0A98A0F89A110A98E9
:10154000D0F89400C07C07900A98D0F8C8010690A3
:101550000A9998310020DDE90632984783E00A981D
:10156000D0F89400103007900A98D0F8C001069087
:101570001020DDE9062190470A98407C01283AD1E5
:101580000A98D0F8940090F822100BE02800002070
:10159000008F4233008064C01B9E5E29CB10F13F58
:1015A00000A063C00A98A0F89A110A98D0F8940095
:1015B000017C0A98D0F8940041730A98D0F89400FE
:1015C000407B07900A98D0F8BC0106900D20DDE919
:1015D000062190470A98D0F8940090F822000790CE
:1015E0000A98D0F8C80106900A9998310020DDE9E0
:1015F0000632984737E00A98D0F8940013300790E5
:101600000A98D0F8C00106901320DDE90621904722
:101610000A98D0F89400C17C0A98A0F89A110A9808
:10162000D0F89400017C0A98D0F8940041730A988D
:10163000D0F89400407B07900A98D0F8BC0106903F
:101640000D20DDE9062190470A98D0F89400C07C6F
:1016500007900A98D0F8C80106900A99983100209E
:10166000DDE9063298470A98807C012804D10121DF
:101670000A9880F8981103E002210A9880F89811DE
:10168000022008909DE101210A9880F8981103201A
:10169000089096E101210A9800F0CBFA0A98C07CE4
:1016A00001282ED1F5210A98D0F8940041740A98A7
:1016B000017DD0F8940080F824100A98D0F89400A6
:1016C0001C3007900A98D0F8C00106901C20DDE974
:1016D000062190470A98D0F89400007F00F03F0060
:1016E00006900A98006805900A9840680490DDE921
:1016F000042006999047014607900A9800F046FB9F
:101700000AE0F7210A98D0F89400417400210A9861
:10171000D0F8940080F824100A98D0F8940090F83B
:10172000240007900A98D0F8BC0106902420DDE937
:10173000062190470A98D0F89400407C07900A98B8
:10174000D0F8BC0106901120DDE9062190470A98E7
:1017500090F8B411D0F8940080F822100A98D0F8CC
:10176000940090F8220007900A98D0F8BC010690E7
:101770002220DDE90621904700210A98D0F8940044
:1017800081730A98D0F89400807B07900A98D0F86B
:10179000BC0106900E20DDE9062190470A98D0F89A
:1017A0009400817B0A98D0F8940041730A98D0F88D
:1017B0009400407B07900A98D0F8BC0106900D2059
:1017C000DDE9062190470A98D0F8940090F82200AD
:1017D00007900A98D0F8C40106900A999831002021
:1017E000DDE90632984741210A98D0F8940080F844
:1017F0003D1040210A98D0F8940080F83E100A98D5
:10180000D0F894003D3007900A98D0F8C401022225
:1018100006904020DDE90631984703210A9800F040
:1018200008FA06210A9880F89811CAE00A98D0F8B8
:10183000CC01079012200799884700F0080058B1A2
:101840000A98D0F8BC01082107901220079A904707
:1018500007210A9880F898110A98D0F8CC010790CF
:1018600012200799884700F0020070B30A98C07CE4
:10187000012822D10A98D0F894001C3007900A98C9
:10188000D0F8C00106901C20DDE9062190470A9897
:10189000D0F89400007F00F03F0006900A9800689E
:1018A00005900A9840680490DDE904200699904765
:1018B000014607900A9800F069FA0A98D0F8BC012E
:1018C000022107901220079A90477AE001210A9896
:1018D00000F0AFF900210A9880F8981104200890D0
:1018E0006FE001210A9800F0A4F9FA210A98D0F8D3
:1018F000940041740A98D0F89400407C07900A98AC
:10190000D0F8BC0106901120DDE9062190470021A6
:101910000A98D0F8940080F83D100A98D0F8940006
:1019200080F83E100A98D0F894003D3007900A984D
:10193000D0F8C401022206904020DDE9063100E023
:101940003EE0984707210A9800F073F90A210A98A7
:1019500080F8981135E00A98D0F8CC010790122051
:101960000799884700F0040010B30A98D0F8BC012A
:10197000042107901220079A90470A98D0F8CC01CA
:10198000079012200799884700F0010088B10FA046
:1019900000F0A4FD0A98D0F8BC01012107901220A4
:1019A000079A904701210A9880F89811082008901A
:1019B00005E000210A9880F898110720089000E0BF
:1019C00000BF00BF08980BB030BD00004341442069
:1019D00044657465637465640D0A000070B504465F
:1019E000D4F8940000F11B014FF4E07002591B2061
:1019F00090470D49A06888420AD2D4F89410C87E56
:101A0000FEF76CFD05460022084BFEF7CEFB70BDCD
:101A1000D4F89410C87EFEF761FD05460022044B01
:101A2000FEF7C3FBF3E70000008F4233008064C081
:101A300000A063C010B50446D4F8940000F10C0176
:101A40004FF4E07002590C209047D4F89400007BCA
:101A5000400910BD10B50446D4F8940000F13F01D0
:101A60004FF4E07002594220904710BD70B5044613
:101A70000D46D4F8940000F11D014FF4E0700259B6
:101A80001D20904754F8940F407F00F0F10040EA89
:101A900045002168487754F89409417F4FF4DE707F
:101AA00002591D209047E57370BD70B504460D4680
:101AB000D4F8940000F11D014FF4E07002591D208C
:101AC000904754F8940F407F00F0FE0028432168AF
:101AD000487754F89409417F4FF4DE7002591D2075
:101AE0009047657470BD70B504460D4694F8D301F7
:101AF000A84200D170BD84F8D35184F8D25194F833
:101B0000D201012833D10021204600F092F854F888
:101B1000940F407800F07F0040F08000216848700A
:101B200054F8940941784FF4DE700259012090472F
:101B30000121204600F07DF8002054F8941F81F820
:101B40003D00216881F83E0054F8940900F13D0100
:101B50004FF4E27003590222402098474FF4E4709A
:101B600003596F2204F12501012098471EE000214E
:101B7000204600F05EF854F8940F407800F07F00A3
:101B80002168487054F8940941784FF4DE70025986
:101B9000012090470121204600F04BF84FF4E470FB
:101BA00003596F2204F125010120984700BFA1E7E6
:101BB00070B504460D46D4F8940000F126014FF4A8
:101BC000E07002592620904754F8940F90F82600B0
:101BD00000F0F70040EAC500216881F8260054F8BB
:101BE000940990F826104FF4DE7002592620904791
:101BF00070BD70B504460D46D4F8940000F1300174
:101C00004FF4E07002593120904754F8940F90F847
:101C1000300000F0F8002843216881F8300054F8C3
:101C2000940990F830104FF4DE700259312090473B
:101C300070BD70B504460D460026D4F89400407877
:101C400020F0F80084F8D00194F8D001A8421AD00E
:101C5000032D01D1012600E0002694F8D101B04205
:101C600001D084F8D16154F8940F407800F0F80066
:101C700028432168487054F8940941784FF4DE7085
:101C800002590120904770BD70B504460D46D4F846
:101C9000940000F109014FF4E070025909209047C7
:101CA00054F8940F407A00F07F002843216848726E
:101CB00054F89409417A4FF4DE7002590920904794
:101CC00070BD70B504460D46D4F8940000F149018A
:101CD0004FF4E07002594D209047D4F8940000F181
:101CE00009014FF4E070025909209047D4F894009C
:101CF000407A00F08000802807D1012D0AD187208A
:101D0000D4F8941081F8490004E08420D4F89410A9
:101D100081F84900D4F8940090F849104FF4DE702F
:101D200002594D20904770BD70B504460D46D4F859
:101D3000940000F11E014FF4E07002591E209047FC
:101D400054F8940F807F00F0FB0040EA8500216882
:101D5000887754F89409817F4FF4DE7002591E2071
:101D60009047257470BD70B504460D46D4F89400B4
:101D700080F82250D4F8940090F822104FF4DE70CE
:101D80000259222090472020055570BD2DE9F047CB
:101D900004468946183444F8109C4846FEF79EFBDA
:101DA000074600220E4BFEF719FB0546FEF7A3FB84
:101DB00081464FEA1940E16F88714FEA1920E16FBF
:101DC000C871E16F81F80890E06F183C811D4FF4F5
:101DD000E2700359032206209847BDE8F08700000F
:101DE00080844E4070B504460D46D4F8940000F14E
:101DF00009014FF4E070025909209047D4F894008B
:101E000000F149014FF4E07002594D209047D4F899
:101E10009400407A00F0800080283DD1D4F89400EE
:101E200090F8490000F0870087281AD1052D00DAC4
:101E30000525142D00DD142554F8940F407A00F088
:101E40008F0040F07000216848722068407A00F0EE
:101E5000F000691F01F00F01084354F8941948720B
:101E600036E0022D00DA0225112D00DD112554F88F
:101E7000940F407A00F08F0040F0700021684872A3
:101E80002068407A00F0F000A91E01F00F0108431D
:101E900054F8941948721BE0B5F1FF3F01DA4FF096
:101EA000FF350E2D00DD0E2554F8940F407A00F01A
:101EB0008F0040F07000216848722068407A00F07E
:101EC000F000691C01F00F01084354F8941948729E
:101ED000D4F89400417A4FF4DE70025909209047FB
:101EE000257370BD80F89811704770B504460D4693
:101EF000D4F8940000F11D014FF4E07002591D2048
:101F0000904754F8940F407F65F31F10216848777D
:101F100054F89409417F4FF4DE7002591D20904718
:101F2000657370BD70B504460D460C2D01DD0C25A2
:101F300002E0062D00DA0625062D04D105212046F3
:101F4000FFF757FE03E003212046FFF752FED4F8C7
:101F5000940000F11E014FF4E07002591E209047DA
:101F600054F8940F807F65F31F102168887754F828
:101F70009409817F4FF4DE7002591E209047A573AB
:101F800070BD70B504460D46D4F8940000F11E01F2
:101F90004FF4E470035902221E20984754F8940F1E
:101FA000807F00F0FC006FF0FC0101EA252108436E
:101FB000216888772168CD7754F8940900F11E01D3
:101FC0004FF4E270035902221E20984770BD70B58D
:101FD00004460E461546A4F8B451B4F8B42131466F
:101FE00004F19800FEF7B0F8052084F8980170BD60
:101FF00000B5024601211046FFF774FF00BD70B521
:1020000004460D4601222946204600F00AF870BD1C
:1020100070B504460D4601222946204600F01AF804
:1020200070BD2DE9F04105460E46174601F09CFFB4
:1020300005F07F0000F0DCF8002405E0002000F04F
:10204000D7F83055601CC4B2BC42F7DB01F07AFF10
:10205000BDE8F0812DE9F04105460E46174601F036
:102060008BFF05F07F0000F0D7F8002405E000208A
:1020700000F0D2F83055601CC4B2BC42F7DB01F06E
:1020800069FFBDE8F08113B50446012201A920468D
:1020900000F009F81CBD13B50446012201A9204631
:1020A00000F019F81CBD2DE9F04105460E46174613
:1020B00001F05AFF45F0800000F09AF8002404E097
:1020C000305D00F095F8601CC4B2BC42F8DB01F052
:1020D00039FFBDE8F0812DE9F04105460E4617466F
:1020E00001F04AFF45F0800000F096F8002404E07B
:1020F000305D00F091F8601CC4B2BC42F8DB01F026
:1021000029FFBDE8F08110B500F002F810BD000015
:102110000CB50020019000903348006840F48030F6
:102120003149086000BF3048006800F4003000907A
:102130000198401C0190009818B90198B0F5A06F63
:10214000F1D12948006800F4003010B1012000905E
:1021500001E0002000900098012843D12348006846
:1021600040F01000214908600846006820F0030094
:1021700008600846006840F0020008601A4840689D
:10218000194948600846406848600846406840F47D
:10219000806048600846406820F47C10486008462B
:1021A000406840F4E81048600846006840F08070DD
:1021B000086000BF0C48006800F000700028F9D0EB
:1021C0000948406820F00300074948600846406815
:1021D00040F00200486000BF0348406800F00C0077
:1021E0000828F9D10CBD0000001002400020024078
:1021F00010B5044621460748FEF718FE00BF01212E
:102200000448FEF707FE0028F9D00248FEF70BFE4F
:10221000C0B210BD0030014010B504462146074849
:10222000FEF704FE00BF01210448FEF7F3FD00287D
:10223000F9D00248FEF7F7FDC0B210BD00380040EB
:102240000448D0E900305A1C40F100000149C1E9BE
:10225000002070472800002010B51348006840F0A7
:1022600001001149086008464068104908400E49BD
:102270004860084600680E4908400B490860084657
:10228000006820F4802008600846406820F4FE00C2
:1022900048604FF41F008860FFF735FF4FF0006083
:1022A0000449086010BD0000001002400000FFF863
:1022B000FFFFF6FE08ED00E010B5002433E000203B
:1022C00004EB4401194A02EB0111087001F00CFE05
:1022D00004EB4401154A02EB01110861092004EBEB
:1022E000440102EB01114875082004EB440102EBA4
:1022F00001110875042004EB440102EB01118875FB
:10230000002104EB4402094B03EB021211625162FB
:1023100004EB4400194601EB0010002140F8011FB6
:1023200041608160641C102CC9DB10BD5006002088
:1023300000B585B0012144F20400FEF73DFC4FF4E6
:102340000070ADF8100018208DF8130003208DF8F0
:10235000120004A91548FEF7E5FA4FF48060ADF8C5
:10236000100004208DF8130004A91048FEF7DAFAD3
:102370004FF4E13000900020ADF80400ADF8060005
:10238000ADF80800ADF80C000C20ADF80A00694665
:10239000074800F031F80121054800F014F8402109
:1023A000034800F007F805B000BD00000008014038
:1023B0000038014001F40072B2F5007F00D100BF87
:1023C000CA430280704721B1828942F4005282815F
:1023D00004E082894DF6FF731A40828170470246FD
:1023E0000020B1F5007F00D100BF13880B400BB176
:1023F000012000E0002070472DE9F04786B0054637
:102400000E460024A24600BFA1460027B08900B1B5
:1024100000BF2F462C8A4CF6FF700440F08804431E
:102420002C82AC894EF6F3100440B0883189084301
:10243000718908430443AC81AC8A4FF6FF400440E5
:10244000B0890443AC8201A8FEF7C6FB1F4887424F
:1024500002D1DDF810A001E0DDF80CA0A88900F49D
:10246000004040B10AEBCA0000EB0A103168490095
:10247000B0FBF1F807E00AEBCA0000EB0A10316884
:102480008900B0FBF1F86420B8FBF0F004012009EA
:10249000642101FB1089A88900F4004040B132207A
:1024A00000EBC900B0FBF1F000F00700044308E0C6
:1024B000322000EB09106421B0FBF1F000F00F00B6
:1024C00004432C8106B0BDE8F087000000380140CD
:1024D000C1F308028280704700BFFEE70FB4054BCE
:1024E00010B503A9044A029800F0CAF810BC5DF8C0
:1024F00014FB0000653000087C00002002E008C8E2
:10250000121F08C1002AFAD170477047002001E06D
:1025100001C1121F002AFBD1704700002DE9FF5FA7
:10252000DDE90220010DDDF838B0024318D044F691
:102530001050A1F2FF3141430D140F98012820D013
:10254000A5EB0B00401C5FEA000A4FF00004474E69
:10255000DFF81C91A046504616D5CAF1000728E0C6
:102560000F98012443A2012808D0002100980F9B56
:10257000C0E90021C0E90243BDE8FF9F6FEA0B01FB
:10258000F4E7CBF10000DEE7074612E0F80707D0DA
:102590002246334640464946FDF7AEFE8046894610
:1025A0002246334610461946FDF7A6FE04460E465F
:1025B0007F10002FEAD1DDE90201BAF1000F424697
:1025C0004B4602DAFDF798FE01E0FDF707FF0446EF
:1025D0000E460022284BFEF795F803D84FF0FF3047
:1025E000014607E00022254B20463146FDF7DDFD80
:1025F000FEF76FF8102409E0002C0ADB0A22002302
:10260000FDF7A8FF019B30321A55641E50EA010203
:10261000F2D1641C019AC4F1110314440F9A012AE7
:1026200003D0012208430DD10AE0084304D0002062
:102630004FF0110B0F9080E7A3EB0B056D1E0DE023
:102640005B4504DD4FF0000205F1010504E003DA0B
:102650004FF00002A5F10105002AECD000980F9977
:10266000C0E90231C0E9004586E7000000002440CF
:102670000000F03F300000000000F0430000E03FA9
:102680002DE9FF4F95B09B468946064600250FE28F
:10269000252877D100242746F84A0121059400E037
:1026A000044316F8013F203B01FA03F01042F7D132
:1026B00030782A2811D06FF02F033078A0F1300243
:1026C000092A16D8059A44F0020402EB820203EBB1
:1026D00042021044761C0590EFE759F8042B05924E
:1026E000002A03DA504244F40054059044F00204F6
:1026F000761C30782E2816D116F8010F44F0040409
:102700002A280DD06FF02F023078A0F13003092B6A
:1027100009D807EB870302EB4303C718761CF3E7DE
:1027200059F8047B761C30786C280FD006DC4C28D6
:1027300017D068280DD06A2814D104E0742810D06E
:102740007A280FD10DE044F400140AE044F4801418
:1027500001E044F440147278824202D104F58014FE
:10276000761C761C307866280BD013DC582877D07E
:1027700009DC002875D04528F6D04628F4D0472833
:102780001AD19DE118E0632835D0642879D06528F6
:1027900012D195E1702873D008DC6728F1D0692840
:1027A0006FD06E280DD06F2806D1B5E073282CD0DD
:1027B000752875D0782874D05A46179990476D1CA3
:1027C00075E1C4F30250022809D003280DD0D9F8CE
:1027D000001004280DD00D6009F1040967E1D9F853
:1027E0000010EA17C1E90052F6E7D9F800100D8091
:1027F000F2E70D70F0E719F8041B8DF800100020C7
:102800008DF80100EA46012003E059F804AB4FF0CF
:10281000FF3061074FF0000102D40DE008F1010123
:102820008846B9420FDA8045F8DB1AF8081000290B
:10283000F4D108E008F1010188468142FADB1AF878
:1028400008100029F6D105985B46A0EB0807214641
:102850003846179A00F094FA284400EB080507E080
:102860004DE029E10DE01AF8010B5A4617999047FF
:10287000B8F10108F7D25B4621463846179A13E1B2
:1028800042E00A220092C4F302524FF0000A022AE8
:1028900008D059F804CB032A4FEAEC710AD00DE0B6
:1028A00029E02AE009F1070121F00702F2E802C15C
:1028B000914609E00FFA8CFC4FEAEC71042A03D12F
:1028C0004FFA8CFC4FEAEC71002907DA0A46002126
:1028D000DCF1000C61EB02012D2202E0220504D59F
:1028E0002B228DF80420012203E0E20701D02022F0
:1028F000F7E7904659E00A2102E010220DE010218E
:102900004FF0000A00910BE010224FF0000A44F053
:1029100004040827009203E008224FF0000A009206
:10292000C4F30252022A05D059F804CB0021032A2D
:1029300008D009E009F1070121F00702F2E802C11D
:10294000914605E01FFA8CFC042A01D10CF0FF0C23
:102950004FF00008220728D5702806D0009B83F08E
:10296000100353EA0A0305D00EE040228DF804203C
:10297000012208E05CEA010206D030228DF8042032
:102980008DF8050002229046009B83F0080353EA6D
:102990000A030AD15CEA010201D1620705D530229F
:1029A0008DF804204FF001087F1E582804D034A071
:1029B00003900EA802900DE036A0F9E7534660465A
:1029C000009AFDF7C7FD84460398825C0298401E7A
:1029D000029002705CEA0100F0D1029806A9081A80
:1029E00000F1200A600702D524F4803400E00127BA
:1029F000574502DDA7EB0A0000E0002000EB0A01CA
:102A0000009005984144401A0590E00306D45B46C7
:102A10002146179A059800F0B3F90544002706E00F
:102A200001A85A46C05D179990476D1C7F1C474509
:102A3000F6DBE0030CD55B462146179A059800F0BB
:102A40009FF9054404E030205A46179990476D1CC1
:102A50000099481E00900029F5DC08E002980299D0
:102A60005A460078491C0291179990476D1CBAF19B
:102A70000001AAF1010AF1DC65E10000092801006A
:102A800030313233343536373839616263646566E4
:102A900000000000303132333435363738394142A6
:102AA000434445460000000000F058F90544761CF8
:102AB000307800287FF4ECAD19B02846BDE8F08FDF
:102AC000620700D4062709F1070222F0070CFCE890
:102AD0000223E14603F000485FEA080C02D00FF23F
:102AE000702C0DE05FEA045C02D50FF2682C07E061
:102AF0005FEAC47C02D00FF2602C01E0AFF2700CF0
:102B00004FF0FF3823F00043CDF850C065280CD0BB
:102B100006DC452809D046281DD047283DD13DE098
:102B2000662818D067287ED138E00021112F01DBFC
:102B3000112000E0781CCDE9000106A90EA8FFF7DE
:102B4000EDFCDDE90F010E9A03910021009207F1DF
:102B5000010A04914DE04FF000400097CDE90110CB
:102B600006A90EA8FFF7DAFCDDE90F0203920E9B1F
:102B700011990022DDF80CA00093049211B9791C80
:102B800000EB010AB7EB0A0004D4C0F1FF3007F1F3
:102B9000010A0490AAEB0700019044E0012F00DA3B
:102BA00001270021112F01DD112000E03846CDE979
:102BB000000106A90EA8FFF7B1FCDDE90F010E9A8E
:102BC0000391002104910092BA4621070CD4039985
:102BD000514500DA8A46BAF1010F05DD009AAAF1E3
:102BE0000101515C302908D0B84202DA10F1040F1B
:102BF00006DA0121CDE9011015E0AAF10101E9E7AA
:102C0000002805DC049901440491AAEB000102E0CC
:102C1000411C514500DD8A460499401A401C019030
:102C20004FF000400290200704D40198504501DB8A
:102C3000CDF8048000208DF84F0002980DF14F0769
:102C4000B0F1004F25D02B200E9002984FF00208D3
:102C500000280CDA404202902D200E9007E00A2155
:102C60000298FDF761FC3031029007F8011DB8F1C0
:102C70000001A8F10108F2DC02980028EFD1791ECA
:102C80000E980870307800F0200040F0450007F8FA
:102C9000020D12A8C01B00F107081498007800B1BB
:102CA000012000EB0A01019801EBE0710598414415
:102CB000401A401E0590E00306D45B462146179A51
:102CC000059800F05DF805441498007818B15A464C
:102CD000179990476D1CE00324D55B462146179A4F
:102CE000059800F04DF805441CE00498002807DB27
:102CF000DDE90301884203DD0098405C179901E09B
:102D0000179930205A469047049805F10105401C58
:102D100004900198401E019004D12E205A46179924
:102D200090476D1CBAF10001AAF1010ADDDC05E053
:102D300017F8010B5A46179990476D1CB8F100011E
:102D4000A8F10108F4DC5B462146179A0598ABE62A
:102D50002D0000002B000000200000002DE9F041B4
:102D6000044600251E461746880404D405E039466B
:102D70002020B0476D1C641EF9D52846BDE8F081BF
:102D80002DE9F041044600251E469046C80301D5B2
:102D9000302700E02027880404D505E04146384666
:102DA000B0476D1C641EF9D52846BDE8F0810000CF
:102DB0007CB506465448007810287DDA01F094F876
:102DC0005249097801EB4101514A02EB01110861B6
:102DD0004E48007800EB400002EB001132464D48AF
:102DE00000F07CF90546132D67D145204A49CDE90D
:102DF00000104A480CC84AA0FFF770FB434801780E
:102E000052A0FFF76BFB4548D0E900103F4A12780B
:102E100002EB42023E4B03EB0212C2E906103A48B3
:102E20000078401C3849087000244FE0374800788B
:102E3000844200D149E004EB4402354B03EB02121B
:102E4000511C324A127802EB420203EB0212501C70
:102E50000C22FDF79DF9002836D104EB44002C49E3
:102E600001EB0010007801282ED151202A49CDE92C
:102E700000102A480CC82AA0FFF730FB38A0FFF743
:102E80002DFB04EB4401224A02EB0111481C0122F4
:102E90000C2100F055FB002004EB44011C4A02EB1E
:102EA0000111087004EB4400114601EB00100021F1
:102EB00040F8011F416001E01DE024E081601248FC
:102EC0000078401E1049087000BF641C102CADDB58
:102ED00010200E49087000240AE004EB44000C495D
:102EE00001EB0010007810B908490C7002E0641C76
:102EF000102CF2DB07E01F4890F8CC0418B1002139
:102F00001C4880F8CC147CBD5800002059000020DB
:102F100050060020680300207041000828000020AF
:102F20001B5B34303B33326D5B256C6C645D1B5B2B
:102F3000306D201B5B323B34303B33336D257328BF
:102F40002564291B5B306D3A200000005B6E6577BD
:102F50005D20646576696365203D2025640D0A0067
:102F60005B726566726573685D20206E6F646520B4
:102F70003D200000800000207CB5002446E004EBEA
:102F80004400244901EB0010007801283DD104EBF6
:102F9000440001EB0010D0E906151F48D0E90030CD
:102FA0005A1A60EB05004EF6602300219A1A8141FF
:102FB0002BD271201949CDE9001017480CC818A070
:102FC000FFF78CFA21A0FFF789FA04EB4401114ABC
:102FD00002EB0111481C01220C2100F0B1FA002083
:102FE00004EB44010B4A02EB0111087004EB4400AE
:102FF000114601EB0010002140F8011F4160816083
:1030000017480078401E16490870641C102CB6DB67
:103010007CBD000050060020280000207C410008F4
:103020001B5B34303B33326D5B256C6C645D1B5B2A
:10303000306D201B5B323B34303B33336D257328BE
:103040002564291B5B306D3A200000005B6F6666CB
:103050006C696E655D20206E6F6465203D20000008
:103060005800002070B504460D46E1B20548FFF750
:103070002FFA00BF40210348FFF7B1F90128F9D129
:10308000204670BD0038014070B5044604EB440290
:103090000F4B03EB8202918804EB440203EB8202A4
:1030A0009068FDF7CAFC08B9012000E00020054641
:1030B00004EB4402064B03EB8202918804EB4402CA
:1030C00003EB820290682A46FDF7C4FC70BD000045
:1030D0003000002010B5FDF70DFD10BD2DE9FC47B7
:1030E00004460D4691469548066804F2E5112046CF
:1030F00000F0CAFA824694F8E50100F00F000028BB
:103100007ED194F8E5010121B1EBD01FF8D194F8FC
:10311000E501C0F302100128F2D1BAF1190FEFD185
:103120000C2204F5F9714846FDF732F8002868D101
:10313000D4F8E611C5F80110D4F8EA11C5F8051065
:10314000D4F8EE01C5F80900012028709A207C49C6
:10315000CDE9001079480CC87AA0FFF7BFF984A028
:10316000FFF7BCF901220C21681C00F0E9F99C2052
:103170007349CDE9001071480CC872A0FFF7AEF991
:1031800004F10800FEF72AFC07460B466B4800686E
:10319000811B3A4678A0FFF7A1F904F2E5142078E4
:1031A00020F00F002070207820F070001030207088
:1031B000207820F080002070A4F2E514D5F80110EA
:1031C000C4F8E611D5F80510C4F8EA11D5F80910CD
:1031D000C4F8EE112869010E84F8F2112869010C77
:1031E00084F8F311288A010A84F8F411297C84F800
:1031F000F511287D697D40EA011084F8F60101E0AF
:1032000042E098E0A87D4007010E84F8F7111322F0
:1032100004F2E511204600F046FAAF204849CDE916
:10322000001046480CC847A0FFF758F958A0296974
:10323000FFF754F9B0204249CDE900103F480CC8CF
:1032400040A0FFF74BF9297D55A0FFF747F9B120C2
:103250003B49CDE9001039480CC83AA0FFF73EF9C8
:10326000697D52A0FFF73AF9B2203549CDE9001047
:1032700032480CC833A0FFF731F9A97D4EA0FFF703
:103280002DF91320BDE8FC8794F8E50100F00F004C
:10329000002850D194F8E5010121B1EBD01F4AD1AB
:1032A00094F8E501C0F30210002844D1BAF10D0FE3
:1032B00041D194F8E50120F0800084F8E501D9F8C7
:1032C0000010C4F8F211D9F80410C4F8F611D9F8B6
:1032D0000810C4F8FA11192204F2E511204600F092
:1032E000E2F9BB201649CDE9001014480CC815A01E
:1032F000FFF7F4F833A0FFF7F1F801220C2104F5F1
:10330000F37000F01DF9BD200D49CDE900100B4808
:103310000CC80CA0FFF7E2F804F10800FEF75EFB12
:1033200007460B4605480068811B3A4612A0FFF786
:10333000D5F81920A6E70020A4E700002800002007
:10334000F34000081B5B34303B33326D5B256C6C03
:10335000645D1B5B306D201B5B323B34303B333391
:103360006D2573282564291B5B306D3A2000000011
:103370004E4D4143203D200054494D45203D2025E0
:1033800064206D7320527373693A2025660D0A001C
:103390002053656564203D202564200D0A0000004F
:1033A000204277203D202564200D0A00205366200E
:1033B0003D202564200D0A00204563203D20256422
:1033C000200D0A00424153455F53544154494F4E2A
:1033D0005F42494E44494E47202C204E4D414320E8
:1033E0003D2000002DE9FC4104460F4616461D46CF
:1033F0002869A060297D6175697DA175A97DE17548
:10340000A17D04F10800FEF78DFDE17D04F10800C7
:10341000FEF72CFB617D04F10800FEF766FD04F267
:10342000E514207820F00F002070207820F0700044
:1034300020302070207820F080002070A4F2E51465
:103440003246394604F5F370FCF77EFE701CC2B2BA
:1034500004F2E511204600F026F98046B8F1000F8D
:1034600010DA87200F49CDE900100F480CC80FA0D3
:10347000FFF734F818A0FFF731F81DA0A168FFF797
:103480002DF80CE089200749CDE9001006480CC84A
:1034900006A0FFF723F821A0A168FFF71FF8BDE8F9
:1034A000FC810000D8400008280000201B5B34305D
:1034B0003B33326D5B256C6C645D1B5B306D201B98
:1034C0005B323B34303B33336D2573282564291B35
:1034D0005B306D3A200000001B5B313B34303B33E6
:1034E000316D4552524F521B5B306D200000000081
:1034F00053656E6420555345525F444154412074D6
:103500006F204E4F4445206661696C6564202C2015
:103510007573652025640D0A0000000053656E6414
:1035200020555345525F4441544120746F204E4F03
:103530004445202C20757365202564200D0A000069
:103540002DE9F04104460D461646002705E0217896
:1035500006A0FEF7C3FF641C7F1CAF42F7DB16B169
:1035600004A0FEF7BBFFBDE8F081000025303278F3
:10357000000000000D0A000010B5044604F1080028
:10358000FDF7E2FC04F10800FEF732FD002010BD5B
:103590002DE9FC4105460F46002441E0C4EB4411EF
:1035A00001EB410105EBC10101F10800FDF740FD10
:1035B0000646022E02D0042E2FD123E0C4EB441085
:1035C00000EB400005EBC00090F8E40148B9012091
:1035D000C4EB441101EB410105EBC10181F8E401A9
:1035E0000FE01F201049CDE9001010480CC810A0B2
:1035F000FEF774FF19A0FEF771FF21461DA0FEF72C
:103600006DFF0BE0C4EB441101EB410105EBC1017F
:1036100001F10800FEF7ECFC00E000BF00BF641CF5
:10362000BC42BBDBBDE8FC81BC4000082800002098
:103630001B5B34303B33326D5B256C6C645D1B5B14
:10364000306D201B5B323B34303B33336D257328A8
:103650002564291B5B306D3A200000001B5B313B69
:1036600034303B33316D4552524F521B5B306D202D
:10367000000000007061636B206C6F7374203D204C
:1036800025640D0A0000000038B504460D466A4660
:10369000294604F10800FDF746FC002084F8E40107
:1036A000BDF8000038BD70B504460E4615462A46E2
:1036B000314604F10800FEF78AFC284670BD000080
:1036C000C4B00026F84D4FF4E060FDF74DFA00F06D
:1036D000C1FCFFF7FFFCFEF72BFE00F07FFBA020F4
:1036E000F249CDE90010F2480CC8F2A0FEF7F6FE50
:1036F000FBA0FEF7F3FEA120EC49CDE90010EC4859
:103700000CC8ECA0FEF7EAFEF9A2FCA1FEA0FEF7B1
:10371000E5FEA320E549CDE90010E5480CC8E5A089
:10372000FEF7DCFEFDA0FEF7D9FE01220C212846A3
:10373000FFF706FFFEF7C0FD00240EE1C4EB4411C5
:1037400001EB4101FC4A02EBC10101F10800FDF768
:10375000BBFB002C6DD1F949C4EB441000EB4000D9
:10376000F54A02EBC000C0F8C011F549C4EB4410A3
:1037700000EB400002EBC000C0F8C811F149C4EBF7
:10378000441000EB400002EBC000C0F8C411EE4949
:10379000C4EB441000EB400002EBC000C0F8D011B5
:1037A000EA49C4EB441000EB400002EBC000C0F853
:1037B000CC11E749C4EB441000EB400002EBC00021
:1037C000C0F8D411E34890F84410C4EB441000EB67
:1037D000400002EBC0004175DE4890F84610C4EB93
:1037E000441000EB400002EBC000C175D94890F8CE
:1037F0004510C4EB441000EB400002EBC0008175A3
:103800000020C4EB441101EB410102EBC1018860CF
:10381000D149C4EB441000EB400002EBC000C16092
:103820000121C4EB441000EB400002EBC000C17664
:1038300070E0012C6ED1C949C4EB441000EB40008C
:10384000BD4A02EBC000C0F8C011C549C4EB44102A
:1038500000EB400002EBC000C0F8C811C149C4EB46
:10386000441000EB400002EBC000C0F8C411BE4998
:10387000C4EB441000EB400002EBC000C0F8D011D4
:10388000BA49C4EB441000EB400002EBC000C0F8A2
:10389000CC11B749C4EB441000EB400002EBC00070
:1038A000C0F8D411B349C4EB441000EB400002EB64
:1038B000C00001610A21C4EB441000EB400002EBA0
:1038C000C00081750921C4EB441000EB400002EBFD
:1038D000C00041750421C4EB441000EB400002EB32
:1038E000C000C1750020C4EB441101EB410102EBA3
:1038F000C10188609849C4EB441000EB400002EB22
:10390000C000C1600121C4EB441000EB400002EB99
:10391000C000C1764FF47A71C4EB441000EB400054
:10392000854A02EBC0000162C4EB441000EB40008A
:1039300002EBC00041620020C4EB441101EB4101E5
:1039400002EBC10181F8E401C4EB441101EB410138
:1039500002EBC100FFF710FE641C022CFFF6EEAE76
:1039600091E102217448FFF713FE734890F8E401D7
:10397000002877D003A97048FFF786FE06464C4919
:1039800003C97D4A127802EB4202724B03EB02122A
:10399000C2E9060168480830FDF7C1FA764909789E
:1039A00001EB41016B4A02EB011181F828006248EA
:1039B0000830FDF7AFFA704A127802EB4202654B0D
:1039C00003EB0212C2E90801F0203849CDE90010EA
:1039D00037480CC837A0FEF781FD6748017867A01B
:1039E000FEF77CFD701EC1B201220DF10D00FFF744
:1039F000A7FDF2202D49CDE900102D480CC82DA0BF
:103A0000FEF76CFD5C48007800EB4000514901EB8B
:103A1000001090F9280000905748007800EB400013
:103A20000A4602EB0010D0E90873214802685748A3
:103A30000068111A3A4656A0FEF750FD00F05AF9F8
:103A40004D48007800EB4000424901EB00130C2286
:103A500029463948FFF7C6FC1548D0E900104B4A03
:103A6000C2E90010344890F8CC0410B12846FFF7A2
:103A70009FF90F48D0E90020444B0ACB521A60EB63
:103A800003004FF47A7300219A1A81410AD24A48FE
:103A90000078002806D04FF482700449CDE9001068
:103AA00003488BE0B3E00000E8F7FF1FA0410008E7
:103AB000280000201B5B34303B33326D5B256C6C7F
:103AC000645D1B5B306D201B5B323B34303B33331A
:103AD0006D2573282564291B5B306D3A200000009A
:103AE0005553415254315F436F6E6669670D0A004A
:103AF00031373A31343A3230000000004A756E20D6
:103B000032392032303138004275696C64202C2003
:103B10002573202573200D0A0000000047415445FD
:103B2000574159204D4F44554C45202C20474D417D
:103B300043203D200000000080000020AF0E000860
:103B4000FF1F00088720000823200008A720000886
:103B5000033F000850060020813E0008BB0E00080D
:103B6000112000089720000855200008D7200008E1
:103B7000233F00088047A1195A0000204E4F4445BA
:103B800020256420444154203D2000006000002096
:103B900054494D45203D202564206D732052737398
:103BA000693A20256720536E72203D2025642064E9
:103BB000421B5B306D0D0A00580000200CC8AFF2AC
:103BC0000C10FEF78BFC30A0FEF788FC3348007821
:103BD00000EB4000324901EB001002692F480178E8
:103BE00030A0FEF77BFC00F085F82C48007800EB55
:103BF00040002B4901EB00130C2229463048FFF707
:103C0000F1FB3048D0E900102F4AC2E900102D48DE
:103C1000D0E900202D49D1E90031D21A60EB010032
:103C200041F2883300219A1A814115D22548D0E902
:103C30000010264AC2E9001040F211102449CDE9D3
:103C4000001020480CC8AFF29410FEF747FC214842
:103C5000017821A0FEF742FC1A48D0E9002024494F
:103C6000D1E90031D21A60EB0100C82300219A1A71
:103C7000814108D21348D0E900101D4AC2E9001062
:103C80000020FFF701FA6CE61B5B313B34303B331D
:103C9000336D5741524E1B5B306D20005A0000209F
:103CA000500600204E4F44452025642054696D6520
:103CB0006F7574207573652025640D0A000000007F
:103CC0008000002028000020600000206800002004
:103CD000A0410008580000204F4E4C494E45204E50
:103CE000554D2009203D2009202564200D0A0000A3
:103CF000700000201CB50024FFF73EF91A48007838
:103D000000B91CBD19480078401C1849087000BF54
:103D100016480078102802DB002014490870134868
:103D2000007800EB4000124901EB0010007800B170
:103D3000E7E7102C11DD8D200E49CDE900100E486B
:103D40000CC80EA0FEF7CAFB17A0FEF7C7FB06487B
:103D500001781BA0FEF7C2FBD3E704480078401CA3
:103D600002490870641CD3E7580000205A00002064
:103D70005006002088410008280000201B5B3430DA
:103D80003B33326D5B256C6C645D1B5B306D201BBF
:103D90005B323B34303B33336D2573282564291B5C
:103DA0005B306D3A200000001B5B313B34303B330D
:103DB000316D4552524F521B5B306D2000000000A8
:103DC0005B6275675D202067735F6F6E6C696E65FF
:103DD0005F6E756D203D2025640D0A0000B587B02B
:103DE00001214FF40170FCF7E7FE0220ADF804005A
:103DF00000208DF8070001A91F48FCF793FD002063
:103E0000029001208DF80C008DF80D004FF4602019
:103E100004900020059001208DF8180002A9174891
:103E2000FCF7D4FC4FF40040FCF7AAFE0323012268
:103E300011461248FCF7F2FC01211048FCF79AFCED
:103E400001210E48FCF78BFC0C48FCF743FD00BF3A
:103E50000A48FCF7B1FC0028FAD10848FCF74AFDF3
:103E600000BF0648FCF791FC0028FAD10121034865
:103E7000FCF735FD07B000BD0008014000240140FB
:103E800070B506460C463046FCF756F9002502E0B0
:103E9000FCF748F96D1CA542FADBFCF743F940F248
:103EA0008F1190FBF1F201FB12000249024A02FB62
:103EB000001070BD801A701890D0030010B500BFBC
:103EC00002210848FCF76FFC0028F9D00548FCF7F0
:103ED00066FCC4B202210348FCF73EFC04F001007A
:103EE00010BD00000024014070B50024002504E04E
:103EF0006400FFF7E3FF04436D1C202DF8DB204630
:103F000070BD70B5044600F02FF804F07F00FEF796
:103F10006FF90020FEF76CF9054600F013F828460B
:103F200070BD70B5044600F027F804F07F00FEF77E
:103F300073F90020FEF770F9054600F00BF82846EB
:103F400070BD000010B510210148FCF781FD10BDC7
:103F50000008014010B54FF480510248FCF778FD8D
:103F600010BD0000000C014010B510210148FCF705
:103F70006DFD10BD0008014010B54FF4805102489E
:103F8000FCF764FD10BD0000000C014000B585B0D9
:103F9000FCF76CFF1820ADF80C000020ADF8000015
:103FA0004FF48270ADF802000020ADF80400ADF8C7
:103FB0000600ADF808004FF40070ADF80A000020CC
:103FC000ADF80E000720ADF8100069460748FCF771
:103FD0002FFFFCF7DDFE01210448FCF75BFF012108
:103FE0000248FCF7C9FE05B000BD000000300140EA
:103FF00000B585B0FCF744FF1820ADF80C00002098
:10400000ADF800004FF48270ADF802000020ADF86A
:104010000400ADF80600ADF808004FF40070ADF8EC
:104020000A000020ADF80E000720ADF81000694628
:104030000748FCF7FDFEFCF7CBFE01210448FCF726
:1040400029FF01210248FCF797FE05B000BD0000E2
:104050000038004030B5164800684FF47A72B0FB63
:10406000F2F1B1F1807F01D301201DE021F07F400A
:10407000401E4FF0E022506150170F22002807DA4F
:1040800013071D0E0B4B00F00F04241F1D5503E0FA
:1040900013071C0E084B1C5400BF00204FF0E022F9
:1040A000906107201061002008B100BFFEE730BD1D
:1040B0000000002018ED00E000E400E06C6F726189
:1040C0005F6E65745F70726F63006C6F72615F6EBC
:1040D00065745F72656164006C6F72615F6E6574B8
:1040E0005F476174657761795F557365725F64617D
:1040F0007461006C6F72615F6E65745F47617465B7
:104100007761795F4E6574776F726B5F72657175F9
:10411000657374006C6F72615F6E65745F55736573
:10412000725F64617461006C6F72615F6E65745F71
:104130004E6574776F726B5F72657175657374002D
:104140006C6F72615F6E65745F426173655F7374FB
:104150006174696F6E5F62696E64696E6700486161
:1041600072644661756C745F48616E646C65720060
:1041700063616C6C5F636F6E66696700636865633B
:104180006B4F6E6C696E65006E6578744F6E6C690E
:104190006E6543757272656E74557365724964001D
:1041A0006D61696E00000000C84100080000002039
:1041B00080000000FC240008484200088000002025
:1041C000D01800000C25000800A24A0400000000DE
:1041D00000000000010203040607080900000000B7
:1041E0000102030401020304060708090204060889
:1041F000000000000000000010000000002000008F
:1042000000100140400ECF191408090201000000FF
:1042100004000000E8030000D00700004000000098
:10422000000000000000000000000000000000008E
:10423000000000000000000000000000000000007E
:08424000000000000000000076
:04000005080000ED02
:00000001FF
