:020000040800F2
:10000000C81A0020010100080D0C0008090B0008A7
:10001000090C0008FF0800086D2700080000000018
:100020000000000000000000000000009D1000081B
:100030000309000800000000950C000831240008A6
:100040001B0100081B0100081B0100081B01000820
:100050001B0100081B0100081B0100081B01000810
:100060001B0100081B0100081B0100081B01000800
:100070001B0100081B0100081B0100081B010008F0
:100080001B0100081B0100081B0100081B010008E0
:100090001B0100081B0100081B0100081B010008D0
:1000A0001B0100081B0100081B0100081B010008C0
:1000B0001B0100081B0100081B0100081B010008B0
:1000C0001B0100081B0100081B0100081B010008A0
:1000D0001B0100081B010008212500081B01000866
:1000E0001B0100081B0100081B010008DFF80CD0F1
:1000F00000F020FB004800474D3C0008C81A0020D3
:100100000648804706480047FEE7FEE7FEE7FEE7B1
:10011000FEE7FEE7FEE7FEE7FEE7FEE7492400080C
:10012000ED0000080649074A0868504343F23902C7
:10013000104408604008704701490860704700009B
:10014000F00000206D4EC64140EA01039B0703D03A
:1001500009E008C9121F08C0042AFAD203E011F806
:10016000013B00F8013B521EF9D27047D2B201E0C8
:1001700000F8012B491EFBD270470022F6E710B5AC
:1001800013460A4604461946FFF7F0FF204610BD05
:1001900030B504460020034600E05B1C934203D2C6
:1001A000E05CCD5C401BF8D030BD2DE9FE4F8046B1
:1001B00081EA0300C00F0C46009021F0004123F0BB
:1001C0000045B8EB0200A94105D2404621469046C1
:1001D0001C460B46024623F00040104347D0270D33
:1001E000C7F30A00C3F30A510290401A0190402855
:1001F0006BDAC3F3130040F4801B0098924620B1E1
:100200000023D2EB030A63EB0B0B01985946C0F1B4
:100210004002504600F0CFF906460D46504659467A
:10022000019A00F0E7F910EB08006141002487EA29
:10023000115284EAE7731A4340D0009A62B3019ADC
:10024000012A4FEA075215DC001B61EB02014FF057
:10025000004202EA0752CDE90042001C41F580113C
:1002600032462B4600F0E7F903B0BDE8F08F404678
:100270002146F9E7001B61EB0201001C41F58013E8
:1002800000185B412018A2F5001747EB030140EA74
:10029000D570B6196D4111E06D084FEA360645EA92
:1002A000C0754FEA0752001B61EB0201001C41F5CB
:1002B000801149084FEA30000019514132462B465F
:1002C00003B0BDE8F04F00F0A7B90098012240004C
:1002D0000023D0EB020263EBE073009821464FEA63
:1002E000E074B8EB000061EB0401E9E783F0004340
:1002F0005BE781F0004158E72DE9FE4F81EA0304F6
:1003000004F0004421F0004100944FF0000B23F072
:10031000004350EA01045ED052EA03045BD0C3F309
:100320000A54C1F30A552C44A4F2F3340194A0FBFF
:100330000254C1F3130141F48011C3F3130343F4D6
:10034000801301FB024400FB034E840A970A44EA2F
:10035000815447EA8357A4FB076802958D0A05FB81
:1003600007854FEA932C04FB0C542705029D4FEAA6
:10037000065847EA1637B5EB08056EEB070C870EF3
:10038000920E47EA811742EA8312A7FB0201B6EBFD
:100390000B0164EB00042B0D43EA0C335E1844EBB5
:1003A0001C50DA465146E7FB0201C5F313044FEA3D
:1003B0000B3343EA14534FEA0432019C43EA060329
:1003C000A4F10C040294009CCDE900B400F033F9D0
:1003D00003B0BDE8F08F00200146F9E72DE9F04DAC
:1003E00081EA030404F0004B21F0004514464FF06D
:1003F000000A23F0004150EA050220D054EA01022D
:100400001DD0C5F30A570246C5F31303C1F3130009
:10041000C1F30A5640F4801543F48013A7EB060895
:10042000101BD64608F2FD3873EB050002D308F125
:10043000010801E092185B41B8F1000F03DA0020D7
:100440000146BDE8F08D00204FF480110646844639
:100450000EE0171B73EB050705D3121B63EB0503B7
:1004600006434CEA010C49084FEA300092185B4100
:1004700050EA0107EDD152EA030012D082EA0400EB
:1004800083EA0501084305D0101BAB4106D20122C7
:10049000002306E000224FF0004302E06FF001026B
:1004A00053101AEB06004CEB085110EB0A0041EB1D
:1004B0000B01BDE8F04D00F0AFB80EB5C10F80EAFA
:1004C000E0700844CA07002140F233438DE80E0073
:1004D0000A460B4600F0AFF803B000BD0EB540F27F
:1004E000334102910021CDE900110A460B4600F08C
:1004F000A2F803B000BDC1F30A5210B5C1F3130155
:1005000040F2FF3341F480119A4201DA002010BD1D
:1005100040F233439A42A2F2334203DC524200F0EB
:1005200059F810BD904010BD30B50B460146002073
:100530002022012409E021FA02F59D4205D303FAA5
:1005400002F5491B04FA02F52844151EA2F1010226
:10055000F1DC30BD2DE9F05F0546002092469B4658
:1005600088460646814640241BE0284641464746C9
:10057000224600F02FF853465A46C01A914110D334
:1005800011461846224600F016F82D1A67EB0108AE
:100590004F4622460120002100F00DF817EB00091C
:1005A0004E41201EA4F10104DFDC484631462A46B4
:1005B0004346BDE8F09F202A04DB203A00FA02F10E
:1005C000002070479140C2F1200320FA03F3194341
:1005D00090407047202A04DB203A21FA02F00021E3
:1005E000704721FA02F3D040C2F120029140084343
:1005F00019467047202A06DBCB17203A41FA02F051
:1006000043EAE07306E041FA02F3D040C2F120026F
:10061000914008431946704710B5141E73F1000449
:1006200008DA401C41F1000192185B411A4301D1E4
:1006300020F0010010BD2DE9F04D92469B4611B10E
:10064000B1FA81F202E0B0FA80F220329046FFF770
:10065000B2FF04460F4640EA0A0041EA0B01534646
:100660005A46084313D0114653EA010019D0C8F185
:1006700040025046FFF7AEFF05460E46504659462B
:100680004246FFF798FF084305D0012004E02046CA
:100690003946BDE8F08D0020054346EAE0762C435C
:1006A00037430A986305E40AA0EB08000022FD0A1C
:1006B00044EA47540A3002D500200146E9E7010523
:1006C00010196941DDE9084500196941BDE8F04D9F
:1006D000A2E7C1F30A52C1F3130140F2FF3341F420
:1006E00080119A4202DA00200146704740F23343FB
:1006F0009A42A2F2334202DC5242FFF76BBFFFF78D
:100700005ABF000030B5041E71F1000404DB4FF045
:100710000044404264EB0101141E73F1000405DB48
:100720001C464FF00043524263EB0403994208BF5A
:10073000904230BD064C074D06E0E06840F00103F2
:1007400094E8070098471034AC42F6D3FFF7D2FC88
:100750004849000868490008CA430260704721B14F
:10076000826842F00102826003E0826822F00102A6
:100770008260704721B1826842F48072826003E037
:10078000826822F4807282607047014600208A6885
:1007900002F004020AB1012000E000207047014687
:1007A000C86C80B270470246002013680B400BB142
:1007B000012000E000207047014600208A6802F016
:1007C00008020AB1012000E00020704730B502465F
:1007D0000020002350680F4C20400D790C6844EA3B
:1007E00005242043506090680B4C2040D1E902540E
:1007F0002C434D7944EA450420439060D06A20F4AC
:1008000070000C7C641EE4B2234340EA0350D062C3
:1008100030BD0000FFFEF0FFFDF7F1FFF0B504462C
:100820000D4600200021092D11DDE068A5F10A0622
:1008300006EB4607072606FA07F18843A5F10A06E4
:1008400006EB460603FA06F10843E0600CE0206977
:1008500005EB4507072606FA07F1884305EB450631
:1008600003FA06F108432061072A0FDA606B561E6F
:1008700006EB86071F2606FA07F18843561E06EB8D
:10088000860605FA06F10843606322E00D2A0FDAB6
:10089000206BD61F06EB86071F2606FA07F1884352
:1008A000D61F06EB860605FA06F10843206310E022
:1008B000E06AA2F10D0606EB86071F2606FA07F18D
:1008C0008843A2F10D0606EB860605FA06F10843F9
:1008D000E062F0BD816841F008018160704721B19C
:1008E000826842F4A002826003E0826822F4A002DF
:1008F00082607047816841F004018160704700BFE9
:10090000FEE7704701B500BF0098411E0091002826
:10091000FAD108BD01B500BF0098401E0090002824
:10092000FAD108BD10B501210D2000F0D1F9012147
:10093000014800F08FF810BD000230002DE9F041B1
:10094000024600250026002000230024002791F8FD
:1009500003C00CF00F0591F803C00CF0100CBCF1B3
:10096000000F03D091F802C04CEA050591F800C0D1
:10097000BCF1000F31D0146800202BE04FF0010CC7
:100980000CFA00F3B1F800C00CEA03069E4220D135
:1009900083004FF00F0C0CFA03F7BC4305FA03FC7D
:1009A0004CEA040491F803C0BCF1280F06D14FF0C3
:1009B000010C0CFA00FCC2F814C00AE091F803C064
:1009C000BCF1480F05D14FF0010C0CFA00FCC2F845
:1009D00010C0401C0828D1D31460B1F800C0BCF18D
:1009E000FF0F34DD546800202EE000F1080C4FF0BA
:1009F000010808FA0CF3B1F800C00CEA03069E42A5
:100A000021D183004FF00F0C0CFA03F7BC4305FA19
:100A100003FC4CEA040491F803C0BCF1280F05D193
:100A200000F1080C08FA0CF8C2F8148091F803C021
:100A3000BCF1480F07D100F1080C4FF0010808FA8B
:100A40000CF8C2F81080401C0828CED35460BDE8D2
:100A5000F0810000F0B50A460023002400210025A3
:100A600000F00046B6F1004F02D11D4EF16901E0E1
:100A70001B4E7168C0F3034583B200F44016B6F50F
:100A8000401F08D121F07061154E766826F070661F
:100A9000134F7E6012E000F48016B6F5801F06D179
:100AA000032606FA05F4A14341F0706106E0460D05
:100AB000360103FA06F6B14341F0706122B1460DEA
:100AC000360103FA06F6314300F00046B6F1004F56
:100AD00002D1034EF16101E0014E7160F0BD0000F2
:100AE0000000014002460020D3680B400BB10120FA
:100AF00000E00020704741617047016170470AB112
:100B0000016100E0416170471CB543200B49CDE90C
:100B100000100B480CC80BA001F02AFE14A001F035
:100B200027FE19A001F024FE02F02EFD05E00020B2
:100B300002F004FD1848FFF7EDFEF8E74C48000806
:100B4000280000201B5B34303B33326D5B256C6C1E
:100B5000645D1B5B306D201B5B323B34303B3333B9
:100B60006D2573282564291B5B306D3A2000000039
:100B70001B5B313B34303B33316D4552524F521B7E
:100B80005B306D2000000000486172644661756C46
:100B900074200D0A0000000080FC0A0038B5002413
:100BA0002CE004EB4401174A52F82100012100F027
:100BB0008FF804EB4400134901EB80008088ADF806
:100BC000000003208DF8020010208DF8030004EBD4
:100BD00044010C4A02EB810188686946FFF7AEFECA
:100BE00004EB4402074B03EB8202918804EB4402BE
:100BF00003EB82029068FFF77EFF641C032CD0DBBE
:100C000038BD00003000002000BFFEE77047000044
:100C100070B5002100230F22C47804B3154C24685A
:100C200004F4E064C4F5E064210AC1F10403CA409D
:100C3000447804FA03F184781440214309010E4CEE
:100C40000678A155047804F01F050124AC4005780E
:100C50006D11AD0005F1E025C5F8004109E004780B
:100C600004F01F050124AC40044D0678761145F8C8
:100C7000264070BD0CED00E000E400E080E100E003
:100C800002490143024A1160704700000000FA0562
:100C90000CED00E07047000001460020034A506858
:100CA00020F44040084350607047000000100240AC
:100CB00029B1064AD2690243044BDA6104E0034ACF
:100CC000D2698243014BDA61704700000010024094
:100CD00029B1064A92690243044B9A6104E0034A2F
:100CE00092698243014B9A617047000000100240F4
:100CF00030B500210022002400232D4D6D6805F041
:100D00000C0121B1042905D0082923D105E0294D82
:100D1000056022E0274D05601FE0254D6D6805F454
:100D20007012234D6D6805F48034022505EB924264
:100D30001CB9214D554305600BE01D4D6D6805F450
:100D400000351DB11C4D5543056002E0194D55435A
:100D5000056002E0174D056000BF00BF144D6D68CF
:100D600005F0F0010909154D6B5C0568DD40456033
:100D70000F4D6D6805F4E061090A104D6B5C456824
:100D8000DD4085600A4D6D6805F46051C90A0B4D60
:100D90006B5C4568DD40C560054D6D6805F44041FC
:100DA000890B074D6B5CC568B5FBF3F5056130BD7C
:100DB0000010024000127A0000093D0014000020DB
:100DC0002400002008B501210420FFF781FF4FF423
:100DD0008050ADF8000003208DF8020010208DF83F
:100DE000030069460E48FFF7A9FD4FF480510C48F7
:100DF000FFF783FE4FF4E150FFF784FD4FF480517D
:100E00000748FFF778FE0748FFF77CFD4FF4805155
:100E10000348FFF772FE0448FFF774FD08BD0000A9
:100E200000080140401901008097060008B5012123
:100E30000420FFF74DFF4FF40060ADF800000320E1
:100E40008DF8020010208DF8030069460D48FFF769
:100E500075FD4FF400610B48FFF74FFE0A48FFF79E
:100E600051FD4FF400610748FFF745FE0648FFF7C4
:100E700049FD4FF400610348FFF73FFE0348FFF7C9
:100E800041FD08BD0008014090320100D0B00600CD
:100E900021B1028842F04002028004E002884FF64D
:100EA000BF731A40028070470EB54FF46040ADF832
:100EB000080003208DF80A0018208DF80B0002A905
:100EC0000F48FFF73BFD4FF48050ADF808001020AD
:100ED0008DF80B0002A90A48FFF730FD4FF480514E
:100EE0000748FFF70AFE2E200649CDE90010064804
:100EF0000CC806A001F03CFC0FA001F039FC0EBDAF
:100F0000000C01405E480008280000201B5B3430C4
:100F10003B33326D5B256C6C645D1B5B306D201B5D
:100F20005B323B34303B33336D2573282564291BFA
:100F30005B306D3A200000006C6F72615B305D20A9
:100F4000757365204E5353203D20504231320D0AB7
:100F5000000000000EB54FF46040ADF8080003201B
:100F60008DF80A0018208DF80B0002A90F48FFF732
:100F7000E5FC0420ADF8080010208DF80B0002A954
:100F80000A48FFF7DBFC04210848FFF7B6FD40F2F2
:100F90000F100749CDE9001006480CC806A001F063
:100FA000E7FB10A001F0E4FB0EBD0000000C0140C7
:100FB00084480008280000201B5B34303B33326D2E
:100FC0005B256C6C645D1B5B306D201B5B323B34BE
:100FD000303B33336D2573282564291B5B306D3A14
:100FE000200000006C6F72615B315D2075736520BD
:100FF0004E5353203D205042320D0A00024600203D
:1010000013890B400BB1012000E00020704701461E
:10101000888970478181704710B50022028802F4E8
:1010200041520B884C8823438C882343CC8823432C
:101030000C8923434C8923438C892343CC89234344
:101040001A430280838B4FF2FF74234083830B8A01
:10105000038210BD10B501210420FFF739FE0121E4
:101060000820FFF735FE01218803FFF721FE10BDA0
:1010700010B501210820FFF72BFE01218803FFF79F
:1010800017FE10BD21B1828842F00402828004E084
:1010900082884FF6FB731A4082807047704710B504
:1010A000FFF790FE03F03AFA10BD10B5FFF7BEFE51
:1010B00003F096FA10BD000010B5044604F12400B8
:1010C00004F5C67444F8F80C00202073E081012078
:1010D0002077002020622085A4F5C6741C220849D0
:1010E00004F10800FFF730F8012084F8D00184F8FB
:1010F000D101002084F8D20184F8D30110BD000092
:10110000B0000020024602F5D07003C870470146C7
:1011100091F99C01704770B504460E461546B4F827
:101120009A0128800020A4F89A012A8804F19801E5
:101130003046FFF709F870BD10B50446D4F8B80181
:1011400080470121204600F0C6FD002084F8980168
:10115000204600F077FD4FF4E47003596F2204F14C
:101160002501012098472020D4F8941008734FF4EB
:10117000E27003596F2204F12501012098472046AF
:10118000A16800F0FBFEA17B204600F0C3FFE17BDD
:10119000204600F063FD217C204600F0BDFE617B0F
:1011A000204600F09AFF617C204600F076FD40F278
:1011B000FF31204600F0DDFF2020015D204600F0D9
:1011C000CAFE0121204600F0EBFD1449A0688842C8
:1011D0000FD90021204600F04FFE0021204600F0EC
:1011E00068FE0E21217394F90C10204600F0F2FEE7
:1011F0000EE08021204600F03FFE0121204600F055
:1012000058FE1421217394F90C10204600F0E2FEE0
:101210000121204600F005FE10BD0000008F423382
:1012200031B58AB0012008900A9890F898010B28EF
:101230007ED2DFE800F00607B0FDFCFBFAF97DF88E
:10124000F70017E301210A9800F0EBFD9D210A98B1
:10125000D0F8940041740A98D0F89400407C07902C
:101260000A98D0F8BC0106901120DDE906219047CC
:101270000A98C07C012829D10A98017DD0F89400F1
:1012800080F824100A98D0F894001C3007900A982F
:10129000D0F8C00106901C20DDE9062190470A988D
:1012A000D0F89400007F00F03F0006900A98006894
:1012B00005900A9840680490DDE90420069990475B
:1012C000014607900A9800F059FE05E0FF210A98B0
:1012D000D0F8940080F824100A98D0F8940090F880
:1012E000240007900A98D0F8BC0106902420DDE97C
:1012F0000621904700210A98D0F8940080F83D100C
:101300000A98D0F8940080F83E100A98D0F894001B
:101310003D3007900A98D0F8C40102220690402080
:10132000DDE9063198470A98807C012806D100E063
:10133000FEE306210A9800F074FD18E00A98D0F840
:101340009400C17B0A98D0F8940041730A98D0F8B1
:101350009400407B07900A98D0F8BC0106900D20BD
:10136000DDE90621904705210A9800F05AFD4FF467
:1013700080710A989830FEF700FF0A98C169C0F89A
:10138000B011FE4800680A99C1F8AC0102210A9820
:1013900080F898116EE20A98D0F8CC0107901220DC
:1013A0000799884700F04000B8B3F44800680A99EC
:1013B000C1F8AC010A98C07C012822D10A98D0F863
:1013C00094001C3007900A98D0F8C00106901C20A9
:1013D000DDE9062190470A98D0F89400007F00F0DC
:1013E0003F0006900A98006805900A9840680490AB
:1013F000DDE9042006999047014607900A9800F01D
:10140000BDFD0A98D0F8BC01402107901220079A30
:10141000904703210A9880F898110A98D0F8CC01D7
:10142000079006E08FE354E348E3F7E22AE222E282
:1014300058E012200799884700F00200C8B3CF484F
:1014400000680A99C1F8AC010A98C07C012822D131
:101450000A98D0F894001C3007900A98D0F8C00180
:1014600006901C20DDE9062190470A98D0F89400E8
:10147000007F00F03F0006900A98006805900A98E7
:1014800040680490DDE904200699904701460790E2
:101490000A9800F073FD0A98D0F8BC010221079069
:1014A0001220079A90470A9800F0BCFB0A9981F82D
:1014B000A8010A98807C012813D10A980023D0F84B
:1014C000AC21D0F8B011AD48D0E90040A41A60EBCF
:1014D0000300091B73EB000203D204210A9880F871
:1014E000981166E30A98D0F89400123007900A9891
:1014F000D0F8C00106901220DDE9062190470A9835
:10150000D0F89400807C00F02000202815D10A98A3
:10151000D0F8BC01202107901220079A90470A9822
:10152000807C012804D101210A9880F8981103E0F9
:1015300002210A9880F898113BE30A98D0F8C0017C
:1015400007A906901920069A90479DF81C0000F004
:10155000800088B19DF81C00C043401CC0F3850189
:101560000A9880F89C110A9890F89C01404241B278
:101570000A9880F89C1105E09DF81C0081080A98E3
:1015800080F89C110A98D0F894001A3007900A98B5
:10159000D0F8C00106901A20DDE9062190470A988C
:1015A0008068774988423CD20A9890F99C010028CB
:1015B0001FDA0A9890F99C010390FEF77EFFCDE9AF
:1015C00006010A98D0F89400807E0190FEF786FF0D
:1015D00000226C4BCDE90201FEF7E7FDCDE90401E5
:1015E000DDE90623FEF7E1FD0A9A02F5D07203C297
:1015F00053E00A98D0F89400807E0390FEF76EFFC7
:10160000614A624BCDE90401FEF776FE00225D4B94
:10161000CDE90601FEF7C9FD0A9A02F5D07203C2B0
:101620003BE00A9890F99C0100281FDA0A9890F98B
:101630009C010390FEF741FFCDE906010A98D0F81E
:101640009400807E0190FEF749FF0022504BCDE9C7
:101650000201FEF7AAFDCDE90401DDE90623FEF74C
:10166000A4FD0A9A02F5D07203C216E00A98D0F8D7
:101670009400807E0390FEF731FF434A434BCDE94F
:101680000401FEF739FE0022414BCDE90601FEF7C9
:101690008CFD0A9A02F5D07203C20A98807C012858
:1016A00055D10A98D0F89400C17B0A98D0F89400DC
:1016B00041730A98D0F89400407B07900A98D0F8BC
:1016C000BC0106900D20DDE9062190470A98407C78
:1016D000012818D10A98D0F8940090F822100A989E
:1016E000A0F89A110A98D0F8940090F82200079078
:1016F0000A98D0F8C80106900A9998310020DDE9CF
:1017000006329847A7E00A98D0F894001330079063
:101710000A98D0F8C00106901320DDE90621904711
:101720000A98D0F89400C17C0A98A0F89A110A98F7
:10173000D0F89400C07C07900A98D0F8C8010690B1
:101740000A9998310020DDE90632984783E00A982B
:10175000D0F89400103007900A98D0F8C001069095
:101760001020DDE9062190470A98407C01283AD1F3
:101770000A98D0F8940090F822100BE0280000207E
:10178000008F4233008064C01B9E5E29CB10F13F66
:1017900000A063C00A98A0F89A110A98D0F89400A3
:1017A000017C0A98D0F8940041730A98D0F894000C
:1017B000407B07900A98D0F8BC0106900D20DDE927
:1017C000062190470A98D0F8940090F822000790DC
:1017D0000A98D0F8C80106900A9998310020DDE9EE
:1017E0000632984737E00A98D0F8940013300790F3
:1017F0000A98D0F8C00106901320DDE90621904731
:101800000A98D0F89400C17C0A98A0F89A110A9816
:10181000D0F89400017C0A98D0F8940041730A989B
:10182000D0F89400407B07900A98D0F8BC0106904D
:101830000D20DDE9062190470A98D0F89400C07C7D
:1018400007900A98D0F8C80106900A9998310020AC
:10185000DDE9063298470A98807C012804D10121ED
:101860000A9880F8981103E002210A9880F89811EC
:10187000022008909DE101210A9880F89811032028
:10188000089096E101210A9800F0CBFA0A98C07CF2
:1018900001282ED1F5210A98D0F8940041740A98B5
:1018A000017DD0F8940080F824100A98D0F89400B4
:1018B0001C3007900A98D0F8C00106901C20DDE982
:1018C000062190470A98D0F89400007F00F03F006E
:1018D00006900A98006805900A9840680490DDE92F
:1018E000042006999047014607900A9800F046FBAD
:1018F0000AE0F7210A98D0F89400417400210A9870
:10190000D0F8940080F824100A98D0F8940090F849
:10191000240007900A98D0F8BC0106902420DDE945
:10192000062190470A98D0F89400407C07900A98C6
:10193000D0F8BC0106901120DDE9062190470A98F5
:1019400090F8B411D0F8940080F822100A98D0F8DA
:10195000940090F8220007900A98D0F8BC010690F5
:101960002220DDE90621904700210A98D0F8940052
:1019700081730A98D0F89400807B07900A98D0F879
:10198000BC0106900E20DDE9062190470A98D0F8A8
:101990009400817B0A98D0F8940041730A98D0F89B
:1019A0009400407B07900A98D0F8BC0106900D2067
:1019B000DDE9062190470A98D0F8940090F82200BB
:1019C00007900A98D0F8C40106900A99983100202F
:1019D000DDE90632984741210A98D0F8940080F852
:1019E0003D1040210A98D0F8940080F83E100A98E3
:1019F000D0F894003D3007900A98D0F8C401022234
:101A000006904020DDE90631984703210A9800F04E
:101A100008FA06210A9880F89811CAE00A98D0F8C6
:101A2000CC01079012200799884700F0080058B1B0
:101A30000A98D0F8BC01082107901220079A904715
:101A400007210A9880F898110A98D0F8CC010790DD
:101A500012200799884700F0020070B30A98C07CF2
:101A6000012822D10A98D0F894001C3007900A98D7
:101A7000D0F8C00106901C20DDE9062190470A98A5
:101A8000D0F89400007F00F03F0006900A980068AC
:101A900005900A9840680490DDE904200699904773
:101AA000014607900A9800F069FA0A98D0F8BC013C
:101AB000022107901220079A90477AE001210A98A4
:101AC00000F0AFF900210A9880F8981104200890DE
:101AD0006FE001210A9800F0A4F9FA210A98D0F8E1
:101AE000940041740A98D0F89400407C07900A98BA
:101AF000D0F8BC0106901120DDE9062190470021B5
:101B00000A98D0F8940080F83D100A98D0F8940014
:101B100080F83E100A98D0F894003D3007900A985B
:101B2000D0F8C401022206904020DDE9063100E031
:101B30003EE0984707210A9800F073F90A210A98B5
:101B400080F8981135E00A98D0F8CC01079012205F
:101B50000799884700F0040010B30A98D0F8BC0138
:101B6000042107901220079A90470A98D0F8CC01D8
:101B7000079012200799884700F0010088B10FA054
:101B800000F0F6FD0A98D0F8BC0101210790122060
:101B9000079A904701210A9880F898110820089028
:101BA00005E000210A9880F898110720089000E0CD
:101BB00000BF00BF08980BB030BD00004341442077
:101BC00044657465637465640D0A000070B504466D
:101BD000D4F8940000F11B014FF4E07002591B206F
:101BE00090470D49A06888420AD2D4F89410C87E64
:101BF000FEF774FC05460022084BFEF7D6FA70BDCE
:101C0000D4F89410C87EFEF769FC05460022044B08
:101C1000FEF7CBFAF3E70000008F4233008064C088
:101C200000A063C010B50446D4F8940000F10C0184
:101C30004FF4E07002590C209047D4F89400007BD8
:101C4000400910BD10B50446D4F8940000F13F01DE
:101C50004FF4E07002594220904710BD70B5044621
:101C60000D46D4F8940000F11D014FF4E0700259C4
:101C70001D20904754F8940F407F00F0F10040EA97
:101C800045002168487754F89409417F4FF4DE708D
:101C900002591D209047E57370BD70B504460D468E
:101CA000D4F8940000F11D014FF4E07002591D209A
:101CB000904754F8940F407F00F0FE0028432168BD
:101CC000487754F89409417F4FF4DE7002591D2083
:101CD0009047657470BD70B504460D4694F8D30105
:101CE000A84200D170BD84F8D35184F8D25194F841
:101CF000D201012833D10021204600F092F854F897
:101D0000940F407800F07F0040F080002168487018
:101D100054F8940941784FF4DE700259012090473D
:101D20000121204600F07DF8002054F8941F81F82E
:101D30003D00216881F83E0054F8940900F13D010E
:101D40004FF4E27003590222402098474FF4E470A8
:101D500003596F2204F12501012098471EE000215C
:101D6000204600F05EF854F8940F407800F07F00B1
:101D70002168487054F8940941784FF4DE70025994
:101D8000012090470121204600F04BF84FF4E47009
:101D900003596F2204F125010120984700BFA1E7F4
:101DA00070B504460D46D4F8940000F126014FF4B6
:101DB000E07002592620904754F8940F90F82600BE
:101DC00000F0F70040EAC500216881F8260054F8C9
:101DD000940990F826104FF4DE700259262090479F
:101DE00070BD70B504460D46D4F8940000F1300182
:101DF0004FF4E07002593120904754F8940F90F856
:101E0000300000F0F8002843216881F8300054F8D1
:101E1000940990F830104FF4DE7002593120904749
:101E200070BD70B504460D460026D4F89400407885
:101E300020F0F80084F8D00194F8D001A8421AD01C
:101E4000032D01D1012600E0002694F8D101B04213
:101E500001D084F8D16154F8940F407800F0F80074
:101E600028432168487054F8940941784FF4DE7093
:101E700002590120904770BD70B504460D46D4F854
:101E8000940000F109014FF4E070025909209047D5
:101E900054F8940F407A00F07F002843216848727C
:101EA00054F89409417A4FF4DE70025909209047A2
:101EB00070BD70B504460D46D4F8940000F1490198
:101EC0004FF4E07002594D209047D4F8940000F18F
:101ED00009014FF4E070025909209047D4F89400AA
:101EE000407A00F08000802807D1012D0AD1872098
:101EF000D4F8941081F8490004E08420D4F89410B8
:101F000081F84900D4F8940090F849104FF4DE703D
:101F100002594D20904770BD70B504460D46D4F867
:101F2000940000F11E014FF4E07002591E2090470A
:101F300054F8940F807F00F0FB0040EA8500216890
:101F4000887754F89409817F4FF4DE7002591E207F
:101F50009047257470BD70B504460D46D4F89400C2
:101F600080F82250D4F8940090F822104FF4DE70DC
:101F70000259222090472020055570BD2DE9F047D9
:101F800004468946183444F8109C4846FEF7A6FAE1
:101F9000074600220E4BFEF721FA0546FEF7ABFA84
:101FA00081464FEA1940E16F88714FEA1920E16FCD
:101FB000C871E16F81F80890E06F183C811D4FF403
:101FC000E2700359032206209847BDE8F08700001D
:101FD00080844E4070B504460D46D4F8940000F15C
:101FE00009014FF4E070025909209047D4F8940099
:101FF00000F149014FF4E07002594D209047D4F8A8
:102000009400407A00F0800080283DD1D4F89400FC
:1020100090F8490000F0870087281AD1052D00DAD2
:102020000525142D00DD142554F8940F407A00F096
:102030008F0040F07000216848722068407A00F0FC
:10204000F000691F01F00F01084354F89419487219
:1020500036E0022D00DA0225112D00DD112554F89D
:10206000940F407A00F08F0040F0700021684872B1
:102070002068407A00F0F000A91E01F00F0108432B
:1020800054F8941948721BE0B5F1FF3F01DA4FF0A4
:10209000FF350E2D00DD0E2554F8940F407A00F028
:1020A0008F0040F07000216848722068407A00F08C
:1020B000F000691C01F00F01084354F894194872AC
:1020C000D4F89400417A4FF4DE7002590920904709
:1020D000257370BD80F89811704770B504460D46A1
:1020E000D4F8940000F11D014FF4E07002591D2056
:1020F000904754F8940F407F65F31F10216848778C
:1021000054F89409417F4FF4DE7002591D20904726
:10211000657370BD70B504460D460C2D01DD0C25B0
:1021200002E0062D00DA0625062D04D10521204601
:10213000FFF757FE03E003212046FFF752FED4F8D5
:10214000940000F11E014FF4E07002591E209047E8
:1021500054F8940F807F65F31F102168887754F836
:102160009409817F4FF4DE7002591E209047A573B9
:1021700070BD70B504460D46D4F8940000F11E0100
:102180004FF4E470035902221E20984754F8940F2C
:10219000807F00F0FC006FF0FC0101EA252108437C
:1021A000216888772168CD7754F8940900F11E01E1
:1021B0004FF4E270035902221E20984770BD70B59B
:1021C00004460E461546A4F8B451B4F8B42131467D
:1021D00004F19800FDF7B8FF052084F8980170BD60
:1021E00000B5024601211046FFF774FF00BD70B52F
:1021F00004460D4601222946204600F00AF870BD2B
:1022000070B504460D4601222946204600F01AF812
:1022100070BD2DE9F04105460E46174602F06CF9F7
:1022200005F07F0000F0DCF8002405E0002000F05D
:10223000D7F83055601CC4B2BC42F7DB02F04AF953
:10224000BDE8F0812DE9F04105460E46174602F043
:102250005DF905F07F0000F0D7F8002405E00020CC
:1022600000F0D2F83055601CC4B2BC42F7DB02F07B
:102270003BF9BDE8F08113B50446012201A92046CF
:1022800000F009F81CBD13B50446012201A920463F
:1022900000F019F81CBD2DE9F04105460E46174621
:1022A00002F02AF945F0800000F09AF8002404E0DA
:1022B000305D00F095F8601CC4B2BC42F8DB02F05F
:1022C00009F9BDE8F0812DE9F04105460E461746B3
:1022D00002F01CF945F0800000F096F8002404E0BC
:1022E000305D00F091F8601CC4B2BC42F8DB02F033
:1022F000FBF8BDE8F08110B500F002F810BD000059
:102300000CB50020019000903348006840F4803004
:102310003149086000BF3048006800F40030009088
:102320000198401C0190009818B90198B0F5A06F71
:10233000F1D12948006800F4003010B1012000906C
:1023400001E0002000900098012843D12348006854
:1023500040F01000214908600846006820F00300A2
:1023600008600846006840F0020008601A484068AB
:10237000194948600846406848600846406840F48B
:10238000806048600846406820F47C104860084639
:10239000406840F4E81048600846006840F08070EB
:1023A000086000BF0C48006800F000700028F9D0F9
:1023B0000948406820F00300074948600846406823
:1023C00040F00200486000BF0348406800F00C0085
:1023D0000828F9D10CBD0000001002400020024086
:1023E00010B5044621460748FEF714FE00BF012140
:1023F0000448FEF703FE0028F9D00248FEF707FE66
:10240000C0B210BD0038004010B504462146074850
:10241000FEF700FE00BF01210448FEF7EFFD002893
:10242000F9D00248FEF7F3FDC0B210BD00380040FD
:102430000448D0E900305A1C40F100000149C1E9CC
:10244000002070472800002010B51348006840F0B5
:1024500001001149086008464068104908400E49CB
:102460004860084600680E4908400B490860084665
:10247000006820F4802008600846406820F4FE00D0
:1024800048604FF41F008860FFF735FF4FF0006091
:102490000449086010BD0000001002400000FFF871
:1024A000FFFFF6FE08ED00E010B5002433E0002049
:1024B00004EB4401194A02EB0111087001F0DCFF42
:1024C00004EB4401154A02EB01110861092004EBF9
:1024D000440102EB01114875082004EB440102EBB2
:1024E00001110875022004EB440102EB011188750B
:1024F000002104EB4402094B03EB0212116251620A
:1025000004EB4400194601EB0010002140F8011FC4
:1025100041608160641C102CC9DB10BDC80700201D
:1025200010B540F22551134800F061F801281FD181
:1025300011480078B8B911480078FF2802DB002064
:102540000E4908700B49091D0988CAB20B49087861
:10255000411C0A4B19700A490A540A48D0E9001074
:10256000094AC2E9001040F22551024800F017F86C
:1025700010BD000000440040A0000020A100002089
:10258000F800002028000020A800002001F40072BC
:10259000B2F5007F00D100BFCA430280704710B57A
:1025A0000022002340F66A14A14200D100BF0A12A3
:1025B00001249440A3B2DC43048010BD21B1828980
:1025C00042F40052828104E082894DF6FF731A4082
:1025D0008281704702460020B1F5007F00D100BF24
:1025E00013880B400BB1012000E00020704770B54C
:1025F0000246002400230025002040F66A16B1425E
:1026000000D100BFC1F3421501F01F03012606FAF5
:1026100003F3012D02D19689334006E0022D02D149
:10262000168A334001E0968A33400C12012606FADE
:1026300004F41688344013B10CB1012000E00020EE
:1026400070BDF0B50346002400260025002040F6AA
:102650006A17B94200D100BF1846C1F3421401F015
:102660001F06012707FA06F5012C01D10C3004E002
:10267000022C01D1103000E014301AB107682F434A
:10268000076002E00768AF430760F0BD2DE9F0473F
:1026900086B005460E460024A24600BFA14600278C
:1026A000B08900B100BF2F462C8A4CF6FF70044061
:1026B000F08804432C82AC894EF6F3100440B088B5
:1026C00031890843718908430443AC81AC8A4FF6D1
:1026D000FF400440B0890443AC8201A8FEF708FB28
:1026E0001F48874202D1DDF810A001E0DDF80CA000
:1026F000A88900F4004040B10AEBCA0000EB0A10C0
:1027000031684900B0FBF1F807E00AEBCA0000EBC2
:102710000A1031688900B0FBF1F86420B8FBF0F0D2
:1027200004012009642101FB1089A88900F40040FC
:1027300040B1322000EBC900B0FBF1F000F007001F
:10274000044308E0322000EB09106421B0FBF1F0F3
:1027500000F00F0004432C8106B0BDE8F0870000B4
:1027600000380140C1F308028280704700BFFEE7D5
:102770000FB4054B10B503A9044A029800F0CAF83B
:1027800010BC5DF814FB00006D330008F40000205D
:1027900002E008C8121F08C1002AFAD1704770472A
:1027A000002001E001C1121F002AFBD17047000088
:1027B0002DE9FF5FDDE90220010DDDF838B00243AD
:1027C00018D044F61050A1F2FF3141430D140F9878
:1027D000012820D0A5EB0B00401C5FEA000A4FF057
:1027E0000004474EDFF81C91A046504616D5CAF1AA
:1027F000000728E00F98012443A2012808D00021F7
:1028000000980F9BC0E90021C0E90243BDE8FF9F8B
:102810006FEA0B01F4E7CBF10000DEE7074612E0B8
:10282000F80707D02246334640464946FDF764FD87
:10283000804689462246334610461946FDF75CFD20
:1028400004460E467F10002FEAD1DDE90201BAF1FD
:10285000000F42464B4602DAFDF74EFD01E0FDF760
:10286000BDFD04460E460022284BFDF74BFF03D862
:102870004FF0FF30014607E00022254B204631464D
:10288000FDF793FCFDF725FF102409E0002C0ADB7F
:102890000A220023FDF75EFE019B30321A55641EAA
:1028A00050EA0102F2D1641C019AC4F111031444EC
:1028B0000F9A012A03D0012208430DD10AE00843F0
:1028C00004D000204FF0110B0F9080E7A3EB0B0515
:1028D0006D1E0DE05B4504DD4FF0000205F10105C2
:1028E00004E003DA4FF00002A5F10105002AECD064
:1028F00000980F99C0E90231C0E9004586E7000061
:10290000000024400000F03F300000000000F043D1
:102910000000E03F2DE9FF4F95B09B4689460646F3
:1029200000250FE2252877D100242746F84A012107
:10293000059400E0044316F8013F203B01FA03F040
:102940001042F7D130782A2811D06FF02F03307859
:10295000A0F13002092A16D8059A44F0020402EBCD
:10296000820203EB42021044761C0590EFE759F80F
:10297000042B0592002A03DA504244F400540590D7
:1029800044F00204761C30782E2816D116F8010F78
:1029900044F004042A280DD06FF02F023078A0F103
:1029A0003003092B09D807EB870302EB4303C71851
:1029B000761CF3E759F8047B761C30786C280FD02E
:1029C00006DC4C2817D068280DD06A2814D104E002
:1029D000742810D07A280FD10DE044F400140AE0D6
:1029E00044F4801401E044F440147278824202D12D
:1029F00004F58014761C761C307866280BD013DC26
:102A0000582877D009DC002875D04528F6D046280C
:102A1000F4D047281AD19DE118E0632835D0642806
:102A200079D0652812D195E1702873D008DC672829
:102A3000F1D069286FD06E280DD06F2806D1B5E08F
:102A400073282CD0752875D0782874D05A461799D9
:102A500090476D1C75E1C4F30250022809D0032889
:102A60000DD0D9F8001004280DD00D6009F104092B
:102A700067E1D9F80010EA17C1E90052F6E7D9F882
:102A800000100D80F2E70D70F0E719F8041B8DF8C7
:102A9000001000208DF80100EA46012003E059F8FB
:102AA00004AB4FF0FF3061074FF0000102D40DE09E
:102AB00008F101018846B9420FDA8045F8DB1AF8BF
:102AC00008100029F4D108E008F10101884681428C
:102AD000FADB1AF808100029F6D105985B46A0EB3E
:102AE000080721463846179A00F094FA284400EB6C
:102AF000080507E04DE029E10DE01AF8010B5A4600
:102B000017999047B8F10108F7D25B46214638463D
:102B1000179A13E142E00A220092C4F302524FF0E6
:102B2000000A022A08D059F804CB032A4FEAEC71B4
:102B30000AD00DE029E02AE009F1070121F007029F
:102B4000F2E802C1914609E00FFA8CFC4FEAEC7101
:102B5000042A03D14FFA8CFC4FEAEC71002907DA02
:102B60000A460021DCF1000C61EB02012D2202E09B
:102B7000220504D52B228DF80420012203E0E20770
:102B800001D02022F7E7904659E00A2102E0102206
:102B90000DE010214FF0000A00910BE010224FF0E1
:102BA000000A44F004040827009203E008224FF0D2
:102BB000000A0092C4F30252022A05D059F804CB4D
:102BC0000021032A08D009E009F1070121F00702DA
:102BD000F2E802C1914605E01FFA8CFC042A01D1FB
:102BE0000CF0FF0C4FF00008220728D5702806D003
:102BF000009B83F0100353EA0A0305D00EE0402245
:102C00008DF80420012208E05CEA010206D030229F
:102C10008DF804208DF8050002229046009B83F079
:102C2000080353EA0A030AD15CEA010201D16207F0
:102C300005D530228DF804204FF001087F1E58285A
:102C400004D034A003900EA802900DE036A0F9E75E
:102C500053466046009AFDF77DFC84460398825CEB
:102C60000298401E029002705CEA0100F0D10298C6
:102C700006A9081A00F1200A600702D524F480345E
:102C800000E00127574502DDA7EB0A0000E0002025
:102C900000EB0A01009005984144401A0590E003BA
:102CA00006D45B462146179A059800F0B3F905440F
:102CB000002706E001A85A46C05D179990476D1C91
:102CC0007F1C4745F6DBE0030CD55B462146179A8F
:102CD000059800F09FF9054404E030205A46179902
:102CE00090476D1C0099481E00900029F5DC08E013
:102CF000029802995A460078491C02911799904708
:102D00006D1CBAF10001AAF1010AF1DC65E10000D5
:102D100009280100303132333435363738396162B1
:102D20006364656600000000303132333435363775
:102D300038394142434445460000000000F058F94C
:102D40000544761C307800287FF4ECAD19B0284695
:102D5000BDE8F08F620700D4062709F1070222F0D0
:102D6000070CFCE80223E14603F000485FEA080C88
:102D700002D00FF2702C0DE05FEA045C02D50FF276
:102D8000682C07E05FEAC47C02D00FF2602C01E0FF
:102D9000AFF2700C4FF0FF3823F00043CDF850C075
:102DA00065280CD006DC452809D046281DD04728C8
:102DB0003DD13DE0662818D067287ED138E000215B
:102DC000112F01DB112000E0781CCDE9000106A9DC
:102DD0000EA8FFF7EDFCDDE90F010E9A039100212B
:102DE000009207F1010A04914DE04FF00040009776
:102DF000CDE9011006A90EA8FFF7DAFCDDE90F0204
:102E000003920E9B11990022DDF80CA0009304920E
:102E100011B9791C00EB010AB7EB0A0004D4C0F128
:102E2000FF3007F1010A0490AAEB0700019044E08B
:102E3000012F00DA01270021112F01DD112000E010
:102E40003846CDE9000106A90EA8FFF7B1FCDDE97F
:102E50000F010E9A0391002104910092BA462107B6
:102E60000CD40399514500DA8A46BAF1010F05DD09
:102E7000009AAAF10101515C302908D0B84202DA67
:102E800010F1040F06DA0121CDE9011015E0AAF1D5
:102E90000101E9E7002805DC049901440491AAEB4B
:102EA000000102E0411C514500DD8A460499401AA8
:102EB000401C01904FF000400290200704D401987C
:102EC000504501DBCDF8048000208DF84F000298BA
:102ED0000DF14F07B0F1004F25D02B200E90029836
:102EE0004FF0020800280CDA404202902D200E908C
:102EF00007E00A210298FDF717FB3031029007F82E
:102F0000011DB8F10001A8F10108F2DC02980028C7
:102F1000EFD1791E0E980870307800F0200040F054
:102F2000450007F8020D12A8C01B00F1070814980D
:102F3000007800B1012000EB0A01019801EBE0717B
:102F400005984144401A401E0590E00306D45B46B4
:102F50002146179A059800F05DF80544149800780A
:102F600018B15A46179990476D1CE00324D55B466B
:102F70002146179A059800F04DF805441CE0049886
:102F8000002807DBDDE90301884203DD0098405C8F
:102F9000179901E0179930205A469047049805F197
:102FA0000105401C04900198401E019004D12E2080
:102FB0005A46179990476D1CBAF10001AAF1010A0F
:102FC000DDDC05E017F8010B5A46179990476D1C98
:102FD000B8F10001A8F10108F4DC5B462146179A1C
:102FE0000598ABE62D0000002B000000200000003B
:102FF0002DE9F041044600251E461746880404D4F6
:1030000005E039462020B0476D1C641EF9D52846DE
:10301000BDE8F0812DE9F041044600251E469046AA
:10302000C80301D5302700E02027880404D505E037
:1030300041463846B0476D1C641EF9D52846BDE8A8
:10304000F08100007CB506466348007810287DDAE0
:1030500010206249087000240AE004EB4400604933
:1030600001EB0010007810B95C490C7002E0641CA0
:10307000102CF2DB00BF102C10D155205949CDE99E
:10308000001059480CC859A0FFF772FB62A0FFF767
:103090006FFB5148017866A0FFF76AFB01F0ECF97D
:1030A0004E49097801EB41014D4A02EB01110861DB
:1030B0004A48007800EB400002EB001132466348BA
:1030C00000F068FA0546132D7CD15C204549CDE916
:1030D000001045480CC845A0FFF74AFB3F4801785F
:1030E0005BA0FFF745FB4048D0E900103B4A12784F
:1030F00002EB42023A4B03EB0212C2E90610012036
:103100003649097801EB41011A4602EB01110870BA
:1031100031480078401C30490870002450E02F48A6
:103120000078844200D14AE004EB44022C4B03EBCC
:103130000212511C294A127802EB420203EB0212DE
:10314000501C0C22FDF724F8002800E03BE035D1AC
:1031500004EB4400224901EB0010007801282DD136
:1031600069202049CDE900101F480CC81FA0FFF7B7
:10317000FFFA3CA0FFF7FCFA04EB4401184A02EB0B
:103180000111481C01220C2100F036FC00BF12483E
:103190000078401E10490870002004EB4401104ADA
:1031A00002EB0111087004EB4400114601EB001022
:1031B000002140F8011F4160816000BF00BF641C16
:1031C000102CACDB07E02C4890F8CC0418B100219F
:1031D000294880F8CC147CBDD4000020D500002004
:1031E000C8070020AC480008280000201B5B3430D2
:1031F0003B33326D5B256C6C645D1B5B306D201B5B
:103200005B323B34303B33336D2573282564291BF7
:103210005B306D3A200000001B5B313B34303B33A8
:10322000316D4552524F521B5B306D200000000043
:103230005B6275675D202067735F6F6E6C696E659A
:103240005F6E756D203D2025640D0A00E0040020AE
:103250005B6E65775D20646576696365203D20253A
:10326000640D0A005B726566726573685D20206E8E
:103270006F6465203D200000F80100201CB500248B
:1032800048E004EB4400254901EB001000780128D8
:103290003FD104EB440001EB0010D0E906232048A5
:1032A000D0E900108A1A60EB03004EF6602300217B
:1032B0009A1A81412DD27F201A49CDE90010184871
:1032C0000CC819A0FFF754FA22A0FFF751FA04EB3B
:1032D0004401124A02EB0111481C01220C2100F0AA
:1032E0008BFB00BF20480078401E1F49087000205B
:1032F00004EB4401094A02EB0111087004EB44009D
:10330000114601EB0010002140F8011F416081606F
:1033100000BF641C102CB4DB1CBD0000C8070020DB
:1033200028000020B84800081B5B34303B33326D66
:103330005B256C6C645D1B5B306D201B5B323B342A
:10334000303B33336D2573282564291B5B306D3A80
:10335000200000005B6F66666C696E655D20206E04
:103360006F6465203D200000D400002070B5044645
:103370000D46E1B2002000F093F8204670BD000039
:1033800010B586B0002484E004EBC401434A02EB8C
:10339000810188690121FDF79BFC04EBC4013F4AD0
:1033A00002EB8101C8680121FDF792FC04EBC40027
:1033B0003A4951F82000B0F5804F03D0B0F5003FF6
:1033C0000AD104E001218803FDF782FC06E0012117
:1033D0004804FDF76DFC01E000BFFEE700BF04EB11
:1033E000C4002E4901EB8000008AADF814001820BB
:1033F0008DF8170003208DF8160004EBC401274A4E
:1034000002EB8101486905A9FDF798FA04EBC400B5
:10341000224901EB8000808BADF8140004208DF868
:10342000170004EBC4011D4A02EB8101086A05A9DB
:10343000FDF784FA04EBC400184901EB80004068F2
:1034400001900020ADF80800ADF80A00ADF80C00BE
:10345000ADF810000C20ADF80E0004EBC4010F4ACB
:1034600002EB8101886801A9FFF710F904EBC401A0
:103470000A4A02EB810188680121FFF79FF804EBFB
:10348000C401064A02EB810188684021FFF77EF8FB
:10349000641C022CFFF678AF06B010BD540000206B
:1034A00070B504460D4604EBC4010A4A02EB8101E3
:1034B00088682946FFF756F900BF04EBC401054AA6
:1034C00002EB810188684021FFF784F80128F4D1DC
:1034D00070BD00005400002070B504460D4605E0A4
:1034E00021780120FFF7DCFF641C6D1E002DF7D151
:1034F00070BD000010B5044604EB4402054B03EB1D
:103500008202918804EB440203EB82029068FDF78B
:10351000F4FA10BD3000002010B5044604EB44025C
:10352000054B03EB8202918804EB440203EB820219
:103530009068FDF7E0FA10BD3000002070B5044639
:1035400004EB44020F4B03EB8202918804EB44022C
:1035500003EB82029068FDF7C5FA08B9012000E08C
:103560000020054604EB4402064B03EB82029188DF
:1035700004EB440203EB820290682A46FDF7BFFA8F
:1035800070BD00003000002010B5FDF7CBF9FDF74D
:1035900005FB10BD2DE9FC4704460D4691469F48AA
:1035A000066804F2E511204600F0CAFA824694F853
:1035B000E50100F00F0000287ED194F8E50101211B
:1035C000B1EBD01FF8D194F8E501C0F30210012847
:1035D000F2D1BAF1190FEFD10C2204F5F971484676
:1035E000FCF7D6FD002868D1D4F8E61145F8011F94
:1035F000D4F8EA116960D4F8EE01A8606D1E992034
:103600008749CDE9001085480CC886A0FFF7B0F8BF
:103610008FA0FFF7ADF801220C21681C00F0ECF937
:103620009B207F49CDE900107C480CC87DA0FFF7A6
:103630009FF804F10800FEF7C9FA07460B467748E1
:103640000068811B3A4684A0FFF792F804F2E51463
:10365000207820F00F002070207820F070001030CB
:103660002070207820F080002070A4F2E514D5F8B6
:103670000110C4F8E611D5F80510C4F8EA11D5F820
:103680000910C4F8EE112869010E84F8F2112869B6
:10369000010C84F8F311288A010A84F8F411297CBA
:1036A00084F8F511287D697D40EA011084F8F6015F
:1036B000A87D4007010E01E03FE095E084F8F71196
:1036C000132204F2E511204600F049FAAE205449D5
:1036D000CDE9001051480CC852A0FFF749F864A08A
:1036E0002969FFF745F8AF204D49CDE900104B4857
:1036F0000CC84CA0FFF73CF8297D61A0FFF738F813
:10370000B0204749CDE9001044480CC845A0FFF758
:103710002FF8697D5DA0FFF72BF8B1204049CDE976
:1037200000103E480CC83FA0FFF722F8A97D5AA020
:10373000FFF71EF81320BDE8FC8794F8E50100F0C0
:103740000F00002850D194F8E5010121B1EBD01F02
:103750004AD194F8E501C0F30210002844D1BAF12F
:103760000D0F41D194F8E50120F0800084F8E501C7
:10377000D9F80010C4F8F211D9F80410C4F8F61101
:10378000D9F80810C4F8FA11192204F2E5112046FC
:1037900000F0E5F9BA202249CDE900101F480CC815
:1037A00020A0FEF7E5FF3FA0FEF7E2FF01220C217B
:1037B00004F5F37000F020F9BC201949CDE90010A0
:1037C00016480CC817A0FEF7D3FF04F10800FEF757
:1037D000FDF907460B4611480068811B3A461EA0BA
:1037E000FEF7C6FF1920A6E7C0200D49CDE900105D
:1037F0000A480CC80BA0FEF7BBFF32A0FEF7B8FFCB
:10380000CDF800A094F8E501C309C0F3021200F05E
:103810000F013148FEF7ACFF00208CE728000020A4
:10382000E14700081B5B34303B33326D5B256C6C29
:10383000645D1B5B306D201B5B323B34303B3333AC
:103840006D2573282564291B5B306D3A200000002C
:103850004E4D4143203D200054494D45203D2025FB
:1038600064206D7320527373693A2025660D0A0037
:103870002053656564203D202564200D0A0000006A
:10388000204277203D202564200D0A002053662029
:103890003D202564200D0A00204563203D2025643D
:1038A000200D0A00424153455F53544154494F4E45
:1038B0005F42494E44494E47202C204E4D41432003
:1038C0003D2000001B5B313B34303B33336D5741AF
:1038D000524E1B5B306D2000F84800082DE9FC417A
:1038E00004460F4616461D462869A060297D61756D
:1038F000697DA175A97DE175A17D04F10800FEF740
:1039000009FCE17D04F10800FEF7A8F9617D04F1EE
:103910000800FEF7E2FB04F2E514207820F00F0027
:103920002070207820F0700020302070207820F067
:1039300080002070A4F2E5143246394604F5F37095
:10394000FCF702FC701CC2B204F2E511204600F044
:1039500006F98046B8F1000F0FDA87200849CDE953
:10396000001008480CC808A0FEF702FF11A0FEF7DF
:10397000FFFE16A0A168FEF7FBFEBDE8FC8100007B
:10398000C6470008280000201B5B34303B33326DF3
:103990005B256C6C645D1B5B306D201B5B323B34C4
:1039A000303B33336D2573282564291B5B306D3A1A
:1039B000200000001B5B313B34303B33316D4552FE
:1039C000524F521B5B306D200000000053656E6447
:1039D00020555345525F4441544120746F204E4F4F
:1039E0004445206661696C6564202C2075736520F0
:1039F00025640D0A000000002DE9F04104460D4643
:103A00001646002705E0217806A0FEF7B1FE641CEB
:103A10007F1CAF42F7DB16B104A0FEF7A9FEBDE89C
:103A2000F081000025303278000000000D0A00000F
:103A300010B5044604F10800FDF77EFB04F1080010
:103A4000FEF7CEFB002010BD2DE9FC4105460F46D8
:103A5000002441E0C4EB441101EB410105EBC1013D
:103A600001F10800FDF7DCFB0646022E02D0042E11
:103A70002FD123E0C4EB441000EB400005EBC00065
:103A800090F8E40148B90120C4EB441101EB410175
:103A900005EBC10181F8E4010FE01D201049CDE9DB
:103AA000001010480CC810A0FEF762FE19A0FEF727
:103AB0005FFE21461DA0FEF75BFE0BE0C4EB441148
:103AC00001EB410105EBC10101F10800FEF788FBA4
:103AD00000E000BF00BF641CBC42BBDBBDE8FC8152
:103AE000B8470008280000201B5B34303B33326DA0
:103AF0005B256C6C645D1B5B306D201B5B323B3463
:103B0000303B33336D2573282564291B5B306D3AB8
:103B1000200000001B5B313B34303B33316D45529C
:103B2000524F521B5B306D20000000007061636BD0
:103B3000206C6F7374203D2025640D0A0000000086
:103B400038B504460D466A46294604F10800FDF7DB
:103B5000E2FA002084F8E401BDF8000038BD70B539
:103B600005460E461446FF2C00DDFF242246314652
:103B700005F10800FEF723FB204670BD7CB500F080
:103B800081FB00F0C7FD04467CB900F0BFFD05468F
:103B90001948007800EB4000184901EB001300229F
:103BA00029461748FFF79AFE24E000F0AFFD0546CE
:103BB0001148007800EB4000104901EB0013224649
:103BC00029460F48FFF78AFEAC200E49CDE90010C8
:103BD0000D480CC80DA0FEF7CBFD214616A0FEF740
:103BE000C7FD00F093FD054601222146FFF704FFC3
:103BF00000F0D4FD7CBD0000D6000020C8070020E6
:103C0000F8010020DC480008280000201B5B34304D
:103C10003B33326D5B256C6C645D1B5B306D201B30
:103C20005B323B34303B33336D2573282564291BCD
:103C30005B306D3A2000000075736172742064611E
:103C400074205B25645D203D20000000C4B0002589
:103C500000264FF4E060FDF713F800F023FDFFF7B6
:103C600093FC0020FFF758FC0120FFF743FCFFF70F
:103C700087FB00F05BFD00F079FBC820EE49CDE941
:103C80000010EE480CC8EEA0FEF772FDF7A0FEF79C
:103C90006FFDC920E849CDE90010E8480CC8E8A04C
:103CA000FEF766FDF5A2F8A1FAA0FEF761FDCB20B4
:103CB000E149CDE90010E1480CC8E1A0FEF758FD4C
:103CC000F9A0FEF755FD01220C21FE480068FFF720
:103CD00093FEFEF7E9FB00240EE1C4EB441101EB77
:103CE0004101F94A02EBC10101F10800FDF7E4F9D5
:103CF000002C6DD1F549C4EB441000EB4000F24AB2
:103D000002EBC000C0F8C011F149C4EB441000EB55
:103D1000400002EBC000C0F8C811EE49C4EB4410EB
:103D200000EB400002EBC000C0F8C411EA49C4EB4C
:103D3000441000EB400002EBC000C0F8D011E7498E
:103D4000C4EB441000EB400002EBC000C0F8CC1103
:103D5000E349C4EB441000EB400002EBC000C0F8A4
:103D6000D411E04890F84410C4EB441000EB40003C
:103D700002EBC0004175DB4890F84610C4EB4410DC
:103D800000EB400002EBC000C175D64890F845102A
:103D9000C4EB441000EB400002EBC0008175002032
:103DA000C4EB441101EB410102EBC1018860CE4933
:103DB000C4EB441000EB400002EBC000C1600121E5
:103DC000C4EB441000EB400002EBC000C17670E091
:103DD000012C6ED1C549C4EB441000EB4000BA4A37
:103DE00002EBC000C0F8C011C149C4EB441000EBA5
:103DF000400002EBC000C0F8C811BE49C4EB44103B
:103E000000EB400002EBC000C0F8C411BA49C4EB9B
:103E1000441000EB400002EBC000C0F8D011B749DD
:103E2000C4EB441000EB400002EBC000C0F8CC1122
:103E3000B349C4EB441000EB400002EBC000C0F8F3
:103E4000D411B049C4EB441000EB400002EBC000B9
:103E500001610A21C4EB441000EB400002EBC000FA
:103E600081750921C4EB441000EB400002EBC00057
:103E700041750421C4EB441000EB400002EBC0008C
:103E8000C1750020C4EB441101EB410102EBC101FB
:103E900088609549C4EB441000EB400002EBC00081
:103EA000C1600121C4EB441000EB400002EBC000F4
:103EB000C1764FF47A71C4EB441000EB4000824AA3
:103EC00002EBC0000162C4EB441000EB400002EBC7
:103ED000C00041620020C4EB441101EB410102EB40
:103EE000C10181F8E401C4EB441101EB410102EB93
:103EF000C100FFF79DFD641C022CFFF6EEAE8BE1C6
:103F000002217148FFF7A0FD00F028FC6E4890F8F0
:103F1000E401002870D003A96B48FFF711FE0546A5
:103F2000464903C9784A127802EB42026D4B03EB13
:103F30000212C2E9060164480830FDF7E8F8724948
:103F4000097801EB4101674A02EB011181F8280071
:103F50005D480830FDF7D6F86B4A127802EB420252
:103F6000604B03EB0212C2E90801681E00282BDD3A
:103F70006549097801EB41011A4602EB0111481C21
:103F80000C21FFF7A9FA0C214E480068FFF7A4FAAC
:103F9000691E0DF10D00FFF79FFA40F21D10264932
:103FA000CDE9001025480CC825A0FEF7E1FB5648D6
:103FB000017856A0FEF7DCFB681EC1B201220DF1AC
:103FC0000D00FFF719FD0EE04FF490701A49CDE98E
:103FD00000101A480CC81AA0FEF7CAFB4A4801781C
:103FE0004EA0FEF7C5FBFFF7C9FD144903C9504AAF
:103FF00003C20020FFF7A2FA334890F8CC0418B1AE
:1040000030480068FFF71EF80C48D0E90010484A15
:1040100088CACA1A60EB07004FF47A7300219A1A13
:10402000814107D243480078002803D040F239107C
:10403000014981E09EE00000F348000828000020CC
:104040001B5B34303B33326D5B256C6C645D1B5BFA
:10405000306D201B5B323B34303B33336D2573288E
:104060002564291B5B306D3A2000000055534152F6
:1040700054315F436F6E6669670D0A0030323A3023
:10408000373A3133000000004A756C202036203268
:10409000303138004275696C64202C20257320254E
:1040A00073200D0A00000000474154455741592034
:1040B0004D4F44554C45202C20474D4143203D2039
:1040C00000000000D0000020F80100209F10000830
:1040D000EF21000877220008132200089722000829
:1040E00093440008C807002011440008AB100008E2
:1040F000012200088722000845220008C722000884
:10410000B34400088047A119D60000204E6F6465B3
:104110002025642064617461203D20004E6F646539
:10412000202564206973204C697665200D0A000003
:10413000D8000020D4000020CDE9001037480CC87A
:10414000AFF20410FEF714FB35A0FEF711FB39485F
:10415000007800EB4000384901EB00100269354857
:10416000017836A0FEF704FBFFF708FD2B4903C9D1
:10417000394A03C22948D0E900203849D1E9003141
:10418000D21A60EB010041F2883300219A1A814172
:1041900013D2224903C9314A03C240F245103049C3
:1041A000CDE900101D480CC8AFF26C10FEF7E0FA24
:1041B0002C4801782CA0FEF7DBFA1848D0E9003033
:1041C0002F49D1E900219A1A60EB0100C823002190
:1041D0009A1A814120D2114903C9294A03C22148B0
:1041E000007808B900260CE026B1002C02DC0F2470
:1041F000002606E02EB9002C03DC1A4800784400A3
:104200000126002C00DB641E1EB10120FFF796F989
:1042100002E00120FFF76EF972E60000280000209E
:104220001B5B313B34303B33336D5741524E1B5B8C
:10423000306D2000D6000020C80700204E4F4445B6
:104240002025642054696D656F7574207573652031
:1042500025640D0A00000000D8000020E0000020C6
:10426000F3480008D40000204F4E4C494E45204EE4
:10427000554D2009203D2009202564200D0A00000D
:10428000E80000201CB50024FEF7F8FF1A4800786B
:1042900000B91CBD19480078401C1849087000BFBF
:1042A00016480078102802DB0020144908701348D3
:1042B000007800EB4000124901EB0010007800B1DB
:1042C000E7E7102C11DD99200E49CDE900100E48CA
:1042D0000CC80EA0FEF74CFA17A0FEF749FA0648E4
:1042E00001781BA0FEF744FAD3E704480078401C8D
:1042F00002490870641CD3E7D4000020D6000020D7
:10430000C8070020C4480008280000201B5B343088
:104310003B33326D5B256C6C645D1B5B306D201B29
:104320005B323B34303B33336D2573282564291BC6
:104330005B306D3A200000001B5B313B34303B3377
:10434000316D4552524F521B5B306D200000000012
:104350005B6275675D202067735F6F6E6C696E6569
:104360005F6E756D203D2025640D0A0000B587B095
:1043700001214FF40170FCF7ABFC0220ADF8040002
:1043800000208DF8070001A91F48FCF7D7FA00208C
:10439000029001208DF80C008DF80D004FF4602084
:1043A00004900020059001208DF8180002A91748FC
:1043B000FCF70CFA4FF40040FCF76EFC03230122DB
:1043C00011461248FCF72AFA01211048FCF7D2F9ED
:1043D00001210E48FCF7C3F90C48FCF77BFA00BF3B
:1043E0000A48FCF7E9F90028FAD10848FCF782FAF4
:1043F00000BF0648FCF7C9F90028FAD1012103489B
:10440000FCF76DFA07B000BD000801400024014030
:1044100070B506460C463046FBF78EFE002502E0DE
:10442000FBF780FE6D1CA542FADBFBF77BFE40F23A
:104430008F1190FBF1F201FB12000249024A02FBCC
:10444000001070BD801A701890D0030010B500BF26
:1044500002210848FCF7A7F90028F9D00548FCF725
:104460009EF9C4B202210348FCF776F904F001007A
:1044700010BD00000024014070B50024002504E0B8
:104480006400FFF7E3FF04436D1C202DF8DB20469A
:1044900070BD70B5044600F02FF804F07F00FDF702
:1044A0009FFF0020FDF79CFF054600F013F828460B
:1044B00070BD70B5044600F029F804F07F00FDF7E8
:1044C000A3FF0020FDF7A0FF054600F00DF82846E9
:1044D00070BD000010B54FF480510248FCF70DFB91
:1044E00010BD0000000C014010B504210148FCF78C
:1044F00004FB10BD000C014010B54FF48051024880
:10450000FCF7F9FA10BD0000000C014010B50421C1
:104510000148FCF7F0FA10BD000C014000B587B06F
:10452000FCF798FD1820ADF814000020ADF8080045
:104530004FF48270ADF80A000020ADF80C00ADF821
:104540000E00ADF810004FF40070ADF8120000201E
:10455000ADF816000720ADF8180002A90D48FCF7C9
:104560005BFD01210B48FCF78DFD01210948FCF79B
:104570008FFC7C200849CDE9001008480CC808A031
:10458000FEF7F6F811A0FEF7F3F8FCF78DFC07B084
:1045900000BD0000003800407548000828000020D9
:1045A0001B5B34303B33326D5B256C6C645D1B5B95
:1045B000306D201B5B323B34303B33336D25732829
:1045C0002564291B5B306D3A200000006C6F72611E
:1045D0005B305D2075736520535049320D0A000031
:1045E00000B587B0FCF744FD1820ADF8140000209A
:1045F000ADF808004FF48270ADF80A000020ADF865
:104600000C00ADF80E00ADF810004FF40070ADF8DE
:1046100012000020ADF816000720ADF8180002A91E
:104620000D48FCF7F9FC01210B48FCF72BFD01219B
:104630000948FCF72DFC40F241100849CDE9001073
:1046400007480CC807A0FEF793F811A0FEF790F8F2
:10465000FCF780FC07B000BD003800409C48000813
:10466000280000201B5B34303B33326D5B256C6CC3
:10467000645D1B5B306D201B5B323B34303B33335E
:104680006D2573282564291B5B306D3A20000000DE
:104690006C6F72615B315D207573652053504932D8
:1046A0000D0A000030B5164800684FF47A72B0FB6E
:1046B000F2F1B1F1807F01D301201DE021F07F40B4
:1046C000401E4FF0E022506150170F22002807DAF9
:1046D00013071D0E0B4B00F00F04241F1D5503E0A4
:1046E00013071C0E084B1C5400BF00204FF0E022A3
:1046F000906107201061002008B100BFFEE730BDC7
:104700000000002018ED00E000E400E000487047E1
:10471000F80000200348007810B103480078704783
:104720000020FCE7A0000020A100002008B5262002
:104730008DF8000000208DF801008DF802000120A6
:104740008DF803006846FCF763FA012240F2255118
:104750000148FDF776FF08BD004400400B48007893
:1047600090B90B48007878B10A48D0E900100A4B9C
:104770000CCB8A1A60EB03000A2300219A1A8141AC
:1047800002D201200149087070470000A0000020FB
:10479000A100002028000020A80000200448007884
:1047A00020B10020034908700149087070470000DB
:1047B000A0000020A10000206C6F72615F6E657424
:1047C0005F70726F63006C6F72615F6E65745F47DC
:1047D0006174657761795F557365725F6461746157
:1047E000006C6F72615F6E65745F476174657761BD
:1047F000795F4E6574776F726B5F72657175657303
:1048000074006C6F72615F6E65745F557365725F83
:1048100064617461006C6F72615F6E65745F4E6598
:1048200074776F726B5F72657175657374006C6F0E
:1048300072615F6E65745F426173655F737461740A
:10484000696F6E5F62696E64696E67004861726469
:104850004661756C745F48616E646C65720053509C
:10486000495F4750494F5F436F6E66696775726174
:1048700074696F6E0073746D33325F7370695F6952
:104880006E6974005350495F4750494F5F436F6EE4
:1048900066696775726174696F6E320073746D3327
:1048A000325F7370695F696E6974320063616C6C4A
:1048B0005F636F6E66696700636865636B4F6E6CFC
:1048C000696E65006E6578744F6E6C696E654375D0
:1048D0007272656E74557365724964006C6F7261B3
:1048E0005F7075745F646174615F63616C6C626159
:1048F000636B006D61696E005B5075626C69635D2E
:1049000020466C61675F76657273696F6E203D202B
:1049100025642C20466C61675F74797065203D20AA
:1049200025642C20466C61675F64697265637469F5
:104930006F6E203D2025642C206C656E203D202567
:1049400064200D0A000000006849000800000020F3
:10495000F800000090270008604A0008F8000020D6
:10496000D0190000A027000800A24A04000000009F
:10497000000000000102030406070809000000000F
:1049800001020304010203040607080902040608E1
:104990000000000000000000080000000800000007
:1049A000000C01400800000010000000000C014055
:1049B0001000000000200000001001400040000036
:1049C00000C20100003801400400000000020000A5
:1049D000000801400400000000040000000801403D
:1049E0000000020000C2010000440040040000007A
:1049F000040000000008014004000000080000005E
:104A0000000801400000000000000000000000005D
:104A10000000000000000000400ECF191408090239
:104A20000100000004000000E8030000D0070000BF
:104A30004000000000000000E8F7FF1F0000000039
:104A40000000000000000000000000000000000066
:104A50000000000000000000000000000000000056
:04000005080000ED02
:00000001FF
