:020000040800F2
:100000006027002001010008C1090008A9080008B4
:10001000BD0900085907000815230008000000006A
:10002000000000000000000000000000F10C0008CB
:100030005D07000800000000D909000875200008CD
:100040001B0100081B0100081B0100081B01000820
:100050001B0100081B0100081B0100081B01000810
:100060001B0100081B0100081B0100081B01000800
:100070001B0100081B0100081B0100081B010008F0
:100080001B0100081B0100081B0100081B010008E0
:100090001B0100081B0100081B0100081B010008D0
:1000A0001B0100081B0100081B0100081B010008C0
:1000B0001B0100081B0100081B0100081B010008B0
:1000C0001B0100081B0100081B0100081B010008A0
:1000D0001B0100081B0100081B0100081B01000890
:1000E0001B0100081B0100081B010008DFF80CD0F1
:1000F00000F020FB00480047DD34000860270020A6
:100100000648804706480047FEE7FEE7FEE7FEE7B1
:10011000FEE7FEE7FEE7FEE7FEE7FEE78D200008CC
:10012000ED0000080649074A0868504343F23902C7
:10013000104408604008704701490860704700009B
:10014000780000206D4EC64140EA01039B0703D0B2
:1001500009E008C9121F08C0042AFAD203E011F806
:10016000013B00F8013B521EF9D27047D2B201E0C8
:1001700000F8012B491EFBD270470022F6E710B5AC
:1001800013460A4604461946FFF7F0FF204610BD05
:1001900030B504460020034600E05B1C934203D2C6
:1001A000E05CCD5C401BF8D030BD2DE9FE4F8046B1
:1001B00081EA0300C00F0C46009021F0004123F0BB
:1001C0000045B8EB0200A94105D2404621469046C1
:1001D0001C460B46024623F00040104347D0270D33
:1001E000C7F30A00C3F30A510290401A0190402855
:1001F0006BDAC3F3130040F4801B0098924620B1E1
:100200000023D2EB030A63EB0B0B01985946C0F1B4
:100210004002504600F0CFF906460D46504659467A
:10022000019A00F0E7F910EB08006141002487EA29
:10023000115284EAE7731A4340D0009A62B3019ADC
:10024000012A4FEA075215DC001B61EB02014FF057
:10025000004202EA0752CDE90042001C41F580113C
:1002600032462B4600F0E7F903B0BDE8F08F404678
:100270002146F9E7001B61EB0201001C41F58013E8
:1002800000185B412018A2F5001747EB030140EA74
:10029000D570B6196D4111E06D084FEA360645EA92
:1002A000C0754FEA0752001B61EB0201001C41F5CB
:1002B000801149084FEA30000019514132462B465F
:1002C00003B0BDE8F04F00F0A7B90098012240004C
:1002D0000023D0EB020263EBE073009821464FEA63
:1002E000E074B8EB000061EB0401E9E783F0004340
:1002F0005BE781F0004158E72DE9FE4F81EA0304F6
:1003000004F0004421F0004100944FF0000B23F072
:10031000004350EA01045ED052EA03045BD0C3F309
:100320000A54C1F30A552C44A4F2F3340194A0FBFF
:100330000254C1F3130141F48011C3F3130343F4D6
:10034000801301FB024400FB034E840A970A44EA2F
:10035000815447EA8357A4FB076802958D0A05FB81
:1003600007854FEA932C04FB0C542705029D4FEAA6
:10037000065847EA1637B5EB08056EEB070C870EF3
:10038000920E47EA811742EA8312A7FB0201B6EBFD
:100390000B0164EB00042B0D43EA0C335E1844EBB5
:1003A0001C50DA465146E7FB0201C5F313044FEA3D
:1003B0000B3343EA14534FEA0432019C43EA060329
:1003C000A4F10C040294009CCDE900B400F033F9D0
:1003D00003B0BDE8F08F00200146F9E72DE9F04DAC
:1003E00081EA030404F0004B21F0004514464FF06D
:1003F000000A23F0004150EA050220D054EA01022D
:100400001DD0C5F30A570246C5F31303C1F3130009
:10041000C1F30A5640F4801543F48013A7EB060895
:10042000101BD64608F2FD3873EB050002D308F125
:10043000010801E092185B41B8F1000F03DA0020D7
:100440000146BDE8F08D00204FF480110646844639
:100450000EE0171B73EB050705D3121B63EB0503B7
:1004600006434CEA010C49084FEA300092185B4100
:1004700050EA0107EDD152EA030012D082EA0400EB
:1004800083EA0501084305D0101BAB4106D20122C7
:10049000002306E000224FF0004302E06FF001026B
:1004A00053101AEB06004CEB085110EB0A0041EB1D
:1004B0000B01BDE8F04D00F0AFB80EB5C10F80EAFA
:1004C000E0700844CA07002140F233438DE80E0073
:1004D0000A460B4600F0AFF803B000BD0EB540F27F
:1004E000334102910021CDE900110A460B4600F08C
:1004F000A2F803B000BDC1F30A5210B5C1F3130155
:1005000040F2FF3341F480119A4201DA002010BD1D
:1005100040F233439A42A2F2334203DC524200F0EB
:1005200059F810BD904010BD30B50B460146002073
:100530002022012409E021FA02F59D4205D303FAA5
:1005400002F5491B04FA02F52844151EA2F1010226
:10055000F1DC30BD2DE9F05F0546002092469B4658
:1005600088460646814640241BE0284641464746C9
:10057000224600F02FF853465A46C01A914110D334
:1005800011461846224600F016F82D1A67EB0108AE
:100590004F4622460120002100F00DF817EB00091C
:1005A0004E41201EA4F10104DFDC484631462A46B4
:1005B0004346BDE8F09F202A04DB203A00FA02F10E
:1005C000002070479140C2F1200320FA03F3194341
:1005D00090407047202A04DB203A21FA02F00021E3
:1005E000704721FA02F3D040C2F120029140084343
:1005F00019467047202A06DBCB17203A41FA02F051
:1006000043EAE07306E041FA02F3D040C2F120026F
:10061000914008431946704710B5141E73F1000449
:1006200008DA401C41F1000192185B411A4301D1E4
:1006300020F0010010BD2DE9F04D92469B4611B10E
:10064000B1FA81F202E0B0FA80F220329046FFF770
:10065000B2FF04460F4640EA0A0041EA0B01534646
:100660005A46084313D0114653EA010019D0C8F185
:1006700040025046FFF7AEFF05460E46504659462B
:100680004246FFF798FF084305D0012004E02046CA
:100690003946BDE8F08D0020054346EAE0762C435C
:1006A00037430A986305E40AA0EB08000022FD0A1C
:1006B00044EA47540A3002D500200146E9E7010523
:1006C00010196941DDE9084500196941BDE8F04D9F
:1006D000A2E7C1F30A52C1F3130140F2FF3341F420
:1006E00080119A4202DA00200146704740F23343FB
:1006F0009A42A2F2334202DC5242FFF76BBFFFF78D
:100700005ABF000030B5041E71F1000404DB4FF045
:100710000044404264EB0101141E73F1000405DB48
:100720001C464FF00043524263EB0403994208BF5A
:10073000904230BD064C074D06E0E06840F00103F2
:1007400094E8070098471034AC42F6D3FFF7D2FC88
:10075000283E0008483E000800BFFEE7704701B58C
:1007600000BF0098411E00910028FAD108BD2DE974
:10077000F041024600250026002000230024002727
:1007800091F803C00CF00F0591F803C00CF0100CA9
:10079000BCF1000F03D091F802C04CEA050591F8B6
:1007A00000C0BCF1000F31D0146800202BE04FF0E6
:1007B000010C0CFA00F3B1F800C00CEA03069E42EB
:1007C00020D183004FF00F0C0CFA03F7BC4305FA5D
:1007D00003FC4CEA040491F803C0BCF1280F06D1D5
:1007E0004FF0010C0CFA00FCC2F814C00AE091F8BA
:1007F00003C0BCF1480F05D14FF0010C0CFA00FC0E
:10080000C2F810C0401C0828D1D31460B1F800C051
:10081000BCF1FF0F34DD546800202EE000F1080C1D
:100820004FF0010808FA0CF3B1F800C00CEA030617
:100830009E4221D183004FF00F0C0CFA03F7BC430A
:1008400005FA03FC4CEA040491F803C0BCF1280F3C
:1008500005D100F1080C08FA0CF8C2F8148091F8E0
:1008600003C0BCF1480F07D100F1080C4FF001089C
:1008700008FA0CF8C2F81080401C0828CED3546047
:10088000BDE8F08102460020D3680B400BB1012087
:1008900000E00020704741617047016170470AB174
:1008A000016100E0416170471CB500210C460D4616
:1008B0003E201049CDE900100F480CC80FA001F0F0
:1008C0002BFD19A001F028FD1DA001F025FD0FE072
:1008D0000948D0E900100A1B60EB05003C23002109
:1008E0009A1A814104D2044830C8002002F0E8FA84
:1008F000EEE70000E03D0008280000201B5B3430DC
:100900003B33326D5B256C6C645D1B5B306D201B73
:100910005B323B34303B33336D2573282564291B10
:100920005B306D3A200000001B5B313B34303B33C1
:10093000316D4552524F521B5B306D20000000005C
:10094000486172644661756C74200D0A00000000F5
:1009500038B500242CE004EB4401174A52F821007A
:10096000012100F04BF804EB4400134901EB800037
:100970008088ADF8000003208DF8020010208DF86B
:10098000030004EB44010C4A02EB810188686946CC
:10099000FFF7EDFE04EB4402074B03EB8202918864
:1009A00004EB440203EB82029068FFF774FF641CBF
:1009B000012CD0DB38BD00003000002000BFFEE776
:1009C0007047000002490143024A1160704700006D
:1009D0000000FA050CED00E07047000029B1064A5E
:1009E000D2690243044BDA6104E0034AD2698243CC
:1009F000014BDA61704700000010024029B1064A3D
:100A000092690243044B9A6104E0034A926982436B
:100A1000014B9A61704700000010024030B5002180
:100A20000022002400232D4D6D6805F00C0121B13A
:100A3000042905D0082923D105E0294D056022E0CD
:100A4000274D05601FE0254D6D6805F47012234D9C
:100A50006D6805F48034022505EB92421CB9214DE6
:100A6000554305600BE01D4D6D6805F400351DB163
:100A70001C4D5543056002E0194D5543056002E0E9
:100A8000174D056000BF00BF144D6D6805F0F00103
:100A90000909154D6B5C0568DD4045600F4D6D68BB
:100AA00005F4E061090A104D6B5C4568DD40856026
:100AB0000A4D6D6805F46051C90A0B4D6B5C4568C1
:100AC000DD40C560054D6D6805F44041890B074D5B
:100AD0006B5CC568B5FBF3F5056130BD00100240E5
:100AE00000127A0000093D001400002024000020BC
:100AF00008B501210820FFF781FF4FF48070ADF8A1
:100B0000000003208DF8020010208DF803006946D4
:100B10000E48FFF72CFE4FF480710C48FFF7BDFE26
:100B20004FF4E150FFF71BFE4FF480710748FFF7C9
:100B3000B2FE0748FFF713FE4FF480710348FFF73A
:100B4000ACFE0448FFF70BFE08BD0000000C01409E
:100B5000401901008097060008B501210820FFF721
:100B60004DFF4FF40060ADF8000003208DF8020047
:100B700010208DF8030069460D48FFF7F8FD4FF48B
:100B800000610B48FFF789FE0A48FFF7E8FD4FF4C4
:100B900000610748FFF77FFE0648FFF7E0FD4FF4CE
:100BA00000610348FFF779FE0348FFF7D8FD08BD51
:100BB000000C014090320100D0B0060021B1028843
:100BC00042F04002028004E002884FF6BF731A40F0
:100BD0000280704708B5E020ADF8000003208DF8D2
:100BE000020018208DF8030069460948FFF7BFFD91
:100BF0001420ADF8000010208DF803006946044869
:100C0000FFF7B5FD14210248FFF747FE08BD0000BD
:100C10000008014008B54FF46040ADF80000032023
:100C20008DF8020018208DF8030069460948FFF787
:100C30009EFD4FF48050ADF8000010208DF80300A9
:100C400069460448FFF793FD4FF480510148FFF7D0
:100C500024FE08BD000C01400246002013890B4011
:100C60000BB1012000E000207047014688897047E1
:100C70008181704710B50022028802F441520B882E
:100C80004C8823438C882343CC8823430C892343FB
:100C90004C8923438C892343CC8923431A43028004
:100CA000838B4FF2FF74234083830B8A038210BD32
:100CB00010B501210420FFF7A1FE01210803FFF771
:100CC0009DFE10BD10B501210820FFF797FE012100
:100CD0008803FFF783FE10BD21B1828842F0040231
:100CE000828004E082884FF6FB731A40828070474E
:100CF000704710B502F092FFFFF7FAFE10BD10B575
:100D000002F0BEFFFFF728FF10BD000010B504463B
:100D100004F1240004F5C67444F8F80C0020207394
:100D2000E08101202077002020622085A4F5C67490
:100D30001C22084904F10800FFF706FA012084F894
:100D4000D00184F8D101002084F8D20184F8D301C5
:100D500010BD00003C00002070B504460E4615464C
:100D6000B4F89A0128800020A4F89A012A8804F196
:100D700098013046FFF7E8F970BD000010B5044651
:100D8000D4F8B80180470121204600F0C6FD0020BC
:100D900084F89801204600F077FD4FF4E470035981
:100DA0006F2204F12501012098472020D4F89410E7
:100DB00008734FF4E27003596F2204F125010120FA
:100DC00098472046A16800F0FBFEA17B204600F07A
:100DD000C3FFE17B204600F063FD217C204600F04C
:100DE000BDFE617B204600F09AFF617C204600F04A
:100DF00076FD40F2FF31204600F0DDFF2020015D4E
:100E0000204600F0CAFE0121204600F0EBFD144907
:100E1000A06888420FD90021204600F04FFE002133
:100E2000204600F068FE0E21217394F90C10204634
:100E300000F0F2FE0EE08021204600F03FFE01218E
:100E4000204600F058FE1421217394F90C1020461E
:100E500000F0E2FE0121204600F005FE10BD00007A
:100E6000008F423331B58AB0012008900A9890F87B
:100E700098010B287ED2DFE800F00607B0FDFCFBEE
:100E8000FAF97DF8F70017E301210A9800F0EBFD6D
:100E90009D210A98D0F8940041740A98D0F89400E3
:100EA000407C07900A98D0F8BC0106901120DDE93B
:100EB000062190470A98C07C012829D10A98017D13
:100EC000D0F8940080F824100A98D0F894001C30D0
:100ED00007900A98D0F8C00106901C20DDE9062191
:100EE00090470A98D0F89400007F00F03F000690E9
:100EF0000A98006805900A9840680490DDE904208B
:100F000006999047014607900A9800F059FE05E0BF
:100F1000FF210A98D0F8940080F824100A98D0F89D
:100F2000940090F8240007900A98D0F8BC0106902D
:100F30002420DDE90621904700210A98D0F894008A
:100F400080F83D100A98D0F8940080F83E100A9876
:100F5000D0F894003D3007900A98D0F8C4010222DE
:100F600006904020DDE9063198470A98807C0128E8
:100F700006D100E0FEE306210A9800F074FD18E0B7
:100F80000A98D0F89400C17B0A98D0F89400417375
:100F90000A98D0F89400407B07900A98D0F8BC01DA
:100FA00006900D20DDE90621904705210A9800F002
:100FB0005AFD4FF480710A989830FFF7DEF80A98CE
:100FC000C169C0F8B011FE4800680A99C1F8AC01C7
:100FD00002210A9880F898116EE20A98D0F8CC01A4
:100FE000079012200799884700F04000B8B3F448F2
:100FF00000680A99C1F8AC010A98C07C012822D186
:101000000A98D0F894001C3007900A98D0F8C001D4
:1010100006901C20DDE9062190470A98D0F894003C
:10102000007F00F03F0006900A98006805900A983B
:1010300040680490DDE90420069990470146079036
:101040000A9800F0BDFD0A98D0F8BC014021079035
:101050001220079A904703210A9880F898110A985D
:10106000D0F8CC01079006E08FE354E348E3F7E2C1
:101070002AE222E258E012200799884700F0020095
:10108000C8B3CF4800680A99C1F8AC010A98C07C7F
:10109000012822D10A98D0F894001C3007900A98B1
:1010A000D0F8C00106901C20DDE9062190470A987F
:1010B000D0F89400007F00F03F0006900A98006886
:1010C00005900A9840680490DDE90420069990474D
:1010D000014607900A9800F073FD0A98D0F8BC0109
:1010E000022107901220079A90470A9800F0BCFB53
:1010F0000A9981F8A8010A98807C012813D10A98DE
:101100000023D0F8AC21D0F8B011AD48D0E90040B0
:10111000A41A60EB0300091B73EB000203D2042145
:101120000A9880F8981166E30A98D0F89400123073
:1011300007900A98D0F8C00106901220DDE9062138
:1011400090470A98D0F89400807C00F02000202876
:1011500015D10A98D0F8BC01202107901220079AD7
:1011600090470A98807C012804D101210A9880F8D0
:10117000981103E002210A9880F898113BE30A983D
:10118000D0F8C00107A906901920069A90479DF84B
:101190001C0000F0800088B19DF81C00C043401C7A
:1011A000C0F385010A9880F89C110A9890F89C0178
:1011B000404241B20A9880F89C1105E09DF81C005D
:1011C00081080A9880F89C110A98D0F894001A3087
:1011D00007900A98D0F8C00106901A20DDE9062190
:1011E00090470A988068774988423CD20A9890F9DB
:1011F0009C0100281FDA0A9890F99C010390FFF7E0
:101200005CF9CDE906010A98D0F89400807E01903F
:10121000FFF764F900226C4BCDE90201FEF7C5FF30
:10122000CDE90401DDE90623FEF7BFFF0A9A02F5C6
:10123000D07203C253E00A98D0F89400807E0390E5
:10124000FFF74CF9614A624BCDE90401FFF754F80E
:1012500000225D4BCDE90601FEF7A7FF0A9A02F5D1
:10126000D07203C23BE00A9890F99C0100281FDA73
:101270000A9890F99C010390FFF71FF9CDE9060148
:101280000A98D0F89400807E0190FFF727F9002299
:10129000504BCDE90201FEF788FFCDE90401DDE9FD
:1012A0000623FEF782FF0A9A02F5D07203C216E007
:1012B0000A98D0F89400807E0390FFF70FF9434A14
:1012C000434BCDE90401FFF717F80022414BCDE96C
:1012D0000601FEF76AFF0A9A02F5D07203C20A9865
:1012E000807C012855D10A98D0F89400C17B0A98D7
:1012F000D0F8940041730A98D0F89400407B07908E
:101300000A98D0F8BC0106900D20DDE9062190472F
:101310000A98407C012818D10A98D0F8940090F8D7
:1013200022100A98A0F89A110A98D0F8940090F820
:10133000220007900A98D0F8C80106900A999831BF
:101340000020DDE906329847A7E00A98D0F894001B
:10135000133007900A98D0F8C00106901320DDE9F9
:10136000062190470A98D0F89400C17C0A98A0F80A
:101370009A110A98D0F89400C07C07900A98D0F887
:10138000C80106900A9998310020DDE90632984795
:1013900083E00A98D0F89400103007900A98D0F8AB
:1013A000C00106901020DDE9062190470A98407C94
:1013B00001283AD10A98D0F8940090F822100BE056
:1013C00028000020008F4233008064C01B9E5E29ED
:1013D000CB10F13F00A063C00A98A0F89A110A98B8
:1013E000D0F89400017C0A98D0F8940041730A98D0
:1013F000D0F89400407B07900A98D0F8BC01069082
:101400000D20DDE9062190470A98D0F8940090F865
:10141000220007900A98D0F8C80106900A999831DE
:101420000020DDE90632984737E00A98D0F89400AA
:10143000133007900A98D0F8C00106901320DDE918
:10144000062190470A98D0F89400C17C0A98A0F829
:101450009A110A98D0F89400017C0A98D0F8940068
:1014600041730A98D0F89400407B07900A98D0F80E
:10147000BC0106900D20DDE9062190470A98D0F8BE
:101480009400C07C07900A98D0F8C80106900A9989
:1014900098310020DDE9063298470A98807C0128BF
:1014A00004D101210A9880F8981103E002210A98DA
:1014B00080F89811022008909DE101210A9880F897
:1014C00098110320089096E101210A9800F0CBFAC8
:1014D0000A98C07C01282ED1F5210A98D0F89400F2
:1014E00041740A98017DD0F8940080F824100A987D
:1014F000D0F894001C3007900A98D0F8C0010690EC
:101500001C20DDE9062190470A98D0F89400007F5E
:1015100000F03F0006900A98006805900A9840681D
:101520000490DDE9042006999047014607900A9847
:1015300000F046FB0AE0F7210A98D0F894004174C5
:1015400000210A98D0F8940080F824100A98D0F866
:10155000940090F8240007900A98D0F8BC010690F7
:101560002420DDE9062190470A98D0F89400407CB9
:1015700007900A98D0F8BC0106901120DDE90621F9
:1015800090470A9890F8B411D0F8940080F822108F
:101590000A98D0F8940090F8220007900A98D0F8A2
:1015A000BC0106902220DDE90621904700210A981F
:1015B000D0F8940081730A98D0F89400807B07904B
:1015C0000A98D0F8BC0106900E20DDE9062190476C
:1015D0000A98D0F89400817B0A98D0F8940041735F
:1015E0000A98D0F89400407B07900A98D0F8BC0184
:1015F00006900D20DDE9062190470A98D0F8940066
:1016000090F8220007900A98D0F8C40106900A9931
:1016100098310020DDE90632984741210A98D0F838
:10162000940080F83D1040210A98D0F8940080F88A
:101630003E100A98D0F894003D3007900A98D0F8F0
:10164000C401022206904020DDE9063198470321BB
:101650000A9800F008FA06210A9880F89811CAE062
:101660000A98D0F8CC01079012200799884700F01B
:10167000080058B10A98D0F8BC0108210790122040
:10168000079A904707210A9880F898110A98D0F88D
:10169000CC01079012200799884700F0020070B330
:1016A0000A98C07C012822D10A98D0F894001C30F6
:1016B00007900A98D0F8C00106901C20DDE90621A9
:1016C00090470A98D0F89400007F00F03F00069001
:1016D0000A98006805900A9840680490DDE90420A3
:1016E00006999047014607900A9800F069FA0A980F
:1016F000D0F8BC01022107901220079A90477AE0A7
:1017000001210A9800F0AFF900210A9880F8981199
:10171000042008906FE001210A9800F0A4F9FA2152
:101720000A98D0F8940041740A98D0F89400407C4C
:1017300007900A98D0F8BC0106901120DDE9062137
:10174000904700210A98D0F8940080F83D100A983C
:10175000D0F8940080F83E100A98D0F894003D30FC
:1017600007900A98D0F8C401022206904020DDE9D3
:10177000063100E03EE0984707210A9800F073F92F
:101780000A210A9880F8981135E00A98D0F8CC011F
:10179000079012200799884700F0040010B30A98B8
:1017A000D0F8BC01042107901220079A90470A98AC
:1017B000D0F8CC01079012200799884700F001006B
:1017C00088B10FA000F0A8FD0A98D0F8BC01012153
:1017D00007901220079A904701210A9880F89811E3
:1017E0000820089005E000210A9880F89811072049
:1017F000089000E000BF00BF08980BB030BD0000AB
:101800004341442044657465637465640D0A0000B7
:1018100070B50446D4F8940000F11B014FF4E07059
:1018200002591B2090470D49A06888420AD2D4F87B
:101830009410C87EFEF752FE05460022084BFEF7C4
:10184000B4FC70BDD4F89410C87EFEF747FE054680
:101850000022044BFEF7A9FCF3E70000008F42339F
:10186000008064C000A063C010B50446D4F89400A2
:1018700000F10C014FF4E07002590C209047D4F8AD
:101880009400007B400910BD10B50446D4F89400C4
:1018900000F13F014FF4E07002594220904710BD23
:1018A00070B504460D46D4F8940000F11D014FF4C4
:1018B000E07002591D20904754F8940F407F00F0CB
:1018C000F10040EA45002168487754F89409417FC7
:1018D0004FF4DE7002591D209047E57370BD70B55E
:1018E00004460D46D4F8940000F11D014FF4E07059
:1018F00002591D20904754F8940F407F00F0FE00DD
:1019000028432168487754F89409417F4FF4DE70EA
:1019100002591D209047657470BD70B504460D4690
:1019200094F8D301A84200D170BD84F8D35184F853
:10193000D25194F8D201012833D10021204600F081
:1019400092F854F8940F407800F07F0040F0800047
:101950002168487054F8940941784FF4DE700259B8
:10196000012090470121204600F07DF8002054F826
:10197000941F81F83D00216881F83E0054F89409D5
:1019800000F13D014FF4E2700359022240209847D4
:101990004FF4E47003596F2204F1250101209847A8
:1019A0001EE00021204600F05EF854F8940F4078C5
:1019B00000F07F002168487054F8940941784FF492
:1019C000DE700259012090470121204600F04BF8BB
:1019D0004FF4E47003596F2204F125010120984768
:1019E00000BFA1E770B504460D46D4F8940000F19D
:1019F00026014FF4E07002592620904754F8940FC6
:101A000090F8260000F0F70040EAC500216881F850
:101A1000260054F8940990F826104FF4DE7002590D
:101A20002620904770BD70B504460D46D4F894004A
:101A300000F130014FF4E07002593120904754F822
:101A4000940F90F8300000F0F8002843216881F8E6
:101A5000300054F8940990F830104FF4DE700259B9
:101A60003120904770BD70B504460D460026D4F86D
:101A70009400407820F0F80084F8D00194F8D00168
:101A8000A8421AD0032D01D1012600E0002694F8C7
:101A9000D101B04201D084F8D16154F8940F40785C
:101AA00000F0F80028432168487054F89409417800
:101AB0004FF4DE7002590120904770BD70B50446A6
:101AC0000D46D4F8940000F109014FF4E07002597A
:101AD0000920904754F8940F407A00F07F00284383
:101AE0002168487254F89409417A4FF4DE70025923
:101AF0000920904770BD70B504460D46D4F8940097
:101B000000F149014FF4E07002594D209047D4F89C
:101B1000940000F109014FF4E07002590920904748
:101B2000D4F89400407A00F08000802807D1012D7D
:101B30000AD18720D4F8941081F8490004E0842069
:101B4000D4F8941081F84900D4F8940090F8491022
:101B50004FF4DE7002594D20904770BD70B50446B9
:101B60000D46D4F8940000F11E014FF4E0700259C4
:101B70001E20904754F8940F807F00F0FB0040EA4D
:101B800085002168887754F89409817F4FF4DE70CE
:101B900002591E209047257470BD70B504460D464D
:101BA000D4F8940080F82250D4F8940090F82210D1
:101BB0004FF4DE700259222090472020055570BD59
:101BC0002DE9F04704468946183444F8109C4846ED
:101BD000FEF784FC074600220E4BFEF7FFFB05468E
:101BE000FEF789FC81464FEA1940E16F88714FEAA0
:101BF0001920E16FC871E16F81F80890E06F183C1F
:101C0000811D4FF4E2700359032206209847BDE876
:101C1000F087000080844E4070B504460D46D4F82D
:101C2000940000F109014FF4E07002590920904737
:101C3000D4F8940000F149014FF4E07002594D20AE
:101C40009047D4F89400407A00F0800080283DD17D
:101C5000D4F8940090F8490000F0870087281AD142
:101C6000052D00DA0525142D00DD142554F8940FF8
:101C7000407A00F08F0040F07000216848722068C0
:101C8000407A00F0F000691F01F00F01084354F89A
:101C90009419487236E0022D00DA0225112D00DD7C
:101CA000112554F8940F407A00F08F0040F0700036
:101CB000216848722068407A00F0F000A91E01F007
:101CC0000F01084354F8941948721BE0B5F1FF3F27
:101CD00001DA4FF0FF350E2D00DD0E2554F8940F7C
:101CE000407A00F08F0040F0700021684872206850
:101CF000407A00F0F000691C01F00F01084354F82D
:101D000094194872D4F89400417A4FF4DE70025965
:101D100009209047257370BD80F89811704770B501
:101D200004460D46D4F8940000F11D014FF4E07014
:101D300002591D20904754F8940F407F65F31F10FF
:101D40002168487754F89409417F4FF4DE700259B6
:101D50001D209047657370BD70B504460D460C2D6F
:101D600001DD0C2502E0062D00DA0625062D04D142
:101D700005212046FFF757FE03E003212046FFF729
:101D800052FED4F8940000F11E014FF4E0700259A5
:101D90001E20904754F8940F807F65F31F10216830
:101DA000887754F89409817F4FF4DE7002591E2021
:101DB0009047A57370BD70B504460D46D4F89400E5
:101DC00000F11E014FF4E470035902221E209847CF
:101DD00054F8940F807F00F0FC006FF0FC0101EAE2
:101DE00025210843216888772168CD7754F8940924
:101DF00000F11E014FF4E270035902221E209847A1
:101E000070BD70B504460E461546A4F8B451B4F83A
:101E1000B421314604F19800FEF796F9052084F8C4
:101E2000980170BD00B5024601211046FFF774FF0E
:101E300000BD70B504460D4601222946204600F03B
:101E40000AF870BD70B504460D46012229462046A9
:101E500000F01AF870BD2DE9F04105460E46174610
:101E600001F0CAFE05F07F0000F0DCF8002405E078
:101E7000002000F0D7F83055601CC4B2BC42F7DB3C
:101E800001F0A8FEBDE8F0812DE9F04105460E46BF
:101E9000174601F0B9FE05F07F0000F0D7F80024E6
:101EA00005E0002000F0D2F83055601CC4B2BC42FE
:101EB000F7DB01F097FEBDE8F08113B5044601227F
:101EC00001A9204600F009F81CBD13B50446012203
:101ED00001A9204600F019F81CBD2DE9F041054686
:101EE0000E46174601F088FE45F0800000F09AF893
:101EF000002404E0305D00F095F8601CC4B2BC42E0
:101F0000F8DB01F067FEBDE8F0812DE9F041054600
:101F10000E46174601F078FE45F0800000F096F876
:101F2000002404E0305D00F091F8601CC4B2BC42B3
:101F3000F8DB01F057FEBDE8F08110B500F002F8C3
:101F400010BD00000CB500200190009033480068DF
:101F500040F480303149086000BF3048006800F428
:101F6000003000900198401C0190009818B9019829
:101F7000B0F5A06FF1D12948006800F4003010B12D
:101F80000120009001E0002000900098012843D13A
:101F90002348006840F010002149086008460068A6
:101FA00020F0030008600846006840F00200086066
:101FB0001A48406819494860084640684860084621
:101FC000406840F4806048600846406820F47C1017
:101FD00048600846406840F4E810486008460068D9
:101FE00040F08070086000BF0C48006800F000708E
:101FF0000028F9D00948406820F0030007494860EC
:102000000846406840F00200486000BF034840684E
:1020100000F00C000828F9D10CBD000000100240AF
:102020000020024010B5044621460748FEF720FE76
:1020300000BF01210448FEF70FFE0028F9D0024836
:10204000FEF713FEC0B210BD0030014010B50446CB
:1020500021460748FEF70CFE00BF01210448FEF7A9
:10206000FBFD0028F9D00248FEF7FFFDC0B210BD0D
:10207000003800400448D0E900305A1C40F100000C
:102080000149C1E9002070472800002010B513481D
:10209000006840F001001149086008464068104996
:1020A00008400E494860084600680E4908400B4940
:1020B00008600846006820F48020086008464068F0
:1020C00020F4FE0048604FF41F008860FFF735FFE2
:1020D0004FF000600449086010BD0000001002408D
:1020E0000000FFF8FFFFF6FE08ED00E010B5002449
:1020F00035E0002004EB84011A4A02F83100214641
:102100001948006801F006FD04EB8401154A02EB52
:10211000C1010861092004EB840102EBC10148758B
:10212000082004EB840102EBC1010875042004EBD4
:10213000840102EBC1018875002104EB8402094B84
:1021400003EBC2021162516204EB8400194601EBF9
:10215000C000002140F8011F41608160641C102C08
:10216000C7DB10BDE00400202800002000B585B0CA
:10217000012144F20400FEF741FC4FF40070ADF879
:10218000100018208DF8130003208DF8120004A908
:102190001548FEF7ECFA4FF48060ADF8100004200B
:1021A0008DF8130004A91048FEF7E1FA4FF4E1306E
:1021B00000900020ADF80400ADF80600ADF808006E
:1021C000ADF80C000C20ADF80A006946074800F095
:1021D00031F80121054800F014F84021034800F0CF
:1021E00007F805B000BD00000008014000380140BC
:1021F00001F40072B2F5007F00D100BFCA43028033
:10220000704721B1828942F40052828104E08289C0
:102210004DF6FF731A408281704702460020B1F5E7
:10222000007F00D100BF13880B400BB1012000E0FC
:10223000002070472DE9F04786B005460E46002481
:10224000A24600BFA1460027B08900B100BF2F46BB
:102250002C8A4CF6FF700440F08804432C82AC8931
:102260004EF6F3100440B088318908437189084361
:102270000443AC81AC8A4FF6FF400440B08904436C
:10228000AC8201A8FEF7CAFB1F48874202D1DDF8E5
:1022900010A001E0DDF80CA0A88900F4004040B1D6
:1022A0000AEBCA0000EB0A1031684900B0FBF1F8F4
:1022B00007E00AEBCA0000EB0A1031688900B0FBA6
:1022C000F1F86420B8FBF0F004012009642101FB5F
:1022D0001089A88900F4004040B1322000EBC90009
:1022E000B0FBF1F000F00700044308E0322000EBFF
:1022F00009106421B0FBF1F000F00F0004432C81C1
:1023000006B0BDE8F087000000380140C1F30802C4
:102310008280704700BFFEE70FB4054B10B503A9DC
:10232000044A029800F0CAF810BC5DF814FB0000E3
:102330009D2E00087C00002002E008C8121F08C182
:10234000002AFAD170477047002001E001C1121F36
:10235000002AFBD1704700002DE9FF5FDDE9022074
:10236000010DDDF838B0024318D044F61050A1F248
:10237000FF3141430D140F98012820D0A5EB0B002D
:10238000401C5FEA000A4FF00004474EDFF81C9142
:10239000A046504616D5CAF1000728E00F98012440
:1023A00043A2012808D0002100980F9BC0E900211A
:1023B000C0E90243BDE8FF9F6FEA0B01F4E7CBF1F0
:1023C0000000DEE7074612E0F80707D02246334652
:1023D00040464946FDF790FF8046894622463346EF
:1023E00010461946FDF788FF04460E467F10002F61
:1023F000EAD1DDE90201BAF1000F42464B4602DAAA
:10240000FDF77AFF01E0FDF7E9FF04460E460022E2
:10241000284BFEF777F903D84FF0FF30014607E06D
:102420000022254B20463146FDF7BFFEFEF751F94D
:10243000102409E0002C0ADB0A220023FEF78AF8A8
:10244000019B30321A55641E50EA0102F2D1641C1D
:10245000019AC4F1110314440F9A012A03D00122F6
:1024600008430DD10AE0084304D000204FF0110BBF
:102470000F9080E7A3EB0B056D1E0DE05B4504DDBF
:102480004FF0000205F1010504E003DA4FF000020D
:10249000A5F10105002AECD000980F99C0E902319E
:1024A000C0E9004586E70000000024400000F03F3E
:1024B000300000000000F0430000E03F2DE9FF4F36
:1024C00095B09B468946064600250FE2252877D120
:1024D00000242746F84A0121059400E0044316F839
:1024E000013F203B01FA03F01042F7D130782A284F
:1024F00011D06FF02F033078A0F13002092A16D8DE
:10250000059A44F0020402EB820203EB42021044FB
:10251000761C0590EFE759F8042B0592002A03DAA0
:10252000504244F40054059044F00204761C307884
:102530002E2816D116F8010F44F004042A280DD0D5
:102540006FF02F023078A0F13003092B09D807EB88
:10255000870302EB4303C718761CF3E759F8047BA3
:10256000761C30786C280FD006DC4C2817D06828F1
:102570000DD06A2814D104E0742810D07A280FD125
:102580000DE044F400140AE044F4801401E044F443
:1025900040147278824202D104F58014761C761CB5
:1025A000307866280BD013DC582877D009DC002857
:1025B00075D04528F6D04628F4D047281AD19DE199
:1025C00018E0632835D0642879D0652812D195E1C8
:1025D000702873D008DC6728F1D069286FD06E2886
:1025E0000DD06F2806D1B5E073282CD0752875D092
:1025F000782874D05A46179990476D1C75E1C4F33A
:102600000250022809D003280DD0D9F80010042860
:102610000DD00D6009F1040967E1D9F80010EA173F
:10262000C1E90052F6E7D9F800100D80F2E70D700D
:10263000F0E719F8041B8DF8001000208DF8010058
:10264000EA46012003E059F804AB4FF0FF30610780
:102650004FF0000102D40DE008F101018846B942B3
:102660000FDA8045F8DB1AF808100029F4D108E0E9
:1026700008F1010188468142FADB1AF808100029A6
:10268000F6D105985B46A0EB080721463846179A15
:1026900000F094FA284400EB080507E04DE029E13A
:1026A0000DE01AF8010B5A4617999047B8F1010846
:1026B000F7D25B4621463846179A13E142E00A22D8
:1026C0000092C4F302524FF0000A022A08D059F8CF
:1026D00004CB032A4FEAEC710AD00DE029E02AE08E
:1026E00009F1070121F00702F2E802C1914609E071
:1026F0000FFA8CFC4FEAEC71042A03D14FFA8CFCE0
:102700004FEAEC71002907DA0A460021DCF1000CDF
:1027100061EB02012D2202E0220504D52B228DF867
:102720000420012203E0E20701D02022F7E79046CF
:1027300059E00A2102E010220DE010214FF0000ABA
:1027400000910BE010224FF0000A44F00404082727
:10275000009203E008224FF0000A0092C4F30252F4
:10276000022A05D059F804CB0021032A08D009E039
:1027700009F1070121F00702F2E802C1914605E0E4
:102780001FFA8CFC042A01D10CF0FF0C4FF000085A
:10279000220728D5702806D0009B83F0100353EA47
:1027A0000A0305D00EE040228DF80420012208E043
:1027B0005CEA010206D030228DF804208DF8050075
:1027C00002229046009B83F0080353EA0A030AD1D1
:1027D0005CEA010201D1620705D530228DF80420A0
:1027E0004FF001087F1E582804D034A003900EA893
:1027F00002900DE036A0F9E753466046009AFDF7D7
:10280000A9FE84460398825C0298401E02900270E2
:102810005CEA0100F0D1029806A9081A00F1200A2A
:10282000600702D524F4803400E00127574502DD1B
:10283000A7EB0A0000E0002000EB0A0100900598D9
:102840004144401A0590E00306D45B462146179A9E
:10285000059800F0B3F90544002706E001A85A46A0
:10286000C05D179990476D1C7F1C4745F6DBE00360
:102870000CD55B462146179A059800F09FF9054450
:1028800004E030205A46179990476D1C0099481E65
:1028900000900029F5DC08E0029802995A46007879
:1028A000491C0291179990476D1CBAF10001AAF1D9
:1028B000010AF1DC65E10000092801003031323302
:1028C000343536373839616263646566000000006C
:1028D0003031323334353637383941424344454656
:1028E0000000000000F058F90544761C30780028FC
:1028F0007FF4ECAD19B02846BDE8F08F620700D434
:10290000062709F1070222F0070CFCE80223E14642
:1029100003F000485FEA080C02D00FF2702C0DE0C3
:102920005FEA045C02D50FF2682C07E05FEAC47C22
:1029300002D00FF2602C01E0AFF2700C4FF0FF38C4
:1029400023F00043CDF850C065280CD006DC4528A4
:1029500009D046281DD047283DD13DE0662818D033
:1029600067287ED138E00021112F01DB112000E023
:10297000781CCDE9000106A90EA8FFF7EDFCDDE902
:102980000F010E9A03910021009207F1010A0491B0
:102990004DE04FF000400097CDE9011006A90EA8C8
:1029A000FFF7DAFCDDE90F0203920E9B119900227A
:1029B000DDF80CA00093049211B9791C00EB010A18
:1029C000B7EB0A0004D4C0F1FF3007F1010A04900C
:1029D000AAEB0700019044E0012F00DA0127002153
:1029E000112F01DD112000E03846CDE9000106A9D4
:1029F0000EA8FFF7B1FCDDE90F010E9A039100214B
:102A000004910092BA4621070CD40399514500DA8B
:102A10008A46BAF1010F05DD009AAAF10101515C65
:102A2000302908D0B84202DA10F1040F06DA012189
:102A3000CDE9011015E0AAF10101E9E7002805DC64
:102A4000049901440491AAEB000102E0411C5145A4
:102A500000DD8A460499401A401C01904FF0004066
:102A60000290200704D40198504501DBCDF8048082
:102A700000208DF84F0002980DF14F07B0F1004F84
:102A800025D02B200E9002984FF0020800280CDA77
:102A9000404202902D200E9007E00A210298FDF797
:102AA00043FD3031029007F8011DB8F10001A8F193
:102AB0000108F2DC02980028EFD1791E0E98087008
:102AC000307800F0200040F0450007F8020D12A811
:102AD000C01B00F107081498007800B1012000EB3A
:102AE0000A01019801EBE07105984144401A401E2B
:102AF0000590E00306D45B462146179A059800F03E
:102B00005DF805441498007818B15A461799904713
:102B10006D1CE00324D55B462146179A059800F00A
:102B20004DF805441CE00498002807DBDDE90301AB
:102B3000884203DD0098405C179901E01799302026
:102B40005A469047049805F10105401C04900198ED
:102B5000401E019004D12E205A46179990476D1CB3
:102B6000BAF10001AAF1010ADDDC05E017F8010B5A
:102B70005A46179990476D1CB8F10001A8F1010859
:102B8000F4DC5B462146179A0598ABE62D00000061
:102B90002B000000200000002DE9F0410446002534
:102BA0001E461746880404D405E039462020B04765
:102BB0006D1C641EF9D52846BDE8F0812DE9F04171
:102BC000044600251E469046C80301D5302700E084
:102BD0002027880404D505E041463846B0476D1CDF
:102BE000641EF9D52846BDE8F08100007CB5064694
:102BF0005448007810287DDA5348006800F0A8FF98
:102C00005249097801EB8101514A02EBC101086187
:102C10004E48007800EB800002EBC00132464D4880
:102C200000F078F90546132D74D145204A49CDE9C5
:102C3000001045480CC849A0FFF76EFB43480178D7
:102C400051A0FFF769FB4048D0E900103F4A1278D5
:102C500002EB82023E4B03EBC202C2E90610394886
:102C60000078401C3749087000244CE03748007851
:102C7000844200D146E004EB8402354B03EBC202F0
:102C8000511C324A127802EB820203EBC202501C42
:102C90000C22FDF77DFA002833D104EB84002C4987
:102CA00011F8300001282CD151202B49CDE900101A
:102CB00025480CC829A0FFF72FFB38A0FFF72CFBF5
:102CC00004EB8401224A02EBC101481C01220C21C1
:102CD00000F04CFB002004EB84011D4A02F8310097
:102CE00004EB8400114601EBC000002140F8011FF5
:102CF000416000E01CE0816012480078401E1149EC
:102D0000087000BF641C102CB0DB10200F49087045
:102D100000240AE014E004EB84000D4911F83000AF
:102D200010B90A490C7002E0641C102CF3DB07E0B8
:102D30001F4890F8D80318B100211D4880F8D81317
:102D40007CBD000058000020280000205900002011
:102D5000E0040020F0020020F23D00081B5B34304C
:102D60003B33326D5B256C6C645D1B5B306D201BEF
:102D70005B323B34303B33336D2573282564291B8C
:102D80005B306D3A200000005B6E65775D20646506
:102D900076696365203D2025640D0A005B726566D7
:102DA000726573685D20206E6F6465203D200000B1
:102DB000000100201CB5002444E004EB84002349FA
:102DC00011F8300001283CD104EB840001EBC00075
:102DD000D0E906311E48D0E90020D21A60EB01008C
:102DE0004EF6602300219A1A81412AD27120194996
:102DF000CDE9001016480CC817A0FFF78DFA21A0E6
:102E0000FFF78AFA04EB8401104A02EBC101481C67
:102E100001220C2100F0AAFA002004EB84010B4AE5
:102E200002F8310004EB8400114601EBC0000021E0
:102E300040F8011F4160816017480078401E164924
:102E40000870641C102CB8DB1CBD0000E0040020DE
:102E500028000020FE3D00081B5B34303B33326D00
:102E60005B256C6C645D1B5B306D201B5B323B34FF
:102E7000303B33336D2573282564291B5B306D3A55
:102E8000200000005B6F66666C696E655D20206ED9
:102E90006F6465203D2000005800002070B5044696
:102EA0000D46E1B20548FFF731FA00BF4021034863
:102EB000FFF7B3F90128F9D1204670BD0038014071
:102EC00070B5044604EB44020F4B03EB8202918879
:102ED00004EB440203EB82029068FDF7D3FC08B9CF
:102EE000012000E00020054604EB4402064B03EB02
:102EF0008202918804EB440203EB820290682A4626
:102F0000FDF7CDFC70BD00003000002010B5FDF7CE
:102F10001FFD10BD2DE9FC4705460C469146A868EB
:102F200006689049284600F0BDFA82468D48007830
:102F300000F00F0000287DD18A4800780121B1EB14
:102F4000D01FF8D187480078C0F302100128F2D1D1
:102F5000BAF1190FEFD10C2282490D314846FDF725
:102F600017F9002867D17F48401C0168C4F8011098
:102F70004168C4F805108068C4F809000120207079
:102F800095207949CDE9001078480CC878A0FFF762
:102F9000C3F982A0FFF7C0F901220C21601C00F0E8
:102FA000E5F997207049CDE9001070480CC870A071
:102FB000FFF7B2F905F11000FEF72AFC07460B46B1
:102FC000A8680068811B3A4676A0FFF7A5F9654816
:102FD000007820F00F00634908700846007820F060
:102FE0007000103008700846007820F080000870EB
:102FF000481CD4F801100160D4F805104160D4F8E1
:10300000091081602069010E564841732069010C46
:1030100054488173208A010A5248C173217C01748B
:10302000207D617D40EA0110C1B24E484174A07D0F
:10303000400701E03FE092E0010E4A48817413220C
:103040000146284600F03DFAAA204749CDE9001084
:1030500046480CC846A0FFF75FF958A02169FFF762
:103060005BF9AB204049CDE9001040480CC840A0B6
:10307000FFF752F9217D55A0FFF74EF9AC203A49F0
:10308000CDE9001039480CC839A0FFF745F9617D3A
:1030900051A0FFF741F9AD203349CDE90010334885
:1030A0000CC833A0FFF738F9A17D4EA0FFF734F923
:1030B0001320BDE8FC872B48007800F00F000028A3
:1030C0004DD1284800780121B1EBD01F47D12548C8
:1030D0000078C0F30210002841D1BAF10D0F3ED1A3
:1030E0002048007820F080001E490870481CD9F85C
:1030F0000010C160D9F804100161D9F808104161CD
:103100001922411E284600F0DCF9B6201649CDE907
:10311000001016480CC816A0FFF7FEF834A0FFF701
:10312000FBF801220C210F48401C00F01FF9B820C9
:103130000D49CDE900100D480CC80DA0FFF7ECF8C3
:1031400005F11000FEF764FB07460B46A86800680F
:10315000811B3A4613A0FFF7DFF81920A9E70020EA
:10316000A7E7000080000020753D0008280000202F
:103170001B5B34303B33326D5B256C6C645D1B5BD9
:10318000306D201B5B323B34303B33336D2573286D
:103190002564291B5B306D3A200000004E4D4143F1
:1031A000203D200054494D45203D202564206D736D
:1031B00020527373693A2025660D0A002053656515
:1031C00064203D202564200D0A0000002042772065
:1031D0003D202564200D0A00205366203D202564F3
:1031E000200D0A00204563203D202564200D0A00A3
:1031F000424153455F53544154494F4E5F42494EFB
:1032000044494E47202C204E4D4143203D20000094
:103210002DE9FC4104460F4616461D4628692061EB
:10322000297D6177697DA177A97DE177A17F04F18F
:103230001000FEF791FDE17F04F11000FEF730FB76
:10324000617F04F11000FEF76AFD2048007820F04D
:103250000F001E4908700846007820F070002030EA
:1032600008700846007820F0800008703246394621
:103270001648401CFCF768FF701CC2B21349204678
:1032800000F01FF98046B8F1000F10DA82201049D3
:10329000CDE900100F480CC80FA0FFF73DF819A0AA
:1032A000FFF73AF81DA02169FFF736F80CE08420FB
:1032B0000749CDE9001007480CC807A0FFF72CF814
:1032C00021A02169FFF728F8BDE8FC8180000020DB
:1032D0005A3D0008280000201B5B34303B33326D20
:1032E0005B256C6C645D1B5B306D201B5B323B347B
:1032F000303B33336D2573282564291B5B306D3AD1
:10330000200000001B5B313B34303B33316D4552B4
:10331000524F521B5B306D200000000053656E64FD
:1033200020555345525F4441544120746F204E4F05
:103330004445206661696C6564202C2075736520A6
:1033400025640D0A0000000053656E642055534546
:10335000525F4441544120746F204E4F4445202C0D
:1033600020757365202564200D0A00002DE9F041C9
:1033700004460D461646002705E0217806A0FEF714
:10338000CBFF641C7F1CAF42F7DB16B104A0FEF735
:10339000C3FFBDE8F0810000253032780000000056
:1033A0000D0A000010B5044604F11000FDF7E6FC1C
:1033B00004F11000FEF736FD002010BD2DE9FC41A0
:1033C00005460F46002439E0C4EB441105EB01111A
:1033D00001F11000FDF746FD0646022E02D0042E34
:1033E00029D11FE0C4EB441005EB001090F8E80170
:1033F00038B90120C4EB441105EB011181F8E80153
:103400000FE01F200F49CDE900100F480CC80FA096
:10341000FEF782FF18A0FEF77FFF21461CA0FEF7F3
:103420007BFF09E0C4EB441105EB011101F1100031
:10343000FEF7F8FC00E000BF00BF641CBC42C3DB29
:10344000BDE8FC814C3D0008280000201B5B3430A7
:103450003B33326D5B256C6C645D1B5B306D201BF8
:103460005B323B34303B33336D2573282564291B95
:103470005B306D3A200000001B5B313B34303B3346
:10348000316D4552524F521B5B306D2000000000E1
:103490007061636B206C6F7374203D2025640D0A8E
:1034A0000000000038B504460D466A46294604F17E
:1034B0001000FDF751FC002084F8E801BDF8000081
:1034C00038BD70B504460E4615462A46314604F10D
:1034D0001000FEF796FC284670BD0000A2B0002642
:1034E000F74D4FF4E060FDF76DFA00F0FBFBFFF7DE
:1034F0000DFDFEF73BFE9F20F249CDE90010F2489A
:103500000CC8F2A0FEF708FFFBA0FEF705FFA02005
:10351000EC49CDE90010EC480CC8ECA0FEF7FCFE2D
:10352000F9A2FCA1FEA0FEF7F7FEA220E549CDE935
:103530000010E5480CC8E5A0FEF7EEFEFDA0FEF782
:10354000EBFE01220C212846FFF710FFFEF7CEFD0F
:103550000024DAE0C4EB4411FD4A02EB011101F151
:103560001000FDF7D3FB002C56D1FA49C4EB4410F0
:10357000F74A02EB0010C0F8C811F749C4EB441039
:1035800002EB0010C0F8D011F449C4EB441002EB78
:103590000010C0F8CC11F249C4EB441002EB00104B
:1035A000C0F8D811EF49C4EB441002EB0010C0F88A
:1035B000D411ED49C4EB441002EB0010C0F8DC114B
:1035C000EA4890F83C10C4EB441002EB001041773D
:1035D000E64890F83E10C4EB441002EB0010C177AF
:1035E000E24890F83D10C4EB441002EB00108177E4
:1035F0000020C4EB441102EB01110861DC49C4EB6B
:10360000441002EB001041610121C4EB441002EBB5
:10361000001080F8231057E0012C55D1D549C4EB98
:103620004410CB4A02EB0010C0F8C811D249C4EBD9
:10363000441002EB0010C0F8D011D049C4EB441084
:1036400002EB0010C0F8CC11CD49C4EB441002EBE2
:103650000010C0F8D811CB49C4EB441002EB0010A5
:10366000C0F8D411C849C4EB441002EB0010C0F8F4
:10367000DC11C649C4EB441002EB001081610A2141
:10368000C4EB441002EB001081770921C4EB441015
:1036900002EB001041770421C4EB441002EB001050
:1036A000C1770020C4EB441102EB01110861B0495D
:1036B000C4EB441002EB001041610121C4EB441043
:1036C00002EB001080F823104FF47A71C4EB441021
:1036D0009F4A02EB00108162C4EB441002EB001021
:1036E000C1620020C4EB441102EB011181F8E80132
:1036F0007548C4EB441102EB01118860C4EB44111E
:1037000002EB0110FFF74EFE641C022CFFF622AF05
:1037100088E102218E48FFF751FE8D4890F8E801BC
:1037200000284ED002A98A48FFF7BCFE064666492B
:1037300003C9974A127802EB82028C4B03EBC20258
:10374000C2E90601ED205F49CDE900105E480CC8D2
:103750005EA0FEF7E1FD8E4801788EA0FEF7DCFD4D
:10376000701EC1B201220DF10900FFF7FFFDEF202D
:103770005449CDE9001054480CC854A0FEF7CCFDC4
:1037800073481030FEF744F807460B464E4802686F
:1037900084480068111A3A4683A0FEF7BDFD00F088
:1037A00045F97B48007800EB8000704901EBC003CD
:1037B0000C2229466648FFF72BFD434903C9794A85
:1037C00003C2634890F8D80310B12846FFF70EFAF9
:1037D0003D48D0E90010734B0CCB8A1A60EB030014
:1037E0004FF47A7300219A1A814131D275480078DA
:1037F00000282DD040F201103249CDE900103248A6
:103800000CC832A0FEF788FD6FA0FEF785FD60486A
:10381000007800EB8000554901EBC00002695C486C
:1038200001786EA0FEF778FD00F000F958480078A6
:1038300000EB80004D4901EBC0030C2229464448AF
:10384000FFF7E6FC2048D0E90010564AC2E9001014
:103850001D48D0E900206849D1E90031D31A60EB56
:10386000010041F288320021D21A814114D2164857
:10387000D0E90010604AC2E900104FF48770114986
:10388000CDE9001010480CC810A0FEF745FD4D48CA
:1038900001785AA0FEF740FD0B48D0E900205D49B1
:1038A000D1E90031D21A60EB0100C82300219A1A35
:1038B000814103D20448D0E90010ADE0B2E000003D
:1038C000E8F7FF1F223E0008280000201B5B343071
:1038D0003B33326D5B256C6C645D1B5B306D201B74
:1038E0005B323B34303B33336D2573282564291B11
:1038F0005B306D3A200000005553415254315F4314
:103900006F6E6669670D0A0031373A33393A3236DD
:10391000000000004A756E20323820323031380005
:103920004275696C64202C202573202573200D0AB4
:103930000000000047415445574159204D4F445520
:103940004C45202C20474D4143203D2000000000E5
:1039500000010020F30C0008331E0008BB1E000805
:10396000571E0008DB1E0008933B0008E0040020FF
:10397000153B0008FF0C0008451E0008CB1E000880
:10398000891E00080B1F0008B33B00088047A119DF
:103990005A0000204E4F44452025642044415420C5
:1039A0003D2000006000002054494D45203D202569
:1039B00064206D7320527373693A2025661B5B3057
:1039C0006D0D0A00580000201B5B313B34303B3347
:1039D000336D5741524E1B5B306D20004E4F4445B6
:1039E0002025642054696D656F757420757365209A
:1039F00025640D0A00000000680000204F4E4C496D
:103A00004E45204E554D2009203D2009202564209B
:103A10000D0A000070000020034AC2E900100020D7
:103A2000FFF74EFA75E60000700000201CB5002478
:103A3000FFF7C0F91A48007800B91CBD1948007892
:103A4000401C1849087000BF16480078102802DB97
:103A50000020144908701348007800EB80001249D8
:103A600011F8300000B1E8E7102C11DD8D200F496E
:103A7000CDE900100E480CC80EA0FEF74DFC18A0B2
:103A8000FEF74AFC064801781BA0FEF745FCD4E788
:103A900004480078401C03490870641CD4E7000007
:103AA000580000205A000020E00400200A3E0008D0
:103AB000280000201B5B34303B33326D5B256C6C7F
:103AC000645D1B5B306D201B5B323B34303B33331A
:103AD0006D2573282564291B5B306D3A200000009A
:103AE0001B5B313B34303B33316D4552524F521BDF
:103AF0005B306D20000000005B6275675D20206711
:103B0000735F6F6E6C696E655F6E756D203D20250D
:103B1000640D0A0070B506460C463046FCF70CFBF7
:103B2000002502E0FCF7FEFA6D1CA542FADBFCF76B
:103B3000F9FAC72190FBF1F201FB12000249034A96
:103B400002FB001070BD0000801A701890D00300B6
:103B50002DE9F04104464FF47A6643F2B0672046FF
:103B6000FCF7EAFA002502E0FCF7DCFA6D1C1420F1
:103B7000B4FBF0F100FB1140A842F5D8FCF7D2FAF3
:103B8000B91B491E90FBF1F201FB12003044BDE865
:103B9000F08170B5044600F02FF804F07F00FEF7C6
:103BA00041FA0020FEF73EFA054600F013F82846D9
:103BB00070BD70B5044600F027F804F07F00FEF7F2
:103BC00045FA0020FEF742FA054600F00BF82846B9
:103BD00070BD000010B510210148FCF75EFE10BD5D
:103BE0000008014010B54FF480510248FCF755FE23
:103BF00010BD0000000C014010B510210148FCF779
:103C00004AFE10BD0008014010B54FF48051024833
:103C1000FCF741FE10BD0000000C014000B585B06E
:103C2000FDF746F81820ADF80C000020ADF80000B4
:103C30004FF48270ADF802000020ADF80400ADF83A
:103C40000600ADF808004FF40070ADF80A0000203F
:103C5000ADF80E000720ADF8100069460748FDF7E3
:103C600009F8FCF7B7FF01210448FDF735F80121F9
:103C70000248FCF7A3FF05B000BD00000030014082
:103C800000B585B0FDF71EF81820ADF80C00002037
:103C9000ADF800004FF48270ADF802000020ADF8DE
:103CA0000400ADF80600ADF808004FF40070ADF860
:103CB0000A000020ADF80E000720ADF8100069469C
:103CC0000748FCF7D7FFFCF7A5FF01210448FDF7E3
:103CD00003F801210248FCF771FF05B000BD0000A8
:103CE0000038004030B5164800684FF47A72B0FBD7
:103CF000F2F1B1F1807F01D301201DE021F07F407E
:103D0000401E4FF0E022506150170F22002807DAC2
:103D100013071D0E0B4B00F00F04241F1D5503E06D
:103D200013071C0E084B1C5400BF00204FF0E0226C
:103D3000906107201061002008B100BFFEE730BD90
:103D40000000002018ED00E000E400E06C6F7261FC
:103D50005F6E65745F70726F63006C6F72615F6E2F
:103D600065745F476174657761795F557365725FEC
:103D700064617461006C6F72615F6E65745F47614E
:103D800074657761795F4E6574776F726B5F72658A
:103D90007175657374006C6F72615F6E65745F55E9
:103DA0007365725F64617461006C6F72615F6E65F0
:103DB000745F4E6574776F726B5F72657175657352
:103DC00074006C6F72615F6E65745F426173655FF2
:103DD00073746174696F6E5F62696E64696E6700A7
:103DE000486172644661756C745F48616E646C65AD
:103DF000720063616C6C5F636F6E66696700636815
:103E000065636B4F6E6C696E65006E6578744F6E9E
:103E10006C696E6543757272656E7455736572492F
:103E200064006D61696E0000483E000800000020DB
:103E30008000000038230008C83E000880000020F1
:103E4000E02600004823000800A24A040000000009
:103E5000000000000102030406070809000000003A
:103E6000010203040102030406070809020406080C
:103E70000000000000000000100000000020000012
:103E800000100140400ECF19140809020100000083
:103E900004000000E8030000D0070000400000001C
:103EA0000000000000000000000000000000000012
:103EB0000000000000000000000000000000000002
:083EC0000000000000000000FA
:04000005080000ED02
:00000001FF
