:020000040800F2
:100000008816002001010008E90C0008E50B000833
:10001000E50C0008FF08000841240008000000006B
:10002000000000000000000000000000550F000864
:100030000309000800000000010D0008212200084B
:100040001B0100081B0100081B0100081B01000820
:100050001B0100081B0100081B0100081B01000810
:100060001B0100081B0100081B0100081B01000800
:100070001B0100081B0100081B0100081B010008F0
:100080001B0100081B0100081B0100081B010008E0
:100090001B0100081B0100081B0100081B010008D0
:1000A0001B0100081B0100081B0100081B010008C0
:1000B0001B0100081B0100081B0100081B010008B0
:1000C0001B0100081B0100081B0100081B010008A0
:1000D0001B0100081B0100081B0100081B01000890
:1000E0001B0100081B0100081B010008DFF80CD0F1
:1000F00000F020FB00480047513700088816002018
:100100000648804706480047FEE7FEE7FEE7FEE7B1
:10011000FEE7FEE7FEE7FEE7FEE7FEE7392200081E
:10012000ED0000080649074A0868504343F23902C7
:10013000104408604008704701490860704700009B
:100140005C0000206D4EC64140EA01039B0703D0CE
:1001500009E008C9121F08C0042AFAD203E011F806
:10016000013B00F8013B521EF9D27047D2B201E0C8
:1001700000F8012B491EFBD270470022F6E710B5AC
:1001800013460A4604461946FFF7F0FF204610BD05
:1001900030B504460020034600E05B1C934203D2C6
:1001A000E05CCD5C401BF8D030BD2DE9FE4F8046B1
:1001B00081EA0300C00F0C46009021F0004123F0BB
:1001C0000045B8EB0200A94105D2404621469046C1
:1001D0001C460B46024623F00040104347D0270D33
:1001E000C7F30A00C3F30A510290401A0190402855
:1001F0006BDAC3F3130040F4801B0098924620B1E1
:100200000023D2EB030A63EB0B0B01985946C0F1B4
:100210004002504600F0CFF906460D46504659467A
:10022000019A00F0E7F910EB08006141002487EA29
:10023000115284EAE7731A4340D0009A62B3019ADC
:10024000012A4FEA075215DC001B61EB02014FF057
:10025000004202EA0752CDE90042001C41F580113C
:1002600032462B4600F0E7F903B0BDE8F08F404678
:100270002146F9E7001B61EB0201001C41F58013E8
:1002800000185B412018A2F5001747EB030140EA74
:10029000D570B6196D4111E06D084FEA360645EA92
:1002A000C0754FEA0752001B61EB0201001C41F5CB
:1002B000801149084FEA30000019514132462B465F
:1002C00003B0BDE8F04F00F0A7B90098012240004C
:1002D0000023D0EB020263EBE073009821464FEA63
:1002E000E074B8EB000061EB0401E9E783F0004340
:1002F0005BE781F0004158E72DE9FE4F81EA0304F6
:1003000004F0004421F0004100944FF0000B23F072
:10031000004350EA01045ED052EA03045BD0C3F309
:100320000A54C1F30A552C44A4F2F3340194A0FBFF
:100330000254C1F3130141F48011C3F3130343F4D6
:10034000801301FB024400FB034E840A970A44EA2F
:10035000815447EA8357A4FB076802958D0A05FB81
:1003600007854FEA932C04FB0C542705029D4FEAA6
:10037000065847EA1637B5EB08056EEB070C870EF3
:10038000920E47EA811742EA8312A7FB0201B6EBFD
:100390000B0164EB00042B0D43EA0C335E1844EBB5
:1003A0001C50DA465146E7FB0201C5F313044FEA3D
:1003B0000B3343EA14534FEA0432019C43EA060329
:1003C000A4F10C040294009CCDE900B400F033F9D0
:1003D00003B0BDE8F08F00200146F9E72DE9F04DAC
:1003E00081EA030404F0004B21F0004514464FF06D
:1003F000000A23F0004150EA050220D054EA01022D
:100400001DD0C5F30A570246C5F31303C1F3130009
:10041000C1F30A5640F4801543F48013A7EB060895
:10042000101BD64608F2FD3873EB050002D308F125
:10043000010801E092185B41B8F1000F03DA0020D7
:100440000146BDE8F08D00204FF480110646844639
:100450000EE0171B73EB050705D3121B63EB0503B7
:1004600006434CEA010C49084FEA300092185B4100
:1004700050EA0107EDD152EA030012D082EA0400EB
:1004800083EA0501084305D0101BAB4106D20122C7
:10049000002306E000224FF0004302E06FF001026B
:1004A00053101AEB06004CEB085110EB0A0041EB1D
:1004B0000B01BDE8F04D00F0AFB80EB5C10F80EAFA
:1004C000E0700844CA07002140F233438DE80E0073
:1004D0000A460B4600F0AFF803B000BD0EB540F27F
:1004E000334102910021CDE900110A460B4600F08C
:1004F000A2F803B000BDC1F30A5210B5C1F3130155
:1005000040F2FF3341F480119A4201DA002010BD1D
:1005100040F233439A42A2F2334203DC524200F0EB
:1005200059F810BD904010BD30B50B460146002073
:100530002022012409E021FA02F59D4205D303FAA5
:1005400002F5491B04FA02F52844151EA2F1010226
:10055000F1DC30BD2DE9F05F0546002092469B4658
:1005600088460646814640241BE0284641464746C9
:10057000224600F02FF853465A46C01A914110D334
:1005800011461846224600F016F82D1A67EB0108AE
:100590004F4622460120002100F00DF817EB00091C
:1005A0004E41201EA4F10104DFDC484631462A46B4
:1005B0004346BDE8F09F202A04DB203A00FA02F10E
:1005C000002070479140C2F1200320FA03F3194341
:1005D00090407047202A04DB203A21FA02F00021E3
:1005E000704721FA02F3D040C2F120029140084343
:1005F00019467047202A06DBCB17203A41FA02F051
:1006000043EAE07306E041FA02F3D040C2F120026F
:10061000914008431946704710B5141E73F1000449
:1006200008DA401C41F1000192185B411A4301D1E4
:1006300020F0010010BD2DE9F04D92469B4611B10E
:10064000B1FA81F202E0B0FA80F220329046FFF770
:10065000B2FF04460F4640EA0A0041EA0B01534646
:100660005A46084313D0114653EA010019D0C8F185
:1006700040025046FFF7AEFF05460E46504659462B
:100680004246FFF798FF084305D0012004E02046CA
:100690003946BDE8F08D0020054346EAE0762C435C
:1006A00037430A986305E40AA0EB08000022FD0A1C
:1006B00044EA47540A3002D500200146E9E7010523
:1006C00010196941DDE9084500196941BDE8F04D9F
:1006D000A2E7C1F30A52C1F3130140F2FF3341F420
:1006E00080119A4202DA00200146704740F23343FB
:1006F0009A42A2F2334202DC5242FFF76BBFFFF78D
:100700005ABF000030B5041E71F1000404DB4FF045
:100710000044404264EB0101141E73F1000405DB48
:100720001C464FF00043524263EB0403994208BF5A
:10073000904230BD064C074D06E0E06840F00103F2
:1007400094E8070098471034AC42F6D3FFF7D2FC88
:10075000543F0008743F0008CA430260704721B14B
:10076000826842F00102826003E0826822F00102A6
:100770008260704721B1826842F48072826003E037
:10078000826822F4807282607047014600208A6885
:1007900002F004020AB1012000E000207047014687
:1007A000C86C80B270470246002013680B400BB142
:1007B000012000E000207047014600208A6802F016
:1007C00008020AB1012000E00020704730B502465F
:1007D0000020002350680F4C20400D790C6844EA3B
:1007E00005242043506090680B4C2040D1E902540E
:1007F0002C434D7944EA450420439060D06A20F4AC
:1008000070000C7C641EE4B2234340EA0350D062C3
:1008100030BD0000FFFEF0FFFDF7F1FFF0B504462C
:100820000D4600200021092D11DDE068A5F10A0622
:1008300006EB4607072606FA07F18843A5F10A06E4
:1008400006EB460603FA06F10843E0600CE0206977
:1008500005EB4507072606FA07F1884305EB450631
:1008600003FA06F108432061072A0FDA606B561E6F
:1008700006EB86071F2606FA07F18843561E06EB8D
:10088000860605FA06F10843606322E00D2A0FDAB6
:10089000206BD61F06EB86071F2606FA07F1884352
:1008A000D61F06EB860605FA06F10843206310E022
:1008B000E06AA2F10D0606EB86071F2606FA07F18D
:1008C0008843A2F10D0606EB860605FA06F10843F9
:1008D000E062F0BD816841F008018160704721B19C
:1008E000826842F4A002826003E0826822F4A002DF
:1008F00082607047816841F004018160704700BFE9
:10090000FEE7704701B500BF0098411E0091002826
:10091000FAD108BD01B500BF0098401E0090002824
:10092000FAD108BD31B5094830C809A0009901F0D5
:1009300089FD00BF0548D0E900100B1B60EB0501E5
:100940000098181A71F10001F4D338BD2800002076
:1009500044656C61795F6D73203D2025640D0A004C
:100960000149C860704700000020024030B50446CD
:1009700004254FF4302000F085F80546042D17D1EA
:100980000C48006940F002000A49086108464461C9
:10099000006940F0400008614FF4302000F072F828
:1009A00005460448006941F6FD71084001490861A7
:1009B000284630BD0020024004200B49C96801F0E0
:1009C000010109B101200EE00749C96801F00401E5
:1009D00009B1022007E00449C96801F0100109B11A
:1009E000032000E004207047002002400348006913
:1009F00040F080000149086170470000002002407B
:100A000078B506460C46042500200090E80200F068
:100A100039F80546042D24D11348006940F001003F
:100A2000114908613480E80200F02CF80546042DD5
:100A300010D1B01C0090200C00990880E80200F052
:100A400021F805460848006941F6FE71084006494C
:100A5000086106E00448006941F6FE710840024959
:100A60000861284678BD0000002002400248034982
:100A700048600348486070472301674500200240F2
:100A8000AB89EFCD00B502460423FFF795FF03467F
:100A900003E0FFF791FF0346521E012B01D1002A0C
:100AA000F7D102B90523184600BD2DE9F0410246F1
:100AB00000250026002000230024002791F803C011
:100AC0000CF00F0591F803C00CF0100CBCF1000FF6
:100AD00003D091F802C04CEA050591F800C0BCF1C2
:100AE000000F31D0146800202BE04FF0010C0CFAFD
:100AF00000F3B1F800C00CEA03069E4220D1830047
:100B00004FF00F0C0CFA03F7BC4305FA03FC4CEA58
:100B1000040491F803C0BCF1280F06D14FF0010C7A
:100B20000CFA00FCC2F814C00AE091F803C0BCF152
:100B3000480F05D14FF0010C0CFA00FCC2F810C0B0
:100B4000401C0828D1D31460B1F800C0BCF1FF0FDD
:100B500034DD546800202EE000F1080C4FF001084D
:100B600008FA0CF3B1F800C00CEA03069E4221D14A
:100B700083004FF00F0C0CFA03F7BC4305FA03FC9B
:100B80004CEA040491F803C0BCF1280F05D100F130
:100B9000080C08FA0CF8C2F8148091F803C0BCF1F4
:100BA000480F07D100F1080C4FF0010808FA0CF8C3
:100BB000C2F81080401C0828CED35460BDE8F081F4
:100BC00002460020D3680B400BB1012000E000205A
:100BD000704741617047016170470AB1016100E0EF
:100BE000416170471CB542200B49CDE900100B480C
:100BF0000CC80BA001F026FC14A001F023FC19A0E6
:100C000001F020FC02F0C0F805E0002002F096F8A8
:100C10001848FFF77FFEF8E7F23E000828000020A2
:100C20001B5B34303B33326D5B256C6C645D1B5B4E
:100C3000306D201B5B323B34303B33336D257328E2
:100C40002564291B5B306D3A200000001B5B313BA3
:100C500034303B33316D4552524F521B5B306D2067
:100C600000000000486172644661756C74200D0AD2
:100C70000000000080FC0A0038B500242CE004EBE2
:100C80004401174A52F82100012100F047F804EB13
:100C90004400134901EB80008088ADF80000032078
:100CA0008DF8020010208DF8030004EB44010C4A7B
:100CB00002EB810188686946FFF7F7FE04EB440206
:100CC000074B03EB8202918804EB440203EB8202A0
:100CD0009068FFF77EFF641C012CD0DB38BD00005C
:100CE0003000002000BFFEE77047000002490143CA
:100CF000024A1160704700000000FA050CED00E0A8
:100D00007047000001460020034A506820F440402C
:100D100008435060704700000010024029B1064AA5
:100D200092690243044B9A6104E0034A9269824348
:100D3000014B9A61704700000010024030B500215D
:100D40000022002400232D4D6D6805F00C0121B117
:100D5000042905D0082923D105E0294D056022E0AA
:100D6000274D05601FE0254D6D6805F47012234D79
:100D70006D6805F48034022505EB92421CB9214DC3
:100D8000554305600BE01D4D6D6805F400351DB140
:100D90001C4D5543056002E0194D5543056002E0C6
:100DA000174D056000BF00BF144D6D6805F0F001E0
:100DB0000909154D6B5C0568DD4045600F4D6D6898
:100DC00005F4E061090A104D6B5C4568DD40856003
:100DD0000A4D6D6805F46051C90A0B4D6B5C45689E
:100DE000DD40C560054D6D6805F44041890B074D38
:100DF0006B5CC568B5FBF3F5056130BD00100240C2
:100E000000127A0000093D00140000202400002098
:100E100008B501210820FFF781FF4FF48070ADF87D
:100E2000000003208DF8020010208DF803006946B1
:100E30000E48FFF73AFE4FF480710C48FFF7CBFEE7
:100E40004FF4E150FFF75EFD4FF480710748FFF764
:100E5000C0FE0748FFF756FD4FF480710348FFF7C7
:100E6000BAFE0448FFF74EFD08BD0000000C01402B
:100E7000401901008097060021B1028842F040022B
:100E8000028004E002884FF6BF731A400280704768
:100E900008B5E020ADF8000003208DF8020018200E
:100EA0008DF8030069460948FFF7FFFD1420ADF8EF
:100EB000000010208DF8030069460448FFF7F5FD97
:100EC00014210248FFF787FE08BD0000000801401A
:100ED0000246002013890B400BB1012000E00020E6
:100EE00070470146888970478181704710B500229C
:100EF000028802F441520B884C8823438C88234398
:100F0000CC8823430C8923434C8923438C89234376
:100F1000CC8923431A430280838B4FF2FF74234012
:100F200083830B8A038210BD10B501210420FFF7D3
:100F3000F5FE01210803FFF7F1FE10BD21B1828803
:100F400042F00402828004E082884FF6FB731A406C
:100F500082807047704710B502F0E6FEFFF758FF39
:100F600010BD000010B5044604F1240004F5C67459
:100F700044F8F80C00202073E08101202077002045
:100F800020622085A4F5C6741C22084904F10800DB
:100F9000FFF7DAF8012084F8D00184F8D1010020AD
:100FA00084F8D20184F8D30110BD00003C00002079
:100FB00070B504460E461546B4F89A012880002004
:100FC000A4F89A012A8804F198013046FFF7BCF88A
:100FD00070BD000010B50446D4F8B8018047012167
:100FE000204600F0C6FD002084F89801204600F05D
:100FF00077FD4FF4E47003596F2204F125010120BD
:1010000098472020D4F8941008734FF4E2700359E5
:101010006F2204F12501012098472046A16800F0C5
:10102000FBFEA17B204600F0C3FFE17B204600F0E1
:1010300063FD217C204600F0BDFE617B204600F070
:101040009AFF617C204600F076FD40F2FF31204699
:1010500000F0DDFF2020015D204600F0CAFE0121E6
:10106000204600F0EBFD1449A06888420FD900210A
:10107000204600F04FFE0021204600F068FE0E21C1
:10108000217394F90C10204600F0F2FE0EE080214E
:10109000204600F03FFE0121204600F058FE1421BA
:1010A000217394F90C10204600F0E2FE0121204645
:1010B00000F005FE10BD0000008F423331B58AB04C
:1010C000012008900A9890F898010B287ED2DFE85A
:1010D00000F00607B0FDFCFBFAF97DF8F70017E316
:1010E00001210A9800F0EBFD9D210A98D0F89400A8
:1010F00041740A98D0F89400407C07900A98D0F880
:10110000BC0106901120DDE9062190470A98C07CB9
:10111000012829D10A98017DD0F8940080F8241084
:101120000A98D0F894001C3007900A98D0F8C001B3
:1011300006901C20DDE9062190470A98D0F894001B
:10114000007F00F03F0006900A98006805900A981A
:1011500040680490DDE90420069990470146079015
:101160000A9800F059FE05E0FF210A98D0F8940093
:1011700080F824100A98D0F8940090F82400079082
:101180000A98D0F8BC0106902420DDE9062190479A
:1011900000210A98D0F8940080F83D100A98D0F801
:1011A000940080F83E100A98D0F894003D300790E3
:1011B0000A98D0F8C401022206904020DDE90631E9
:1011C00098470A98807C012806D100E0FEE30621BA
:1011D0000A9800F074FD18E00A98D0F89400C17BDA
:1011E0000A98D0F8940041730A98D0F89400407B94
:1011F00007900A98D0F8BC0106900D20DDE9062181
:10120000904705210A9800F05AFD4FF480710A9822
:101210009830FEF7B2FF0A98C169C0F8B011FE48D5
:1012200000680A99C1F8AC0102210A9880F8981167
:101230006EE20A98D0F8CC010790122007998847EF
:1012400000F04000B8B3F44800680A99C1F8AC0156
:101250000A98C07C012822D10A98D0F894001C304A
:1012600007900A98D0F8C00106901C20DDE90621FD
:1012700090470A98D0F89400007F00F03F00069055
:101280000A98006805900A9840680490DDE90420F7
:1012900006999047014607900A9800F0BDFD0A980C
:1012A000D0F8BC01402107901220079A90470321F3
:1012B0000A9880F898110A98D0F8CC01079006E0B7
:1012C0008FE354E348E3F7E22AE222E258E01220F7
:1012D0000799884700F00200C8B3CF4800680A9910
:1012E000C1F8AC010A98C07C012822D10A98D0F834
:1012F00094001C3007900A98D0F8C00106901C207A
:10130000DDE9062190470A98D0F89400007F00F0AC
:101310003F0006900A98006805900A98406804907B
:10132000DDE9042006999047014607900A9800F0ED
:1013300073FD0A98D0F8BC01022107901220079A89
:1013400090470A9800F0BCFB0A9981F8A8010A9816
:10135000807C012813D10A980023D0F8AC21D0F862
:10136000B011AD48D0E90040A41A60EB0300091B9E
:1013700073EB000203D204210A9880F8981166E307
:101380000A98D0F89400123007900A98D0F8C0015B
:1013900006901220DDE9062190470A98D0F89400C3
:1013A000807C00F02000202815D10A98D0F8BC01DC
:1013B000202107901220079A90470A98807C0128E4
:1013C00004D101210A9880F8981103E002210A98BB
:1013D00080F898113BE30A98D0F8C00107A906905D
:1013E0001920069A90479DF81C0000F0800088B1F3
:1013F0009DF81C00C043401CC0F385010A9880F88A
:101400009C110A9890F89C01404241B20A9880F8D9
:101410009C1105E09DF81C0081080A9880F89C1139
:101420000A98D0F894001A3007900A98D0F8C001B2
:1014300006901A20DDE9062190470A9880687749CE
:1014400088423CD20A9890F99C0100281FDA0A9839
:1014500090F99C010390FFF730F8CDE906010A9856
:10146000D0F89400807E0190FFF738F800226C4B92
:10147000CDE90201FEF799FECDE90401DDE906237D
:10148000FEF793FE0A9A02F5D07203C253E00A985F
:10149000D0F89400807E0390FFF720F8614A624BF9
:1014A000CDE90401FEF728FF00225D4BCDE90601DE
:1014B000FEF77BFE0A9A02F5D07203C23BE00A985F
:1014C00090F99C0100281FDA0A9890F99C0103907A
:1014D000FEF7F3FFCDE906010A98D0F89400807E6C
:1014E0000190FEF7FBFF0022504BCDE90201FEF711
:1014F0005CFECDE90401DDE90623FEF756FE0A9AFB
:1015000002F5D07203C216E00A98D0F89400807EEB
:101510000390FEF7E3FF434A434BCDE90401FEF796
:10152000EBFE0022414BCDE90601FEF73EFE0A9A92
:1015300002F5D07203C20A98807C012855D10A981E
:10154000D0F89400C17B0A98D0F8940041730A98AF
:10155000D0F89400407B07900A98D0F8BC01069020
:101560000D20DDE9062190470A98407C012818D11A
:101570000A98D0F8940090F822100A98A0F89A11CE
:101580000A98D0F8940090F8220007900A98D0F8B2
:10159000C80106900A9998310020DDE90632984783
:1015A000A7E00A98D0F89400133007900A98D0F872
:1015B000C00106901320DDE9062190470A98D0F873
:1015C0009400C17C0A98A0F89A110A98D0F8940067
:1015D000C07C07900A98D0F8C80106900A99983103
:1015E0000020DDE90632984783E00A98D0F894009D
:1015F000103007900A98D0F8C00106901020DDE95D
:10160000062190470A98407C01283AD10A98D0F8E0
:10161000940090F822100BE028000020008F423345
:10162000008064C01B9E5E29CB10F13F00A063C008
:101630000A98A0F89A110A98D0F89400017C0A98A8
:10164000D0F8940041730A98D0F89400407B07903A
:101650000A98D0F8BC0106900D20DDE906219047DC
:101660000A98D0F8940090F8220007900A98D0F8D1
:10167000C80106900A9998310020DDE906329847A2
:1016800037E00A98D0F89400133007900A98D0F801
:10169000C00106901320DDE9062190470A98D0F892
:1016A0009400C17C0A98A0F89A110A98D0F8940086
:1016B000017C0A98D0F8940041730A98D0F89400FD
:1016C000407B07900A98D0F8BC0106900D20DDE918
:1016D000062190470A98D0F89400C07C07900A9899
:1016E000D0F8C80106900A9998310020DDE9063249
:1016F00098470A98807C012804D101210A9880F833
:10170000981103E002210A9880F8981102200890AD
:101710009DE101210A9880F898110320089096E134
:1017200001210A9800F0CBFA0A98C07C01282ED13A
:10173000F5210A98D0F8940041740A98017DD0F8F8
:10174000940080F824100A98D0F894001C30079078
:101750000A98D0F8C00106901C20DDE906219047C8
:101760000A98D0F89400007F00F03F0006900A9895
:10177000006805900A9840680490DDE90420069905
:101780009047014607900A9800F046FB0AE0F721CF
:101790000A98D0F89400417400210A98D0F8940077
:1017A00080F824100A98D0F8940090F8240007904C
:1017B0000A98D0F8BC0106902420DDE90621904764
:1017C0000A98D0F89400407C07900A98D0F8BC01A1
:1017D00006901120DDE9062190470A9890F8B4118F
:1017E000D0F8940080F822100A98D0F8940090F86D
:1017F000220007900A98D0F8BC0106902220DDE96B
:101800000621904700210A98D0F8940081730A9825
:10181000D0F89400807B07900A98D0F8BC0106901D
:101820000E20DDE9062190470A98D0F89400817BCC
:101830000A98D0F8940041730A98D0F89400407B3D
:1018400007900A98D0F8BC0106900D20DDE906212A
:1018500090470A98D0F8940090F8220007900A98D0
:10186000D0F8C40106900A9998310020DDE90632CB
:10187000984741210A98D0F8940080F83D10402103
:101880000A98D0F8940080F83E100A98D0F8940096
:101890003D3007900A98D0F8C401022206904020FB
:1018A000DDE90631984703210A9800F008FA06217D
:1018B0000A9880F89811CAE00A98D0F8CC010790ED
:1018C00012200799884700F0080058B10A98D0F80C
:1018D000BC01082107901220079A904707210A9817
:1018E00080F898110A98D0F8CC0107901220079937
:1018F000884700F0020070B30A98C07C012822D10A
:101900000A98D0F894001C3007900A98D0F8C001CB
:1019100006901C20DDE9062190470A98D0F8940033
:10192000007F00F03F0006900A98006805900A9832
:1019300040680490DDE9042006999047014607902D
:101940000A9800F069FA0A98D0F8BC0102210790C1
:101950001220079A90477AE001210A9800F0AFF927
:1019600000210A9880F89811042008906FE0012166
:101970000A9800F0A4F9FA210A98D0F8940041746A
:101980000A98D0F89400407C07900A98D0F8BC01DF
:1019900006901120DDE90621904700210A98D0F831
:1019A000940080F83D100A98D0F8940080F83E101A
:1019B0000A98D0F894003D3007900A98D0F8C401F6
:1019C000022206904020DDE9063100E03EE0984723
:1019D00007210A9800F073F90A210A9880F89811F3
:1019E00035E00A98D0F8CC01079012200799884773
:1019F00000F0040010B30A98D0F8BC01042107904D
:101A00001220079A90470A98D0F8CC01079012202C
:101A10000799884700F0010088B10FA000F012FD7F
:101A20000A98D0F8BC01012107901220079A90472C
:101A300001210A9880F898110820089005E00021FB
:101A40000A9880F898110720089000E000BF00BFB6
:101A500008980BB030BD00004341442044657465D4
:101A6000637465640D0A000070B50446D4F89400F0
:101A700000F11B014FF4E07002591B2090470D4903
:101A8000A06888420AD2D4F89410C87EFEF726FDDA
:101A900005460022084BFEF788FB70BDD4F8941071
:101AA000C87EFEF71BFD05460022044BFEF77DFBBA
:101AB000F3E70000008F4233008064C000A063C0E1
:101AC00010B50446D4F8940000F10C014FF4E07016
:101AD00002590C209047D4F89400007B400910BDB7
:101AE00010B50446D4F8940000F13F014FF4E070C3
:101AF00002594220904710BD70B504460D46D4F8F7
:101B0000940000F11D014FF4E07002591D20904730
:101B100054F8940F407F00F0F10040EA450021683E
:101B2000487754F89409417F4FF4DE7002591D2024
:101B30009047E57370BD70B504460D46D4F8940027
:101B400000F11D014FF4E07002591D20904754F838
:101B5000940F407F00F0FE0028432168487754F836
:101B60009409417F4FF4DE7002591D20904765743F
:101B700070BD70B504460D4694F8D301A84200D15B
:101B800070BD84F8D35184F8D25194F8D201012861
:101B900033D10021204600F092F854F8940F407899
:101BA00000F07F0040F080002168487054F89409EC
:101BB00041784FF4DE700259012090470121204600
:101BC00000F07DF8002054F8941F81F83D00216852
:101BD00081F83E0054F8940900F13D014FF4E270A1
:101BE00003590222402098474FF4E47003596F22B2
:101BF00004F12501012098471EE00021204600F055
:101C00005EF854F8940F407800F07F002168487027
:101C100054F8940941784FF4DE700259012090473E
:101C20000121204600F04BF84FF4E47003596F2275
:101C300004F125010120984700BFA1E770B50446D3
:101C40000D46D4F8940000F126014FF4E0700259DB
:101C50002620904754F8940F90F8260000F0F700E3
:101C600040EAC500216881F8260054F8940990F8EC
:101C700026104FF4DE7002592620904770BD70B5D3
:101C800004460D46D4F8940000F130014FF4E070A2
:101C900002593120904754F8940F90F8300000F02A
:101CA000F8002843216881F8300054F8940990F82E
:101CB00030104FF4DE7002593120904770BD70B57E
:101CC00004460D460026D4F89400407820F0F80031
:101CD00084F8D00194F8D001A8421AD0032D01D184
:101CE000012600E0002694F8D101B04201D084F82A
:101CF000D16154F8940F407800F0F800284321682F
:101D0000487054F8940941784FF4DE70025901206C
:101D1000904770BD70B504460D46D4F8940000F1AC
:101D200009014FF4E07002590920904754F8940FCC
:101D3000407A00F07F0028432168487254F89409E3
:101D4000417A4FF4DE7002590920904770BD70B59A
:101D500004460D46D4F8940000F149014FF4E070B8
:101D600002594D209047D4F8940000F109014FF436
:101D7000E070025909209047D4F89400407A00F0AE
:101D80008000802807D1012D0AD18720D4F8941033
:101D900081F8490004E08420D4F8941081F84900C7
:101DA000D4F8940090F849104FF4DE7002594D2099
:101DB000904770BD70B504460D46D4F8940000F10C
:101DC0001E014FF4E07002591E20904754F8940F02
:101DD000807F00F0FB0040EA85002168887754F896
:101DE0009409817F4FF4DE7002591E2090472574BC
:101DF00070BD70B504460D46D4F8940080F82250AA
:101E0000D4F8940090F822104FF4DE70025922208A
:101E100090472020055570BD2DE9F04704468946BE
:101E2000183444F8109C4846FEF758FB0746002239
:101E30000E4BFEF7D3FA0546FEF75DFB81464FEAEF
:101E40001940E16F88714FEA1920E16FC871E16FA5
:101E500081F80890E06F183C811D4FF4E27003593F
:101E6000032206209847BDE8F087000080844E409A
:101E700070B504460D46D4F8940000F109014FF402
:101E8000E070025909209047D4F8940000F149010C
:101E90004FF4E07002594D209047D4F89400407AF6
:101EA00000F0800080283DD1D4F8940090F84900DB
:101EB00000F0870087281AD1052D00DA0525142D9A
:101EC00000DD142554F8940F407A00F08F0040F0A4
:101ED0007000216848722068407A00F0F000691FA5
:101EE00001F00F01084354F89419487236E0022DAE
:101EF00000DA0225112D00DD112554F8940F407AE7
:101F000000F08F0040F07000216848722068407A2D
:101F100000F0F000A91E01F00F01084354F89419D5
:101F200048721BE0B5F1FF3F01DA4FF0FF350E2D8F
:101F300000DD0E2554F8940F407A00F08F0040F039
:101F40007000216848722068407A00F0F000691C37
:101F500001F00F01084354F894194872D4F8940022
:101F6000417A4FF4DE70025909209047257370BD05
:101F700080F89811704770B504460D46D4F8940067
:101F800000F11D014FF4E07002591D20904754F8F4
:101F9000940F407F65F31F102168487754F8940927
:101FA000417F4FF4DE7002591D209047657370BD6C
:101FB00070B504460D460C2D01DD0C2502E0062D02
:101FC00000DA0625062D04D105212046FFF757FE2D
:101FD00003E003212046FFF752FED4F8940000F1FD
:101FE0001E014FF4E07002591E20904754F8940FE0
:101FF000807F65F31F102168887754F89409817FEA
:102000004FF4DE7002591E209047A57370BD70B565
:1020100004460D46D4F8940000F11E014FF4E4701C
:10202000035902221E20984754F8940F807F00F035
:10203000FC006FF0FC0101EA252108432168887744
:102040002168CD7754F8940900F11E014FF4E27035
:10205000035902221E20984770BD70B504460E46F3
:102060001546A4F8B451B4F8B421314604F19800EF
:10207000FEF76AF8052084F8980170BD00B50246A5
:1020800001211046FFF774FF00BD70B504460D46F0
:1020900001222946204600F001F870BD2DE9F041EB
:1020A00005460E46174601F037FE05F07F0000F0AA
:1020B000A3F8002405E0002000F09EF83055601CD5
:1020C000C4B2BC42F7DB01F01FFEBDE8F08113B5DE
:1020D0000446012201A9204600F001F81CBD2DE9AB
:1020E000F04105460E46174601F016FE45F0800009
:1020F00000F082F8002404E0305D00F07DF8601C00
:10210000C4B2BC42F8DB01F0FFFDBDE8F08110B5C0
:1021100000F002F810BD00000CB500200190009006
:102120003348006840F480303149086000BF3048CF
:10213000006800F4003000900198401C0190009865
:1021400018B90198B0F5A06FF1D12948006800F4E2
:10215000003010B10120009001E0002000900098B4
:10216000012843D12348006840F01000214908604D
:102170000846006820F0030008600846006840F048
:10218000020008601A4840681949486008464068DB
:1021900048600846406840F48060486008464068EF
:1021A00020F47C1048600846406840F4E81048601D
:1021B0000846006840F08070086000BF0C48006866
:1021C00000F000700028F9D00948406820F00300B2
:1021D000074948600846406840F00200486000BF78
:1021E0000348406800F00C000828F9D10CBD00003D
:1021F000001002400020024010B504462146074866
:10220000FEF772FE00BF01210448FEF761FE0028C0
:10221000F9D00248FEF765FEC0B210BD00300140A3
:102220000448D0E900305A1C40F100000149C1E9DE
:10223000002070472800002010B51348006840F0C7
:1022400001001149086008464068104908400E49DD
:102250004860084600680E4908400B490860084677
:10226000006820F4802008600846406820F4FE00E2
:1022700048604FF41F008860FFF749FF4FF000608F
:102280000449086010BD0000001002400000FFF883
:10229000FFFFF6FE08ED00E000B585B0012144F235
:1022A0000400FEF73BFD4FF40070ADF8100018205D
:1022B0008DF8130003208DF8120004A91548FEF7CD
:1022C000F4FB4FF48060ADF8100004208DF813008B
:1022D00004A91048FEF7E9FB4FF4E130009000201C
:1022E000ADF80400ADF80600ADF80800ADF80C003C
:1022F0000C20ADF80A006946074800F031F80121CA
:10230000054800F014F84021034800F007F805B034
:1023100000BD0000000801400038014001F40072D7
:10232000B2F5007F00D100BFCA430280704721B1DF
:10233000828942F40052828104E082894DF6FF7363
:102340001A408281704702460020B1F5007F00D11B
:1023500000BF13880B400BB1012000E00020704744
:102360002DE9F04786B005460E460024A24600BF80
:10237000A1460027B08900B100BF2F462C8A4CF639
:10238000FF700440F08804432C82AC894EF6F310B1
:102390000440B08831890843718908430443AC8103
:1023A000AC8A4FF6FF400440B0890443AC8201A8D8
:1023B000FEF7C4FC1F48874202D1DDF810A001E0FF
:1023C000DDF80CA0A88900F4004040B10AEBCA0077
:1023D00000EB0A1031684900B0FBF1F807E00AEBA6
:1023E000CA0000EB0A1031688900B0FBF1F86420E4
:1023F000B8FBF0F004012009642101FB1089A889D1
:1024000000F4004040B1322000EBC900B0FBF1F015
:1024100000F00700044308E0322000EB09106421BB
:10242000B0FBF1F000F00F0004432C8106B0BDE8D2
:10243000F087000000380140C1F308028280704735
:1024400000BFFEE70FB4054B10B503A9044A02987C
:1024500000F0CAF810BC5DF814FB0000192D00084C
:102460006000002002E008C8121F08C1002AFAD14B
:1024700070477047002001E001C1121F002AFBD104
:10248000704700002DE9FF5FDDE90220010DDDF856
:1024900038B0024318D044F61050A1F2FF31414346
:1024A0000D140F98012820D0A5EB0B00401C5FEA0B
:1024B000000A4FF00004474EDFF81C91A04650463A
:1024C00016D5CAF1000728E00F98012443A201287D
:1024D00008D0002100980F9BC0E90021C0E9024309
:1024E000BDE8FF9F6FEA0B01F4E7CBF10000DEE7E8
:1024F000074612E0F80707D02246334640464946D1
:10250000FDF7FAFE804689462246334610461946B4
:10251000FDF7F2FE04460E467F10002FEAD1DDE9FA
:102520000201BAF1000F42464B4602DAFDF7E4FE23
:1025300001E0FDF753FF04460E460022284BFEF74C
:10254000E1F803D84FF0FF30014607E00022254BA9
:1025500020463146FDF729FEFEF7BBF8102409E0BE
:10256000002C0ADB0A220023FDF7F4FF019B303226
:102570001A55641E50EA0102F2D1641C019AC4F19A
:10258000110314440F9A012A03D0012208430DD1EC
:102590000AE0084304D000204FF0110B0F9080E7B1
:1025A000A3EB0B056D1E0DE05B4504DD4FF0000253
:1025B00005F1010504E003DA4FF00002A5F1010581
:1025C000002AECD000980F99C0E90231C0E900451B
:1025D00086E70000000024400000F03F30000000CB
:1025E0000000F0430000E03F2DE9FF4F95B09B460F
:1025F0008946064600250FE2252877D10024274684
:10260000F84A0121059400E0044316F8013F203BFD
:1026100001FA03F01042F7D130782A2811D06FF078
:102620002F033078A0F13002092A16D8059A44F019
:10263000020402EB820203EB42021044761C059076
:10264000EFE759F8042B0592002A03DA504244F4CC
:102650000054059044F00204761C30782E2816D1E0
:1026600016F8010F44F004042A280DD06FF02F0251
:102670003078A0F13003092B09D807EB870302EB70
:102680004303C718761CF3E759F8047B761C3078AF
:102690006C280FD006DC4C2817D068280DD06A288B
:1026A00014D104E0742810D07A280FD10DE044F43E
:1026B00000140AE044F4801401E044F440147278F9
:1026C000824202D104F58014761C761C307866288C
:1026D0000BD013DC582877D009DC002875D04528AA
:1026E000F6D04628F4D047281AD19DE118E0632897
:1026F00035D0642879D0652812D195E1702873D03F
:1027000008DC6728F1D069286FD06E280DD06F28BB
:1027100006D1B5E073282CD0752875D0782874D0F0
:102720005A46179990476D1C75E1C4F30250022870
:1027300009D003280DD0D9F8001004280DD00D6061
:1027400009F1040967E1D9F80010EA17C1E900525C
:10275000F6E7D9F800100D80F2E70D70F0E719F8F0
:10276000041B8DF8001000208DF80100EA460120BE
:1027700003E059F804AB4FF0FF3061074FF0000160
:1027800002D40DE008F101018846B9420FDA804514
:10279000F8DB1AF808100029F4D108E008F101016B
:1027A00088468142FADB1AF808100029F6D105980C
:1027B0005B46A0EB080721463846179A00F094FACA
:1027C000284400EB080507E04DE029E10DE01AF888
:1027D000010B5A4617999047B8F10108F7D25B46AA
:1027E00021463846179A13E142E00A220092C4F3C8
:1027F00002524FF0000A022A08D059F804CB032AEB
:102800004FEAEC710AD00DE029E02AE009F1070156
:1028100021F00702F2E802C1914609E00FFA8CFCB0
:102820004FEAEC71042A03D14FFA8CFC4FEAEC71A9
:10283000002907DA0A460021DCF1000C61EB0201F5
:102840002D2202E0220504D52B228DF8042001223E
:1028500003E0E20701D02022F7E7904659E00A2181
:1028600002E010220DE010214FF0000A00910BE071
:1028700010224FF0000A44F004040827009203E0FD
:1028800008224FF0000A0092C4F30252022A05D037
:1028900059F804CB0021032A08D009E009F1070107
:1028A00021F00702F2E802C1914605E01FFA8CFC14
:1028B000042A01D10CF0FF0C4FF00008220728D5A4
:1028C000702806D0009B83F0100353EA0A0305D05A
:1028D0000EE040228DF80420012208E05CEA0102AB
:1028E00006D030228DF804208DF805000222904693
:1028F000009B83F0080353EA0A030AD15CEA010251
:1029000001D1620705D530228DF804204FF001086F
:102910007F1E582804D034A003900EA802900DE02A
:1029200036A0F9E753466046009AFDF713FE844649
:102930000398825C0298401E029002705CEA0100DB
:10294000F0D1029806A9081A00F1200A600702D502
:1029500024F4803400E00127574502DDA7EB0A008C
:1029600000E0002000EB0A01009005984144401A65
:102970000590E00306D45B462146179A059800F0BF
:10298000B3F90544002706E001A85A46C05D17992F
:1029900090476D1C7F1C4745F6DBE0030CD55B467A
:1029A0002146179A059800F09FF9054404E030206D
:1029B0005A46179990476D1C0099481E00900029AF
:1029C000F5DC08E0029802995A460078491C029109
:1029D000179990476D1CBAF10001AAF1010AF1DCC8
:1029E00065E10000092801003031323334353637D3
:1029F000383961626364656600000000303132334B
:102A000034353637383941424344454600000000EA
:102A100000F058F90544761C307800287FF4ECADBE
:102A200019B02846BDE8F08F620700D4062709F1E7
:102A3000070222F0070CFCE80223E14603F00048FD
:102A40005FEA080C02D00FF2702C0DE05FEA045C24
:102A500002D50FF2682C07E05FEAC47C02D00FF2C7
:102A6000602C01E0AFF2700C4FF0FF3823F0004310
:102A7000CDF850C065280CD006DC452809D0462882
:102A80001DD047283DD13DE0662818D067287ED16B
:102A900038E00021112F01DB112000E0781CCDE986
:102AA000000106A90EA8FFF7EDFCDDE90F010E9A63
:102AB00003910021009207F1010A04914DE04FF0CB
:102AC00000400097CDE9011006A90EA8FFF7DAFC37
:102AD000DDE90F0203920E9B11990022DDF80CA094
:102AE0000093049211B9791C00EB010AB7EB0A00BC
:102AF00004D4C0F1FF3007F1010A0490AAEB0700EB
:102B0000019044E0012F00DA01270021112F01DD9F
:102B1000112000E03846CDE9000106A90EA8FFF714
:102B2000B1FCDDE90F010E9A03910021049100929E
:102B3000BA4621070CD40399514500DA8A46BAF106
:102B4000010F05DD009AAAF10101515C302908D07E
:102B5000B84202DA10F1040F06DA0121CDE90110C2
:102B600015E0AAF10101E9E7002805DC0499014418
:102B70000491AAEB000102E0411C514500DD8A46A8
:102B80000499401A401C01904FF000400290200729
:102B900004D40198504501DBCDF8048000208DF865
:102BA0004F0002980DF14F07B0F1004F25D02B20B8
:102BB0000E9002984FF0020800280CDA4042029072
:102BC0002D200E9007E00A210298FDF7ADFC303170
:102BD000029007F8011DB8F10001A8F10108F2DC2C
:102BE00002980028EFD1791E0E980870307800F016
:102BF000200040F0450007F8020D12A8C01B00F1AC
:102C000007081498007800B1012000EB0A01019830
:102C100001EBE07105984144401A401E0590E00325
:102C200006D45B462146179A059800F05DF80544E6
:102C30001498007818B15A46179990476D1CE00314
:102C400024D55B462146179A059800F04DF80544B7
:102C50001CE00498002807DBDDE90301884203DD5E
:102C60000098405C179901E0179930205A46904728
:102C7000049805F10105401C04900198401E019044
:102C800004D12E205A46179990476D1CBAF10001C5
:102C9000AAF1010ADDDC05E017F8010B5A46179985
:102CA00090476D1CB8F10001A8F10108F4DC5B4607
:102CB0002146179A0598ABE62D0000002B00000076
:102CC000200000002DE9F041044600251E4617466D
:102CD000880404D405E039462020B0476D1C641EEA
:102CE000F9D52846BDE8F0812DE9F04104460025DC
:102CF0001E469046C80301D5302700E020278804EF
:102D000004D505E041463846B0476D1C641EF9D530
:102D10002846BDE8F081000070B504460D46E1B2DA
:102D20000548FFF789FB00BF40210348FFF70BFB75
:102D30000128F9D1204670BD0038014070B5044625
:102D400004EB44020F4B03EB8202918804EB440234
:102D500003EB82029068FDF733FF08B9012000E021
:102D60000020054604EB4402064B03EB82029188E7
:102D700004EB440203EB820290682A46FDF72DFF24
:102D800070BD00003000002010B5FDF775FF10BDCC
:102D90002DE9FE4F04468A4693466F480568A17D9B
:102DA00004F10800FFF704F9E17D04F10800FEF7E3
:102DB000A3FE617D04F10800FFF7DDF804F2E514DD
:102DC000207820F00F002070207820F07000207014
:102DD000207820F0800080302070A4F2E514DAF82A
:102DE0000010C4F8E611DAF80410C4F8EA11DAF8B1
:102DF0000810C4F8EE110D2204F2E511204600F08F
:102E00007DFC02900298002810DA4FF49C70534920
:102E1000CDE9001050480CC851A0FFF713FB5BA090
:102E2000FFF710FB5FA0FFF70DFB0CE04FF49D7068
:102E30004A49CDE9001048480CC849A0FFF702FBF9
:102E400064A0FFF7FFFA04F2E511204600F0E8FB6A
:102E50008146B9F1000F11DA40F23F103F49CDE948
:102E600000103D480CC83EA0FFF7ECFA63A0FFF746
:102E7000E9FA67A0A168FFF7E5FA6AE094F8E501CE
:102E800000F00F0000284DD194F8E501C00900289A
:102E900048D194F8E501C0F30210002842D1B9F1FD
:102EA000190F3FD10C2204F5F3715046FDF770F96C
:102EB000002837D1D4F8F211CBF80010D4F8F6116D
:102EC000CBF80410D4F8FA01CBF8080040F2451012
:102ED0002249CDE9001020480CC821A0FFF7B2FA22
:102EE00050A0FFF7AFFA01220C21584600F070FB0A
:102EF00040F247101949CDE9001017480CC818A036
:102F0000FFF7A0FA04F10800FEF7AEFD07460B46F6
:102F100011480068411B3A4644A0FFF793FA48461F
:102F2000BDE8FE8F4FF4A6700C49CDE900100A48A9
:102F30000CC80BA0FFF786FA30A0FFF783FA94F8CD
:102F4000E501C309C0F3021200F00F013DA0FFF735
:102F500079FA0020E4E7000028000020D43E0008B1
:102F60001B5B34303B33326D5B256C6C645D1B5BEB
:102F7000306D201B5B323B34303B33336D2573287F
:102F80002564291B5B306D3A200000001B5B313B40
:102F900034303B33316D4552524F521B5B306D2004
:102FA0000000000053656E6420424153455F535456
:102FB0004154494F4E5F42494E44494E4720746F39
:102FC0002047415445574159206661696C6564202A
:102FD0000D0A000053656E6420424153455F53540F
:102FE0004154494F4E5F42494E44494E4720746F09
:102FF0002047415445574159200D0A001B5B313B86
:1030000034303B33336D5741524E1B5B306D2000E3
:1030100054696D656F7574207573652025640D0A9C
:1030200000000000474D4143203D200054494D45DC
:10303000203D202564206D7320527373693A20254A
:10304000660D0A0020466C61675F76657273696F72
:103050006E203D2025642C20466C61675F7479707A
:1030600065203D2025642C20466C61675F64697291
:10307000656374696F6E203D202564200D0A000091
:103080002DE9FC4E0446894692461D469148076844
:10309000A17D04F10800FEF78BFFE17D04F108003B
:1030A000FEF72AFD617D04F10800FEF764FF04F2DB
:1030B000E514207820F00F002070207820F07000B8
:1030C00010302070207820F0800080302070A4F232
:1030D000E514D9F80010C4F8E611D9F80410C4F8C2
:1030E000EA11D9F80810C4F8EE11DAF80010C4F8A3
:1030F000F211DAF80410C4F8F611DAF80810C4F87E
:10310000FA11192204F2E511204600F0F7FA83467D
:10311000BBF1000F10DA4FF482706F49CDE9001057
:103120006C480CC86DA0FFF78DF977A0FFF78AF9FE
:103130007BA0FFF787F90CE04FF483706649CDE977
:10314000001064480CC865A0FFF77CF97FA0FFF76A
:1031500079F904F2E511204600F062FA0646002EE5
:1031600011DA40F20B105C49CDE9001059480CC847
:103170005AA0FFF767F97EA0FFF764F981A0A16864
:10318000FFF760F9A4E094F8E50100F00F000028D3
:103190007ED194F8E501C0090028F9D194F8E50141
:1031A000C0F3021001287CD1132E7AD10C2204F531
:1031B000F3714846FCF7ECFF002872D194F8F20155
:1031C000010694F8F30141EA004194F8F40141EA60
:1031D000002194F8F5010143296194F8F6010009F2
:1031E000687594F8F60100F00F00287594F8F7015F
:1031F0004011A8754FF48B703749CDE90010354860
:103200000CC836A0FFF71EF963A02969FFF71AF969
:1032100040F217103049CDE900102E480CC82FA0FD
:10322000FFF710F9297D60A0FFF70CF94FF48C70BF
:103230002949CDE9001027480CC828A0FFF702F95A
:10324000697D5CA0FFF7FEF840F219102249CDE934
:10325000001020480CC821A0FFF7F4F894F8F721DB
:10326000A97D57A0FFF7EEF84FF48D701A49CDE90C
:10327000001018480CC819A0FFF7E4F804F1080082
:10328000FEF7F2FBCDE9000112480068C11B00E027
:1032900007E050A0DDE90023FFF7D4F8B01EBDE839
:1032A000FC8E40F21F100C49CDE9001009480CC8F3
:1032B0000AA0FFF7C7F82EA0FFF7C4F894F8E501BD
:1032C000C309C0F3021200F00F0149A0FFF7BAF8DA
:1032D0000020E4E728000020BB3E00081B5B3430E0
:1032E0003B33326D5B256C6C645D1B5B306D201B6A
:1032F0005B323B34303B33336D2573282564291B07
:103300005B306D3A200000001B5B313B34303B33B7
:10331000316D4552524F521B5B306D200000000052
:1033200053656E64204E4554574F524B5F52455182
:103330005545535420746F204741544557415920F7
:103340006661696C6564200D0A00000053656E6457
:10335000204E4554574F524B5F524551554553549B
:1033600020746F2047415445574159200D0A0000F1
:103370001B5B313B34303B33336D5741524E1B5B4B
:10338000306D200054696D656F757420757365200C
:1033900025640D0A000000002053656564203D206F
:1033A0002564200D0A000000204277203D2025647E
:1033B000200D0A00205366203D202564200D0A00C0
:1033C000204563203D202564202D20253032780DB6
:1033D0000A0000002054494D45203D202564206D01
:1033E0007320527373693A2025660D0A00000000AD
:1033F00020466C61675F76657273696F6E203D2051
:1034000025642C20466C61675F74797065203D20CF
:1034100025642C20466C61675F646972656374691A
:103420006F6E203D202564200D0A00004B7D8375C2
:103430000B7D43758B7DC3750A6982607047000000
:103440002DE9FC4104460F461546A17D04F1080014
:10345000FEF7AEFDE17D04F10800FEF74DFB617D56
:1034600004F10800FEF787FD04F2E511204600F0A4
:10347000D7F80646002E10DADA203749CDE90010D9
:1034800036480CC836A0FEF7DDFF40A0FEF7DAFF95
:1034900043A0A168FEF7D6FF5CE094F8E50100F0D8
:1034A0000F0000283FD194F8E501C00900283AD167
:1034B00094F8E501C0F30210022834D1DF20264938
:1034C000CDE9001025480CC825A0FEF7BBFF39A0A8
:1034D000FEF7B8FF701EC1B2012204F5F37000F0D0
:1034E00077F804F2E514207820F00F00207020789F
:1034F00020F0700020302070207820F08000803094
:103500002070A4F2E5142A46394604F5F370FCF75E
:103510001BFE681CC2B204F2E511204600F0EEF872
:103520002846BDE8FC81EB200B49CDE900100B4893
:103530000CC80BA0FEF786FF14A0FEF783FF0096D1
:1035400094F8E501C309C0F3021200F00F011F480F
:10355000FEF778FF0020E4E7A83E000828000020DE
:103560001B5B34303B33326D5B256C6C645D1B5BE5
:10357000306D201B5B323B34303B33336D25732879
:103580002564291B5B306D3A200000001B5B313B3A
:1035900034303B33336D5741524E1B5B306D20004E
:1035A00054696D656F7574207573652025640D0A07
:1035B000000000004741544557415920555345529A
:1035C0002044415441203D20000000000C3F0008F1
:1035D0002DE9F04104460D461646002705E0217806
:1035E00006A0FEF72FFF641C7F1CAF42F7DB16B16D
:1035F00004A0FEF727FFBDE8F081000025303278F7
:10360000000000000D0A000010B5044604F1080097
:10361000FDF7E0FC04F10800FEF730FD002010BDCE
:103620002DE9FE4304460F46224960C904F1080013
:10363000FEF724FD56202049CDE900101D480CC896
:103640001EA0FEF7FFFE28A02268D4F8E011FEF7C6
:10365000F9FE0FE01748D0E900104A1B60EB0600A6
:103660004FF47A7300219A1A814103D24FF0FF3050
:10367000BDE8FE8304F10800FDF720FD8046022826
:10368000E8D15F200C49CDE900100A480CC80BA016
:10369000FEF7D8FE14A02268D4F8E011FEF7D2FE9F
:1036A00002AA394604F10800FDF782FCBDF80800C3
:1036B000DEE70000280000205E3E00081B5B34307F
:1036C0003B33326D5B256C6C645D1B5B306D201B86
:1036D0005B323B34303B33336D2573282564291B23
:1036E0005B306D3A200000002074657374203D202B
:1036F00025642C2025640D0A000000002DE9F04708
:103700000446884615461148C0C82A46414604F179
:103710000800FEF7A2FC0FE00C48D0E900108A1B5D
:1037200060EB07004FF47A7300219A1A814103D2AB
:103730004FF0FF30BDE8F08704F10800FDF7BEFC54
:1037400081460428E8D12846F4E70000280000203C
:1037500086B04FF0FF08DFF8FC92BF4FBF4860C84B
:103760004FF4E060FDF7C2FA00F010FBFFF70CFB2E
:10377000FEF792FD00F002FA3B20B949CDE90010B6
:10378000B6480CC8B7A0FEF75DFEC1A0FEF75AFE12
:103790003C20B349CDE90010B0480CC8B1A0FEF7F9
:1037A00051FEBFA2C1A1C4A0FEF74CFE3E20AC4911
:1037B000CDE90010A9480CC8AAA0FEF743FEC3A09B
:1037C000FEF740FE01220C214846FFF701FF0020D2
:1037D000C44908610A2048750920087504208875C5
:1037E000002487E0C4EB441101EB4101BE4A02EB27
:1037F000C10101F10800FDF7B5FB002C4FD1BB4919
:10380000C4EB441000EB4000B74A02EBC000C0F824
:10381000C011B749C4EB441000EB400002EBC000FC
:10382000C0F8C811B349C4EB441000EB400002EBF0
:10383000C000C0F8C411B049C4EB441000EB400014
:1038400002EBC000C0F8D011AC49C4EB441000EB4F
:10385000400002EBC000C0F8CC11A949C4EB4410F1
:1038600000EB400002EBC000C0F8D411A549C4EB46
:10387000441000EB400002EBC000C1600121C4EB2A
:10388000441000EB400002EBC000C176C4EB4411D1
:1038900001EB410102EBC1009249FFF7C7FD4FF474
:1038A0007A70C4EB441101EB41018F4A42F83100B8
:1038B0004000C4EB441101EB410102EBC101C1F82E
:1038C000E0014110C4EB441000EB400002EBC000EB
:1038D00001624900C4EB441000EB400002EBC00061
:1038E0004162C4EB441101EB410102EBC100FFF75F
:1038F0008BFE641C012CFFF675AF83493868884243
:1039000014D101208149087069205549CDE9001082
:1039100052480CC853A0FEF795FD7DA0FEF792FD1E
:1039200001220C21381DFFF753FE0EE002207749DB
:1039300008706D204A49CDE9001048480CC849A0DC
:10394000FEF780FD78A0FEF77DFD81E06F480078EE
:1039500020B1012833D0022878D14CE07B4962485D
:10396000FFF764FD0C2249465F48FFF769FD80467A
:10397000B8F1000F04DD394860C80020FFF7DEF918
:103980003648D0E900104A1B60EB06014EF6602372
:1039900000209A1A884111D283203149CDE90010C4
:1039A0002E480CC82FA0FEF74DFD69A0FEF74AFD7A
:1039B0006CA0FEF747FD01205449087047E000F075
:1039C00085F9834600F04AF98246FCF7ABFF45498A
:1039D0004548FFF72BFD5D4B3A1D49464248FFF72E
:1039E0004FFB8046B8F1000F04DD1C4860C8002082
:1039F000464908702BE000F069F9834600F02EF983
:103A00008246FCF78FFF37493748FFF70FFD03AABF
:103A100049463548FFF7BCF98046B8F1000F13DD81
:103A200039480290102102A800F0E4F9102239462A
:103A300002A8FCF7ADFB38B901220C21381DFFF7B5
:103A4000C7FD01203149087001E0FFE700BF00BF5A
:103A50007CE70000E8F7FF1F00FC000828000020BA
:103A6000043F00081B5B34303B33326D5B256C6CCC
:103A7000645D1B5B306D201B5B323B34303B33336A
:103A80006D2573282564291B5B306D3A20000000EA
:103A90005553415254315F436F6E6669670D0A009A
:103AA00031353A35363A3532000000004A756E201D
:103AB00032392032303138004275696C64202C2054
:103AC0002573202573200D0A000000004E4F444549
:103AD000204D4F44554C45202C204E4D4143203D18
:103AE000200000006006002068000020570F00083A
:103AF0008B200008CF2000089D200008DF20000850
:103B0000E73C0008213C00086192547858000020EE
:103B10004E4F4445204D4F44554C45202C20474D99
:103B20004143203D200000004E4F4445204D4F446E
:103B3000554C45202C204E4F2042494E44204741B1
:103B40005445574159200D0A000000003806002056
:103B50001B5B313B34303B33336D5741524E1B5B63
:103B6000306D20005B6F66666C696E655D206E6F00
:103B70006465206C6F7374200D0A000000B587B077
:103B800001214FF40170FDF7C9F80220ADF80400DF
:103B900000208DF8070001A91F48FCF786FF0020D0
:103BA000029001208DF80C008DF80D004FF460207C
:103BB00004900020059001208DF8180002A91748F4
:103BC000FCF704FE4FF40040FDF79CF803230122AC
:103BD00011461248FCF722FE01211048FCF7CAFDED
:103BE00001210E48FCF7BBFD0C48FCF773FE00BF3B
:103BF0000A48FCF7E1FD0028FAD10848FCF77AFEF4
:103C000000BF0648FCF7C1FD0028FAD10121034896
:103C1000FCF765FE07B000BD00080140002401402C
:103C200070B506460C463046FCF786FA002502E0E1
:103C3000FCF778FA6D1CA542FADBFCF773FA40F248
:103C40008F1190FBF1F201FB12000249024A02FBC4
:103C5000001070BD801A701890D003002DE9F0415B
:103C600004464FF47A6643F2B0672046FCF764FAE4
:103C7000002502E0FCF756FA6D1C1420B4FBF0F1AD
:103C800000FB1140A842F5D8FCF74CFAB91B491EBD
:103C900090FBF1F201FB12003044BDE8F08100001E
:103CA00010B500BF02210848FCF77DFD0028F9D0BF
:103CB0000548FCF774FDC4B202210348FCF74CFD33
:103CC00004F0010010BD00000024014070B5002484
:103CD000002504E06400FFF7E3FF04436D1C202D82
:103CE000F8DB204670BD70B5044600F015F804F00E
:103CF0007F00FEF781FA0020FEF77EFA054600F00D
:103D000003F8284670BD000010B510210148FCF7EB
:103D100062FF10BD0008014010B510210148FCF7FA
:103D200058FF10BD0008014000B585B0FDF7FCF854
:103D30001820ADF80C000020ADF800004FF48270A0
:103D4000ADF802000020ADF80400ADF80600ADF8B3
:103D500008004FF40070ADF80A000020ADF80E0026
:103D60000720ADF8100069460748FDF7BFF8FDF7DA
:103D70008FF801210448FDF7E1F801210248FDF721
:103D80007BF805B000BD00000030014030B516489A
:103D900000684FF47A72B0FBF2F1B1F1807F01D389
:103DA00001201DE021F07F40401E4FF0E0225061D5
:103DB00050170F22002807DA13071D0E0B4B00F0D7
:103DC0000F04241F1D5503E013071C0E084B1C5441
:103DD00000BF00204FF0E02290610720106100201A
:103DE00008B100BFFEE730BD0000002018ED00E084
:103DF00000E400E02DE9F04105460E46134C204654
:103E000006EB00082F46FCF731FE3420FCF7A8FD36
:103E10002046FCF7ABFD042804D0FCF7E7FD0020AA
:103E2000BDE8F0810CE020463968FCF7E9FD042884
:103E300002D1241D3F1D03E0FCF7D8FD0020EFE771
:103E40004445F0D3FCF7D2FD0120E9E700FC00086F
:103E50006C6F72615F6E65745F70726F63006C6F20
:103E600072615F6E65745F72656164006C6F726130
:103E70005F6E65745F476174657761795F557365DF
:103E8000725F64617461006C6F72615F6E65745F14
:103E9000476174657761795F4E6574776F726B5FA8
:103EA00072657175657374006C6F72615F6E6574B5
:103EB0005F557365725F64617461006C6F72615FFE
:103EC0006E65745F4E6574776F726B5F7265717546
:103ED000657374006C6F72615F6E65745F426173CD
:103EE000655F73746174696F6E5F62696E64696E39
:103EF0006700486172644661756C745F48616E6406
:103F00006C6572006D61696E0000000020466C6196
:103F1000675F76657273696F6E203D2025642C2083
:103F2000466C61675F74797065203D2025642C20A4
:103F3000466C61675F646972656374696F6E203D8A
:103F40002025642C206C656E203D202564200D0A00
:103F500000000000743F0008000000206400000022
:103F600064240008D83F00086400002024160000E4
:103F70007424000800A24A040000000000000000B1
:103F800001020304060708090000000001020304FF
:103F900001020304060708090204060800000000E5
:103FA0000000000010000000002000000010014090
:103FB000400ECF191408090201000000040000009F
:103FC000E8030000D00700004000000001000000EE
:083FD0000000000000000000E9
:04000005080000ED02
:00000001FF
