:020000040800F2
:100000000815002001010008450B0008410A0008FE
:10001000410B000859070008852200080000000075
:10002000000000000000000000000000990D000822
:100030005D070008000000005D0B00086520000857
:100040001B0100081B0100081B0100081B01000820
:100050001B0100081B0100081B0100081B01000810
:100060001B0100081B0100081B0100081B01000800
:100070001B0100081B0100081B0100081B010008F0
:100080001B0100081B0100081B0100081B010008E0
:100090001B0100081B0100081B0100081B010008D0
:1000A0001B0100081B0100081B0100081B010008C0
:1000B0001B0100081B0100081B0100081B010008B0
:1000C0001B0100081B0100081B0100081B010008A0
:1000D0001B0100081B0100081B0100081B01000890
:1000E0001B0100081B0100081B010008DFF80CD0F1
:1000F00000F020FB00480047693600080815002082
:100100000648804706480047FEE7FEE7FEE7FEE7B1
:10011000FEE7FEE7FEE7FEE7FEE7FEE77D200008DC
:10012000ED0000080649074A0868504343F23902C7
:10013000104408604008704701490860704700009B
:100140005C0000206D4EC64140EA01039B0703D0CE
:1001500009E008C9121F08C0042AFAD203E011F806
:10016000013B00F8013B521EF9D27047D2B201E0C8
:1001700000F8012B491EFBD270470022F6E710B5AC
:1001800013460A4604461946FFF7F0FF204610BD05
:1001900030B504460020034600E05B1C934203D2C6
:1001A000E05CCD5C401BF8D030BD2DE9FE4F8046B1
:1001B00081EA0300C00F0C46009021F0004123F0BB
:1001C0000045B8EB0200A94105D2404621469046C1
:1001D0001C460B46024623F00040104347D0270D33
:1001E000C7F30A00C3F30A510290401A0190402855
:1001F0006BDAC3F3130040F4801B0098924620B1E1
:100200000023D2EB030A63EB0B0B01985946C0F1B4
:100210004002504600F0CFF906460D46504659467A
:10022000019A00F0E7F910EB08006141002487EA29
:10023000115284EAE7731A4340D0009A62B3019ADC
:10024000012A4FEA075215DC001B61EB02014FF057
:10025000004202EA0752CDE90042001C41F580113C
:1002600032462B4600F0E7F903B0BDE8F08F404678
:100270002146F9E7001B61EB0201001C41F58013E8
:1002800000185B412018A2F5001747EB030140EA74
:10029000D570B6196D4111E06D084FEA360645EA92
:1002A000C0754FEA0752001B61EB0201001C41F5CB
:1002B000801149084FEA30000019514132462B465F
:1002C00003B0BDE8F04F00F0A7B90098012240004C
:1002D0000023D0EB020263EBE073009821464FEA63
:1002E000E074B8EB000061EB0401E9E783F0004340
:1002F0005BE781F0004158E72DE9FE4F81EA0304F6
:1003000004F0004421F0004100944FF0000B23F072
:10031000004350EA01045ED052EA03045BD0C3F309
:100320000A54C1F30A552C44A4F2F3340194A0FBFF
:100330000254C1F3130141F48011C3F3130343F4D6
:10034000801301FB024400FB034E840A970A44EA2F
:10035000815447EA8357A4FB076802958D0A05FB81
:1003600007854FEA932C04FB0C542705029D4FEAA6
:10037000065847EA1637B5EB08056EEB070C870EF3
:10038000920E47EA811742EA8312A7FB0201B6EBFD
:100390000B0164EB00042B0D43EA0C335E1844EBB5
:1003A0001C50DA465146E7FB0201C5F313044FEA3D
:1003B0000B3343EA14534FEA0432019C43EA060329
:1003C000A4F10C040294009CCDE900B400F033F9D0
:1003D00003B0BDE8F08F00200146F9E72DE9F04DAC
:1003E00081EA030404F0004B21F0004514464FF06D
:1003F000000A23F0004150EA050220D054EA01022D
:100400001DD0C5F30A570246C5F31303C1F3130009
:10041000C1F30A5640F4801543F48013A7EB060895
:10042000101BD64608F2FD3873EB050002D308F125
:10043000010801E092185B41B8F1000F03DA0020D7
:100440000146BDE8F08D00204FF480110646844639
:100450000EE0171B73EB050705D3121B63EB0503B7
:1004600006434CEA010C49084FEA300092185B4100
:1004700050EA0107EDD152EA030012D082EA0400EB
:1004800083EA0501084305D0101BAB4106D20122C7
:10049000002306E000224FF0004302E06FF001026B
:1004A00053101AEB06004CEB085110EB0A0041EB1D
:1004B0000B01BDE8F04D00F0AFB80EB5C10F80EAFA
:1004C000E0700844CA07002140F233438DE80E0073
:1004D0000A460B4600F0AFF803B000BD0EB540F27F
:1004E000334102910021CDE900110A460B4600F08C
:1004F000A2F803B000BDC1F30A5210B5C1F3130155
:1005000040F2FF3341F480119A4201DA002010BD1D
:1005100040F233439A42A2F2334203DC524200F0EB
:1005200059F810BD904010BD30B50B460146002073
:100530002022012409E021FA02F59D4205D303FAA5
:1005400002F5491B04FA02F52844151EA2F1010226
:10055000F1DC30BD2DE9F05F0546002092469B4658
:1005600088460646814640241BE0284641464746C9
:10057000224600F02FF853465A46C01A914110D334
:1005800011461846224600F016F82D1A67EB0108AE
:100590004F4622460120002100F00DF817EB00091C
:1005A0004E41201EA4F10104DFDC484631462A46B4
:1005B0004346BDE8F09F202A04DB203A00FA02F10E
:1005C000002070479140C2F1200320FA03F3194341
:1005D00090407047202A04DB203A21FA02F00021E3
:1005E000704721FA02F3D040C2F120029140084343
:1005F00019467047202A06DBCB17203A41FA02F051
:1006000043EAE07306E041FA02F3D040C2F120026F
:10061000914008431946704710B5141E73F1000449
:1006200008DA401C41F1000192185B411A4301D1E4
:1006300020F0010010BD2DE9F04D92469B4611B10E
:10064000B1FA81F202E0B0FA80F220329046FFF770
:10065000B2FF04460F4640EA0A0041EA0B01534646
:100660005A46084313D0114653EA010019D0C8F185
:1006700040025046FFF7AEFF05460E46504659462B
:100680004246FFF798FF084305D0012004E02046CA
:100690003946BDE8F08D0020054346EAE0762C435C
:1006A00037430A986305E40AA0EB08000022FD0A1C
:1006B00044EA47540A3002D500200146E9E7010523
:1006C00010196941DDE9084500196941BDE8F04D9F
:1006D000A2E7C1F30A52C1F3130140F2FF3341F420
:1006E00080119A4202DA00200146704740F23343FB
:1006F0009A42A2F2334202DC5242FFF76BBFFFF78D
:100700005ABF000030B5041E71F1000404DB4FF045
:100710000044404264EB0101141E73F1000405DB48
:100720001C464FF00043524263EB0403994208BF5A
:10073000904230BD064C074D06E0E06840F00103F2
:1007400094E8070098471034AC42F6D3FFF7D2FC88
:100750002C3D00084C3D000800BFFEE7704701B586
:1007600000BF0098411E00910028FAD108BD01B5D4
:1007700000BF0098401E00900028FAD108BD00007C
:1007800031B5094830C809A0009901F07DFD00BFCE
:100790000548D0E900100B1B60EB05010098181A02
:1007A00071F10001F4D338BD2800002044656C616C
:1007B000795F6D73203D2025640D0A000149C860F2
:1007C000704700000020024030B5044604254FF475
:1007D000302000F085F80546042D17D10C4800693B
:1007E00040F002000A49086108464461006940F08F
:1007F000400008614FF4302000F072F805460448CC
:10080000006941F6FD71084001490861284630BD84
:100810000020024004200B49C96801F0010109B120
:1008200001200EE00749C96801F0040109B1022066
:1008300007E00449C96801F0100109B1032000E094
:1008400004207047002002400348006940F0800007
:1008500001490861704700000020024078B5064653
:100860000C46042500200090E80200F039F8054607
:10087000042D24D11348006940F00100114908619A
:100880003480E80200F02CF80546042D10D1B01C8D
:100890000090200C00990880E80200F021F805463D
:1008A0000848006941F6FE7108400649086106E003
:1008B0000448006941F6FE71084002490861284673
:1008C00078BD000000200240024803494860034808
:1008D000486070472301674500200240AB89EFCD97
:1008E00000B502460423FFF795FF034603E0FFF738
:1008F00091FF0346521E012B01D1002AF7D102B904
:100900000523184600BD2DE9F041024600250026CA
:10091000002000230024002791F803C00CF00F05ED
:1009200091F803C00CF0100CBCF1000F03D091F84B
:1009300002C04CEA050591F800C0BCF1000F31D0AF
:10094000146800202BE04FF0010C0CFA00F3B1F812
:1009500000C00CEA03069E4220D183004FF00F0C2A
:100960000CFA03F7BC4305FA03FC4CEA040491F8C3
:1009700003C0BCF1280F06D14FF0010C0CFA00FCAB
:10098000C2F814C00AE091F803C0BCF1480F05D1C9
:100990004FF0010C0CFA00FCC2F810C0401C0828F3
:1009A000D1D31460B1F800C0BCF1FF0F34DD54683E
:1009B00000202EE000F1080C4FF0010808FA0CF3BB
:1009C000B1F800C00CEA03069E4221D183004FF02B
:1009D0000F0C0CFA03F7BC4305FA03FC4CEA0404C1
:1009E00091F803C0BCF1280F05D100F1080C08FAFA
:1009F0000CF8C2F8148091F803C0BCF1480F07D17D
:100A000000F1080C4FF0010808FA0CF8C2F8108049
:100A1000401C0828CED35460BDE8F0810246002077
:100A2000D3680B400BB1012000E00020704741610A
:100A30007047016170470AB1016100E04161704790
:100A40001CB542200B49CDE900100B480CC80BA087
:100A500001F01AFC14A001F017FC19A001F014FC1D
:100A600002F0B4F805E0002002F08AF81848FFF719
:100A70007EFEF8E7123D0008280000201B5B3430A2
:100A80003B33326D5B256C6C645D1B5B306D201BF2
:100A90005B323B34303B33336D2573282564291B8F
:100AA0005B306D3A200000001B5B313B34303B3340
:100AB000316D4552524F521B5B306D2000000000DB
:100AC000486172644661756C74200D0A0000000074
:100AD00080FC0A0038B500242CE004EB4401174ADE
:100AE00052F82100012100F03BF804EB44001349C7
:100AF00001EB80008088ADF8000003208DF8020033
:100B000010208DF8030004EB44010C4A02EB810134
:100B100088686946FFF7F7FE04EB4402074B03EBD6
:100B20008202918804EB440203EB82029068FFF793
:100B30007EFF641C012CD0DB38BD0000300000209B
:100B400000BFFEE77047000002490143024A1160FE
:100B5000704700000000FA050CED00E0704700004F
:100B600029B1064A92690243044B9A6104E0034AA0
:100B700092698243014B9A61704700000010024065
:100B800030B500210022002400232D4D6D6805F0B2
:100B90000C0121B1042905D0082923D105E0294DF4
:100BA000056022E0274D05601FE0254D6D6805F4C6
:100BB0007012234D6D6805F48034022505EB9242D6
:100BC0001CB9214D554305600BE01D4D6D6805F4C2
:100BD00000351DB11C4D5543056002E0194D5543CC
:100BE000056002E0174D056000BF00BF144D6D6841
:100BF00005F0F0010909154D6B5C0568DD404560A5
:100C00000F4D6D6805F4E061090A104D6B5C456895
:100C1000DD4085600A4D6D6805F46051C90A0B4DD1
:100C20006B5C4568DD40C560054D6D6805F440416D
:100C3000890B074D6B5CC568B5FBF3F5056130BDED
:100C40000010024000127A0000093D00140000204C
:100C50002400002008B501210820FFF781FF4FF490
:100C60008070ADF8000003208DF8020010208DF890
:100C7000030069460E48FFF746FE4FF480710C48AA
:100C8000FFF7D7FE4FF4E150FFF769FD4FF4807195
:100C90000748FFF7CCFE0748FFF761FD4FF480716E
:100CA0000348FFF7C6FE0448FFF759FD08BD0000E2
:100CB000000C0140401901008097060021B1028814
:100CC00042F04002028004E002884FF6BF731A40EF
:100CD0000280704708B5E020ADF8000003208DF8D1
:100CE000020018208DF8030069460948FFF70BFE43
:100CF0001420ADF8000010208DF803006946044868
:100D0000FFF701FE14210248FFF793FE08BD000023
:100D1000000801400246002013890B400BB101205E
:100D200000E0002070470146888970478181704744
:100D300010B50022028802F441520B884C882343EC
:100D40008C882343CC8823430C8923434C89234339
:100D50008C892343CC8923431A430280838B4FF22F
:100D6000FF74234083830B8A038210BD10B50121D9
:100D70000420FFF7F5FE01210803FFF7F1FE10BD87
:100D800021B1828842F00402828004E082884FF61A
:100D9000FB731A4082807047704710B502F0D4FE92
:100DA000FFF758FF10BD000010B5044604F1240001
:100DB00004F5C67444F8F80C00202073E08101208B
:100DC0002077002020622085A4F5C6741C220849E3
:100DD00004F10800FFF7B8F9012084F8D00184F885
:100DE000D101002084F8D20184F8D30110BD0000A5
:100DF0003C00002070B504460E461546B4F89A0132
:100E000028800020A4F89A012A8804F1980130462D
:100E1000FFF79AF970BD000010B50446D4F8B80188
:100E200080470121204600F0C6FD002084F898018B
:100E3000204600F077FD4FF4E47003596F2204F16F
:100E40002501012098472020D4F8941008734FF40E
:100E5000E27003596F2204F12501012098472046D2
:100E6000A16800F0FBFEA17B204600F0C3FFE17B00
:100E7000204600F063FD217C204600F0BDFE617B32
:100E8000204600F09AFF617C204600F076FD40F29B
:100E9000FF31204600F0DDFF2020015D204600F0FC
:100EA000CAFE0121204600F0EBFD1449A0688842EB
:100EB0000FD90021204600F04FFE0021204600F00F
:100EC00068FE0E21217394F90C10204600F0F2FE0A
:100ED0000EE08021204600F03FFE0121204600F078
:100EE00058FE1421217394F90C10204600F0E2FE04
:100EF0000121204600F005FE10BD0000008F4233A6
:100F000031B58AB0012008900A9890F898010B2812
:100F10007ED2DFE800F00607B0FDFCFBFAF97DF8B1
:100F2000F70017E301210A9800F0EBFD9D210A98D4
:100F3000D0F8940041740A98D0F89400407C07904F
:100F40000A98D0F8BC0106901120DDE906219047EF
:100F50000A98C07C012829D10A98017DD0F8940014
:100F600080F824100A98D0F894001C3007900A9852
:100F7000D0F8C00106901C20DDE9062190470A98B0
:100F8000D0F89400007F00F03F0006900A980068B7
:100F900005900A9840680490DDE90420069990477E
:100FA000014607900A9800F059FE05E0FF210A98D3
:100FB000D0F8940080F824100A98D0F8940090F8A3
:100FC000240007900A98D0F8BC0106902420DDE99F
:100FD0000621904700210A98D0F8940080F83D102F
:100FE0000A98D0F8940080F83E100A98D0F894003F
:100FF0003D3007900A98D0F8C401022206904020A4
:10100000DDE9063198470A98807C012806D100E086
:10101000FEE306210A9800F074FD18E00A98D0F863
:101020009400C17B0A98D0F8940041730A98D0F8D4
:101030009400407B07900A98D0F8BC0106900D20E0
:10104000DDE90621904705210A9800F05AFD4FF48A
:1010500080710A989830FFF790F80A98C169C0F833
:10106000B011FE4800680A99C1F8AC0102210A9843
:1010700080F898116EE20A98D0F8CC0107901220FF
:101080000799884700F04000B8B3F44800680A990F
:10109000C1F8AC010A98C07C012822D10A98D0F886
:1010A00094001C3007900A98D0F8C00106901C20CC
:1010B000DDE9062190470A98D0F89400007F00F0FF
:1010C0003F0006900A98006805900A9840680490CE
:1010D000DDE9042006999047014607900A9800F040
:1010E000BDFD0A98D0F8BC01402107901220079A54
:1010F000904703210A9880F898110A98D0F8CC01FB
:10110000079006E08FE354E348E3F7E22AE222E2A5
:1011100058E012200799884700F00200C8B3CF4872
:1011200000680A99C1F8AC010A98C07C012822D154
:101130000A98D0F894001C3007900A98D0F8C001A3
:1011400006901C20DDE9062190470A98D0F894000B
:10115000007F00F03F0006900A98006805900A980A
:1011600040680490DDE90420069990470146079005
:101170000A9800F073FD0A98D0F8BC01022107908C
:101180001220079A90470A9800F0BCFB0A9981F850
:10119000A8010A98807C012813D10A980023D0F86E
:1011A000AC21D0F8B011AD48D0E90040A41A60EBF2
:1011B0000300091B73EB000203D204210A9880F894
:1011C000981166E30A98D0F89400123007900A98B4
:1011D000D0F8C00106901220DDE9062190470A9858
:1011E000D0F89400807C00F02000202815D10A98C7
:1011F000D0F8BC01202107901220079A90470A9846
:10120000807C012804D101210A9880F8981103E01C
:1012100002210A9880F898113BE30A98D0F8C0019F
:1012200007A906901920069A90479DF81C0000F027
:10123000800088B19DF81C00C043401CC0F38501AC
:101240000A9880F89C110A9890F89C01404241B29B
:101250000A9880F89C1105E09DF81C0081080A9806
:1012600080F89C110A98D0F894001A3007900A98D8
:10127000D0F8C00106901A20DDE9062190470A98AF
:101280008068774988423CD20A9890F99C010028EE
:101290001FDA0A9890F99C010390FFF70EF9CDE947
:1012A00006010A98D0F89400807E0190FFF716F9A5
:1012B00000226C4BCDE90201FEF777FFCDE9040176
:1012C000DDE90623FEF771FF0A9A02F5D07203C228
:1012D00053E00A98D0F89400807E0390FFF7FEF860
:1012E000614A624BCDE90401FFF706F800225D4B2D
:1012F000CDE90601FEF759FF0A9A02F5D07203C242
:101300003BE00A9890F99C0100281FDA0A9890F9AE
:101310009C010390FFF7D1F8CDE906010A98D0F8B7
:101320009400807E0190FFF7D9F80022504BCDE960
:101330000201FEF73AFFCDE90401DDE90623FEF7DD
:1013400034FF0A9A02F5D07203C216E00A98D0F868
:101350009400807E0390FFF7C1F8434A434BCDE9E8
:101360000401FEF7C9FF0022414BCDE90601FEF75B
:101370001CFF0A9A02F5D07203C20A98807C0128E9
:1013800055D10A98D0F89400C17B0A98D0F89400FF
:1013900041730A98D0F89400407B07900A98D0F8DF
:1013A000BC0106900D20DDE9062190470A98407C9B
:1013B000012818D10A98D0F8940090F822100A98C1
:1013C000A0F89A110A98D0F8940090F8220007909B
:1013D0000A98D0F8C80106900A9998310020DDE9F2
:1013E00006329847A7E00A98D0F894001330079087
:1013F0000A98D0F8C00106901320DDE90621904735
:101400000A98D0F89400C17C0A98A0F89A110A981A
:10141000D0F89400C07C07900A98D0F8C8010690D4
:101420000A9998310020DDE90632984783E00A984E
:10143000D0F89400103007900A98D0F8C0010690B8
:101440001020DDE9062190470A98407C01283AD116
:101450000A98D0F8940090F822100BE028000020A1
:10146000008F4233008064C01B9E5E29CB10F13F89
:1014700000A063C00A98A0F89A110A98D0F89400C6
:10148000017C0A98D0F8940041730A98D0F894002F
:10149000407B07900A98D0F8BC0106900D20DDE94A
:1014A000062190470A98D0F8940090F822000790FF
:1014B0000A98D0F8C80106900A9998310020DDE911
:1014C0000632984737E00A98D0F894001330079016
:1014D0000A98D0F8C00106901320DDE90621904754
:1014E0000A98D0F89400C17C0A98A0F89A110A983A
:1014F000D0F89400017C0A98D0F8940041730A98BF
:10150000D0F89400407B07900A98D0F8BC01069070
:101510000D20DDE9062190470A98D0F89400C07CA0
:1015200007900A98D0F8C80106900A9998310020CF
:10153000DDE9063298470A98807C012804D1012110
:101540000A9880F8981103E002210A9880F898110F
:10155000022008909DE101210A9880F8981103204B
:10156000089096E101210A9800F0CBFA0A98C07C15
:1015700001282ED1F5210A98D0F8940041740A98D8
:10158000017DD0F8940080F824100A98D0F89400D7
:101590001C3007900A98D0F8C00106901C20DDE9A5
:1015A000062190470A98D0F89400007F00F03F0091
:1015B00006900A98006805900A9840680490DDE952
:1015C000042006999047014607900A9800F046FBD0
:1015D0000AE0F7210A98D0F89400417400210A9893
:1015E000D0F8940080F824100A98D0F8940090F86D
:1015F000240007900A98D0F8BC0106902420DDE969
:10160000062190470A98D0F89400407C07900A98E9
:10161000D0F8BC0106901120DDE9062190470A9818
:1016200090F8B411D0F8940080F822100A98D0F8FD
:10163000940090F8220007900A98D0F8BC01069018
:101640002220DDE90621904700210A98D0F8940075
:1016500081730A98D0F89400807B07900A98D0F89C
:10166000BC0106900E20DDE9062190470A98D0F8CB
:101670009400817B0A98D0F8940041730A98D0F8BE
:101680009400407B07900A98D0F8BC0106900D208A
:10169000DDE9062190470A98D0F8940090F82200DE
:1016A00007900A98D0F8C40106900A999831002052
:1016B000DDE90632984741210A98D0F8940080F875
:1016C0003D1040210A98D0F8940080F83E100A9806
:1016D000D0F894003D3007900A98D0F8C401022257
:1016E00006904020DDE90631984703210A9800F072
:1016F00008FA06210A9880F89811CAE00A98D0F8EA
:10170000CC01079012200799884700F0080058B1D3
:101710000A98D0F8BC01082107901220079A904738
:1017200007210A9880F898110A98D0F8CC01079000
:1017300012200799884700F0020070B30A98C07C15
:10174000012822D10A98D0F894001C3007900A98FA
:10175000D0F8C00106901C20DDE9062190470A98C8
:10176000D0F89400007F00F03F0006900A980068CF
:1017700005900A9840680490DDE904200699904796
:10178000014607900A9800F069FA0A98D0F8BC015F
:10179000022107901220079A90477AE001210A98C7
:1017A00000F0AFF900210A9880F898110420089001
:1017B0006FE001210A9800F0A4F9FA210A98D0F804
:1017C000940041740A98D0F89400407C07900A98DD
:1017D000D0F8BC0106901120DDE9062190470021D8
:1017E0000A98D0F8940080F83D100A98D0F8940038
:1017F00080F83E100A98D0F894003D3007900A987F
:10180000D0F8C401022206904020DDE9063100E054
:101810003EE0984707210A9800F073F90A210A98D8
:1018200080F8981135E00A98D0F8CC010790122082
:101830000799884700F0040010B30A98D0F8BC015B
:10184000042107901220079A90470A98D0F8CC01FB
:10185000079012200799884700F0010088B10FA077
:1018600000F012FD0A98D0F8BC0101210790122067
:10187000079A904701210A9880F89811082008904B
:1018800005E000210A9880F898110720089000E0F0
:1018900000BF00BF08980BB030BD0000434144209A
:1018A00044657465637465640D0A000070B5044690
:1018B000D4F8940000F11B014FF4E07002591B2092
:1018C00090470D49A06888420AD2D4F89410C87E87
:1018D000FEF704FE05460022084BFEF766FC70BDCD
:1018E000D4F89410C87EFEF7F9FD05460022044B9B
:1018F000FEF75BFCF3E70000008F4233008064C01A
:1019000000A063C010B50446D4F8940000F10C01A7
:101910004FF4E07002590C209047D4F89400007BFB
:10192000400910BD10B50446D4F8940000F13F0101
:101930004FF4E07002594220904710BD70B5044644
:101940000D46D4F8940000F11D014FF4E0700259E7
:101950001D20904754F8940F407F00F0F10040EABA
:1019600045002168487754F89409417F4FF4DE70B0
:1019700002591D209047E57370BD70B504460D46B1
:10198000D4F8940000F11D014FF4E07002591D20BD
:10199000904754F8940F407F00F0FE0028432168E0
:1019A000487754F89409417F4FF4DE7002591D20A6
:1019B0009047657470BD70B504460D4694F8D30128
:1019C000A84200D170BD84F8D35184F8D25194F864
:1019D000D201012833D10021204600F092F854F8BA
:1019E000940F407800F07F0040F08000216848703C
:1019F00054F8940941784FF4DE7002590120904761
:101A00000121204600F07DF8002054F8941F81F851
:101A10003D00216881F83E0054F8940900F13D0131
:101A20004FF4E27003590222402098474FF4E470CB
:101A300003596F2204F12501012098471EE000217F
:101A4000204600F05EF854F8940F407800F07F00D4
:101A50002168487054F8940941784FF4DE700259B7
:101A6000012090470121204600F04BF84FF4E4702C
:101A700003596F2204F125010120984700BFA1E717
:101A800070B504460D46D4F8940000F126014FF4D9
:101A9000E07002592620904754F8940F90F82600E1
:101AA00000F0F70040EAC500216881F8260054F8EC
:101AB000940990F826104FF4DE70025926209047C2
:101AC00070BD70B504460D46D4F8940000F13001A5
:101AD0004FF4E07002593120904754F8940F90F879
:101AE000300000F0F8002843216881F8300054F8F5
:101AF000940990F830104FF4DE700259312090476D
:101B000070BD70B504460D460026D4F894004078A8
:101B100020F0F80084F8D00194F8D001A8421AD03F
:101B2000032D01D1012600E0002694F8D101B04236
:101B300001D084F8D16154F8940F407800F0F80097
:101B400028432168487054F8940941784FF4DE70B6
:101B500002590120904770BD70B504460D46D4F877
:101B6000940000F109014FF4E070025909209047F8
:101B700054F8940F407A00F07F002843216848729F
:101B800054F89409417A4FF4DE70025909209047C5
:101B900070BD70B504460D46D4F8940000F14901BB
:101BA0004FF4E07002594D209047D4F8940000F1B2
:101BB00009014FF4E070025909209047D4F89400CD
:101BC000407A00F08000802807D1012D0AD18720BB
:101BD000D4F8941081F8490004E08420D4F89410DB
:101BE00081F84900D4F8940090F849104FF4DE7061
:101BF00002594D20904770BD70B504460D46D4F88B
:101C0000940000F11E014FF4E07002591E2090472D
:101C100054F8940F807F00F0FB0040EA85002168B3
:101C2000887754F89409817F4FF4DE7002591E20A2
:101C30009047257470BD70B504460D46D4F89400E5
:101C400080F82250D4F8940090F822104FF4DE70FF
:101C50000259222090472020055570BD2DE9F047FC
:101C600004468946183444F8109C4846FEF736FC72
:101C7000074600220E4BFEF7B1FB0546FEF73BFC84
:101C800081464FEA1940E16F88714FEA1920E16FF0
:101C9000C871E16F81F80890E06F183C811D4FF426
:101CA000E2700359032206209847BDE8F087000040
:101CB00080844E4070B504460D46D4F8940000F17F
:101CC00009014FF4E070025909209047D4F89400BC
:101CD00000F149014FF4E07002594D209047D4F8CB
:101CE0009400407A00F0800080283DD1D4F8940020
:101CF00090F8490000F0870087281AD1052D00DAF6
:101D00000525142D00DD142554F8940F407A00F0B9
:101D10008F0040F07000216848722068407A00F01F
:101D2000F000691F01F00F01084354F8941948723C
:101D300036E0022D00DA0225112D00DD112554F8C0
:101D4000940F407A00F08F0040F0700021684872D4
:101D50002068407A00F0F000A91E01F00F0108434E
:101D600054F8941948721BE0B5F1FF3F01DA4FF0C7
:101D7000FF350E2D00DD0E2554F8940F407A00F04B
:101D80008F0040F07000216848722068407A00F0AF
:101D9000F000691C01F00F01084354F894194872CF
:101DA000D4F89400417A4FF4DE700259092090472C
:101DB000257370BD80F89811704770B504460D46C4
:101DC000D4F8940000F11D014FF4E07002591D2079
:101DD000904754F8940F407F65F31F1021684877AF
:101DE00054F89409417F4FF4DE7002591D2090474A
:101DF000657370BD70B504460D460C2D01DD0C25D4
:101E000002E0062D00DA0625062D04D10521204624
:101E1000FFF757FE03E003212046FFF752FED4F8F8
:101E2000940000F11E014FF4E07002591E2090470B
:101E300054F8940F807F65F31F102168887754F859
:101E40009409817F4FF4DE7002591E209047A573DC
:101E500070BD70B504460D46D4F8940000F11E0123
:101E60004FF4E470035902221E20984754F8940F4F
:101E7000807F00F0FC006FF0FC0101EA252108439F
:101E8000216888772168CD7754F8940900F11E0104
:101E90004FF4E270035902221E20984770BD70B5BE
:101EA00004460E461546A4F8B451B4F8B4213146A0
:101EB00004F19800FEF748F9052084F8980170BDF8
:101EC00000B5024601211046FFF774FF00BD70B552
:101ED00004460D4601222946204600F001F870BD57
:101EE0002DE9F04105460E46174601F025FE05F0A6
:101EF0007F0000F0A3F8002405E0002000F09EF829
:101F00003055601CC4B2BC42F7DB01F00DFEBDE8E9
:101F1000F08113B50446012201A9204600F001F822
:101F20001CBD2DE9F04105460E46174601F004FEA2
:101F300045F0800000F082F8002404E0305D00F0FD
:101F40007DF8601CC4B2BC42F8DB01F0EDFDBDE8D9
:101F5000F08110B500F002F810BD00000CB50020B3
:101F6000019000903348006840F4803031490860A7
:101F700000BF3048006800F4003000900198401C19
:101F80000190009818B90198B0F5A06FF1D12948D7
:101F9000006800F4003010B10120009001E0002042
:101FA00000900098012843D12348006840F01000B9
:101FB000214908600846006820F0030008600846D0
:101FC000006840F0020008601A48406819494860FB
:101FD0000846406848600846406840F480604860B1
:101FE0000846406820F47C1048600846406840F489
:101FF000E81048600846006840F08070086000BF44
:102000000C48006800F000700028F9D009484068CA
:1020100020F00300074948600846406840F002008D
:10202000486000BF0348406800F00C000828F9D160
:102030000CBD0000001002400020024010B5044614
:1020400021460748FEF772FE00BF01210448FEF753
:1020500061FE0028F9D00248FEF765FEC0B210BD4F
:10206000003001400448D0E900305A1C40F1000023
:102070000149C1E9002070472800002010B513482D
:10208000006840F0010011490860084640681049A6
:1020900008400E494860084600680E4908400B4950
:1020A00008600846006820F4802008600846406800
:1020B00020F4FE0048604FF41F008860FFF749FFDE
:1020C0004FF000600449086010BD0000001002409D
:1020D0000000FFF8FFFFF6FE08ED00E000B585B058
:1020E000012144F20400FEF73BFD4FF40070ADF80F
:1020F000100018208DF8130003208DF8120004A999
:102100001548FEF700FC4FF48060ADF81000042085
:102110008DF8130004A91048FEF7F5FB4FF4E130E9
:1021200000900020ADF80400ADF80600ADF80800FE
:10213000ADF80C000C20ADF80A006946074800F025
:1021400031F80121054800F014F84021034800F05F
:1021500007F805B000BD000000080140003801404C
:1021600001F40072B2F5007F00D100BFCA430280C3
:10217000704721B1828942F40052828104E0828951
:102180004DF6FF731A408281704702460020B1F578
:10219000007F00D100BF13880B400BB1012000E08D
:1021A000002070472DE9F04786B005460E46002412
:1021B000A24600BFA1460027B08900B100BF2F464C
:1021C0002C8A4CF6FF700440F08804432C82AC89C2
:1021D0004EF6F3100440B0883189084371890843F2
:1021E0000443AC81AC8A4FF6FF400440B0890443FD
:1021F000AC8201A8FEF7C4FC1F48874202D1DDF87B
:1022000010A001E0DDF80CA0A88900F4004040B166
:102210000AEBCA0000EB0A1031684900B0FBF1F884
:1022200007E00AEBCA0000EB0A1031688900B0FB36
:10223000F1F86420B8FBF0F004012009642101FBEF
:102240001089A88900F4004040B1322000EBC90099
:10225000B0FBF1F000F00700044308E0322000EB8F
:1022600009106421B0FBF1F000F00F0004432C8151
:1022700006B0BDE8F087000000380140C1F3080255
:102280008280704700BFFEE70FB4054B10B503A96D
:10229000044A029800F0CAF810BC5DF814FB000074
:1022A0005D2B00086000002002E008C8121F08C172
:1022B000002AFAD170477047002001E001C1121FC7
:1022C000002AFBD1704700002DE9FF5FDDE9022005
:1022D000010DDDF838B0024318D044F61050A1F2D9
:1022E000FF3141430D140F98012820D0A5EB0B00BE
:1022F000401C5FEA000A4FF00004474EDFF81C91D3
:10230000A046504616D5CAF1000728E00F980124D0
:1023100043A2012808D0002100980F9BC0E90021AA
:10232000C0E90243BDE8FF9F6FEA0B01F4E7CBF180
:102330000000DEE7074612E0F80707D022463346E2
:1023400040464946FDF7D8FF804689462246334637
:1023500010461946FDF7D0FF04460E467F10002FA9
:10236000EAD1DDE90201BAF1000F42464B4602DA3A
:10237000FDF7C2FF01E0FEF731F804460E460022E9
:10238000284BFEF7BFF903D84FF0FF30014607E0B6
:102390000022254B20463146FDF707FFFEF799F94D
:1023A000102409E0002C0ADB0A220023FEF7D2F8F1
:1023B000019B30321A55641E50EA0102F2D1641CAE
:1023C000019AC4F1110314440F9A012A03D0012287
:1023D00008430DD10AE0084304D000204FF0110B50
:1023E0000F9080E7A3EB0B056D1E0DE05B4504DD50
:1023F0004FF0000205F1010504E003DA4FF000029E
:10240000A5F10105002AECD000980F99C0E902312E
:10241000C0E9004586E70000000024400000F03FCE
:10242000300000000000F0430000E03F2DE9FF4FC6
:1024300095B09B468946064600250FE2252877D1B0
:1024400000242746F84A0121059400E0044316F8C9
:10245000013F203B01FA03F01042F7D130782A28DF
:1024600011D06FF02F033078A0F13002092A16D86E
:10247000059A44F0020402EB820203EB420210448C
:10248000761C0590EFE759F8042B0592002A03DA31
:10249000504244F40054059044F00204761C307815
:1024A0002E2816D116F8010F44F004042A280DD066
:1024B0006FF02F023078A0F13003092B09D807EB19
:1024C000870302EB4303C718761CF3E759F8047B34
:1024D000761C30786C280FD006DC4C2817D0682882
:1024E0000DD06A2814D104E0742810D07A280FD1B6
:1024F0000DE044F400140AE044F4801401E044F4D4
:1025000040147278824202D104F58014761C761C45
:10251000307866280BD013DC582877D009DC0028E7
:1025200075D04528F6D04628F4D047281AD19DE129
:1025300018E0632835D0642879D0652812D195E158
:10254000702873D008DC6728F1D069286FD06E2816
:102550000DD06F2806D1B5E073282CD0752875D022
:10256000782874D05A46179990476D1C75E1C4F3CA
:102570000250022809D003280DD0D9F800100428F1
:102580000DD00D6009F1040967E1D9F80010EA17D0
:10259000C1E90052F6E7D9F800100D80F2E70D709E
:1025A000F0E719F8041B8DF8001000208DF80100E9
:1025B000EA46012003E059F804AB4FF0FF30610711
:1025C0004FF0000102D40DE008F101018846B94244
:1025D0000FDA8045F8DB1AF808100029F4D108E07A
:1025E00008F1010188468142FADB1AF80810002937
:1025F000F6D105985B46A0EB080721463846179AA6
:1026000000F094FA284400EB080507E04DE029E1CA
:102610000DE01AF8010B5A4617999047B8F10108D6
:10262000F7D25B4621463846179A13E142E00A2268
:102630000092C4F302524FF0000A022A08D059F85F
:1026400004CB032A4FEAEC710AD00DE029E02AE01E
:1026500009F1070121F00702F2E802C1914609E001
:102660000FFA8CFC4FEAEC71042A03D14FFA8CFC70
:102670004FEAEC71002907DA0A460021DCF1000C70
:1026800061EB02012D2202E0220504D52B228DF8F8
:102690000420012203E0E20701D02022F7E7904660
:1026A00059E00A2102E010220DE010214FF0000A4B
:1026B00000910BE010224FF0000A44F004040827B8
:1026C000009203E008224FF0000A0092C4F3025285
:1026D000022A05D059F804CB0021032A08D009E0CA
:1026E00009F1070121F00702F2E802C1914605E075
:1026F0001FFA8CFC042A01D10CF0FF0C4FF00008EB
:10270000220728D5702806D0009B83F0100353EAD7
:102710000A0305D00EE040228DF80420012208E0D3
:102720005CEA010206D030228DF804208DF8050005
:1027300002229046009B83F0080353EA0A030AD161
:102740005CEA010201D1620705D530228DF8042030
:102750004FF001087F1E582804D034A003900EA823
:1027600002900DE036A0F9E753466046009AFDF767
:10277000F1FE84460398825C0298401E029002702B
:102780005CEA0100F0D1029806A9081A00F1200ABB
:10279000600702D524F4803400E00127574502DDAC
:1027A000A7EB0A0000E0002000EB0A01009005986A
:1027B0004144401A0590E00306D45B462146179A2F
:1027C000059800F0B3F90544002706E001A85A4631
:1027D000C05D179990476D1C7F1C4745F6DBE003F1
:1027E0000CD55B462146179A059800F09FF90544E1
:1027F00004E030205A46179990476D1C0099481EF6
:1028000000900029F5DC08E0029802995A46007809
:10281000491C0291179990476D1CBAF10001AAF169
:10282000010AF1DC65E10000092801003031323392
:1028300034353637383961626364656600000000FC
:1028400030313233343536373839414243444546E6
:102850000000000000F058F90544761C307800288C
:102860007FF4ECAD19B02846BDE8F08F620700D4C4
:10287000062709F1070222F0070CFCE80223E146D3
:1028800003F000485FEA080C02D00FF2702C0DE054
:102890005FEA045C02D50FF2682C07E05FEAC47CB3
:1028A00002D00FF2602C01E0AFF2700C4FF0FF3855
:1028B00023F00043CDF850C065280CD006DC452835
:1028C00009D046281DD047283DD13DE0662818D0C4
:1028D00067287ED138E00021112F01DB112000E0B4
:1028E000781CCDE9000106A90EA8FFF7EDFCDDE993
:1028F0000F010E9A03910021009207F1010A049141
:102900004DE04FF000400097CDE9011006A90EA858
:10291000FFF7DAFCDDE90F0203920E9B119900220A
:10292000DDF80CA00093049211B9791C00EB010AA8
:10293000B7EB0A0004D4C0F1FF3007F1010A04909C
:10294000AAEB0700019044E0012F00DA01270021E3
:10295000112F01DD112000E03846CDE9000106A964
:102960000EA8FFF7B1FCDDE90F010E9A03910021DB
:1029700004910092BA4621070CD40399514500DA1C
:102980008A46BAF1010F05DD009AAAF10101515CF6
:10299000302908D0B84202DA10F1040F06DA01211A
:1029A000CDE9011015E0AAF10101E9E7002805DCF5
:1029B000049901440491AAEB000102E0411C514535
:1029C00000DD8A460499401A401C01904FF00040F7
:1029D0000290200704D40198504501DBCDF8048013
:1029E00000208DF84F0002980DF14F07B0F1004F15
:1029F00025D02B200E9002984FF0020800280CDA08
:102A0000404202902D200E9007E00A210298FDF727
:102A10008BFD3031029007F8011DB8F10001A8F1DB
:102A20000108F2DC02980028EFD1791E0E98087098
:102A3000307800F0200040F0450007F8020D12A8A1
:102A4000C01B00F107081498007800B1012000EBCA
:102A50000A01019801EBE07105984144401A401EBB
:102A60000590E00306D45B462146179A059800F0CE
:102A70005DF805441498007818B15A4617999047A4
:102A80006D1CE00324D55B462146179A059800F09B
:102A90004DF805441CE00498002807DBDDE903013C
:102AA000884203DD0098405C179901E017993020B7
:102AB0005A469047049805F10105401C049001987E
:102AC000401E019004D12E205A46179990476D1C44
:102AD000BAF10001AAF1010ADDDC05E017F8010BEB
:102AE0005A46179990476D1CB8F10001A8F10108EA
:102AF000F4DC5B462146179A0598ABE62D000000F2
:102B00002B000000200000002DE9F04104460025C4
:102B10001E461746880404D405E039462020B047F5
:102B20006D1C641EF9D52846BDE8F0812DE9F04101
:102B3000044600251E469046C80301D5302700E014
:102B40002027880404D505E041463846B0476D1C6F
:102B5000641EF9D52846BDE8F081000070B5044632
:102B60000D46E1B20548FFF789FB00BF402103484D
:102B7000FFF70BFB0128F9D1204670BD003801405A
:102B800070B5044604EB44020F4B03EB82029188BC
:102B900004EB440203EB82029068FDF73FFF08B9A3
:102BA000012000E00020054604EB4402064B03EB45
:102BB0008202918804EB440203EB820290682A4669
:102BC000FDF739FF70BD00003000002010B5FDF7A3
:102BD00081FF10BD2DE9FE4F04468A4693466E489C
:102BE0000568A17D04F10800FFF704F9E17D04F117
:102BF0000800FEF7A3FE617D04F10800FFF7DDF891
:102C00006648007820F00F00644908700846007894
:102C100020F0700008700846007820F080008030B6
:102C20000870481CDAF800100160DAF804104160FE
:102C3000DAF8081081600D22411E204600F0ECFCFD
:102C400002900298002810DA40F23F105449CDE972
:102C5000001051480CC853A0FFF716FB5CA0FFF70B
:102C600013FB61A0FFF710FB0CE040F241104C4950
:102C7000CDE9001048480CC84AA0FFF705FB66A044
:102C8000FFF702FB4549204600F00CFC8146B9F1F4
:102C9000000F11DA4FF4A3704149CDE900103E480E
:102CA0000CC840A0FFF7F0FA65A0FFF7EDFA69A0A5
:102CB000A168FFF7E9FA6DE03848007800F00F00EE
:102CC00000284CD135480078C009002847D1334846
:102CD0000078C0F30210002841D1B9F1190F3ED19C
:102CE0000C222E49491C5046FDF752FA002836D1D5
:102CF0002A48401CC168CBF800100169CBF80410C9
:102D00004069CBF808004FF4A6702549CDE90010C2
:102D100021480CC823A0FFF7B7FA53A0FFF7B4FA75
:102D200001220C21584600F095FB4FF4A7701C4976
:102D3000CDE9001018480CC81AA0FFF7A5FA04F155
:102D40000800FEF7B3FD07460B4613480068411B19
:102D50003A4647A0FFF798FA4846BDE8FE8F40F292
:102D600053100F49CDE900100B480CC80DA0FFF718
:102D70008BFA33A0FFF788FA08480078C3090748A0
:102D80000078C0F302120548007800F00F013EA061
:102D9000FFF77AFA0020E0E7280000206400002016
:102DA000F43C00081B5B34303B33326D5B256C6CAC
:102DB000645D1B5B306D201B5B323B34303B333337
:102DC0006D2573282564291B5B306D3A20000000B7
:102DD0001B5B313B34303B33316D4552524F521BFC
:102DE0005B306D200000000053656E64204241534B
:102DF000455F53544154494F4E5F42494E44494EFA
:102E00004720746F204741544557415920666169F6
:102E10006C6564200D0A000053656E6420424153C6
:102E2000455F53544154494F4E5F42494E44494EC9
:102E30004720746F2047415445574159200D0A00DF
:102E40001B5B313B34303B33336D5741524E1B5B80
:102E5000306D200054696D656F7574207573652041
:102E600025640D0A00000000474D4143203D20002D
:102E700054494D45203D202564206D7320527373C5
:102E8000693A2025660D0A0020466C61675F766509
:102E90007273696F6E203D2025642C20466C61673B
:102EA0005F74797065203D2025642C20466C616735
:102EB0005F646972656374696F6E203D20256420CC
:102EC0000D0A00002DE9FC4E0446894692461D4637
:102ED00090480768A17D04F10800FEF78BFFE17DB3
:102EE00004F10800FEF72AFD617D04F10800FEF7F9
:102EF00064FF8948007820F00F0087490870084671
:102F0000007820F07000103008700846007820F03B
:102F1000800080300870481CD9F800100160D9F892
:102F200004104160D9F808108160DAF80010C1601F
:102F3000DAF804100161DAF8081041611922411E23
:102F4000204600F069FB8346BBF1000F10DA40F227
:102F50000B107249CDE900106E480CC870A0FFF745
:102F600093F97AA0FFF790F97EA0FFF78DF90CE0B6
:102F700040F20D106949CDE9001066480CC868A000
:102F8000FFF782F982A0FFF77FF96349204600F03E
:102F900089FA0646002E11DA4FF489705F49CDE9AF
:102FA00000105C480CC85EA0FFF76EF981A0FFF727
:102FB0006BF985A0A168FFF767F9A8E0564800788B
:102FC00000F00F0000287DD153480078C009002888
:102FD000F9D151480078C0F3021001287CD1132E9A
:102FE0007AD10C224C49491C4846FDF7D1F80028FB
:102FF00072D14948407B01064748807B41EA004145
:103000004548C07B41EA00204349097C08432861C8
:103010004148407C000968753F48407C00F00F0043
:1030200028753D48807C4011A87540F21D103B4931
:10303000CDE9001037480CC839A0FFF725F967A083
:103040002969FFF721F94FF48F703449CDE9001059
:1030500030480CC832A0FFF717F9297D63A0FFF7AD
:1030600013F940F21F102D49CDE9001029480CC872
:103070002BA0FFF709F9697D5FA0FFF705F94FF471
:1030800090702649CDE9001022480CC824A0FFF713
:10309000FBF82148827CA97D5AA0FFF7F5F840F2A1
:1030A00021101E49CDE900101A480CC81CA0FFF7DA
:1030B000EBF804F10800FEF7F9FBCDE90001154833
:1030C000006800E008E0C11B53A0DDE90023FFF722
:1030D000DBF8B01EBDE8FC8E4FF493700F49CDE9CC
:1030E00000100C480CC80EA0FFF7CEF831A0FFF777
:1030F000CBF809480078C30907480078C0F30212EA
:103100000548007800F00F014AA0FFF7BDF8002045
:10311000E0E700002800002064000020DB3C0008FD
:103120001B5B34303B33326D5B256C6C645D1B5B29
:10313000306D201B5B323B34303B33336D257328BD
:103140002564291B5B306D3A200000001B5B313B7E
:1031500034303B33316D4552524F521B5B306D2042
:103160000000000053656E64204E4554574F524B8B
:103170005F5245515545535420746F204741544583
:10318000574159206661696C6564200D0A00000092
:1031900053656E64204E4554574F524B5F52455114
:1031A0005545535420746F20474154455741592089
:1031B0000D0A00001B5B313B34303B33336D57410C
:1031C000524E1B5B306D200054696D656F75742025
:1031D0007573652025640D0A0000000020536565A5
:1031E00064203D202564200D0A0000002042772045
:1031F0003D202564200D0A00205366203D202564D3
:10320000200D0A00204563203D202564202D202527
:103210003032780D0A0000002054494D45203D20F1
:103220002564206D7320527373693A2025660D0A58
:103230000000000020466C61675F76657273696FFD
:103240006E203D2025642C20466C61675F74797088
:1032500065203D2025642C20466C61675F6469729F
:10326000656374696F6E203D202564200D0A00009F
:103270004B7D83750B7D43758B7DC3750A698260B9
:10328000704700002DE9FC4104460F461546A17D1C
:1032900004F10800FEF7AEFDE17D04F10800FEF741
:1032A0004DFB617D04F10800FEF787FD3C49204697
:1032B00000F0F8F80646002E10DAE1203949CDE991
:1032C000001039480CC839A0FEF7DEFF42A0FEF717
:1032D000DBFF46A0A168FEF7D7FF5EE0304800782C
:1032E00000F00F0000283ED12D480078C0090028CA
:1032F00039D12B480078C0F30210022833D1E620E0
:103300002849CDE9001028480CC828A0FEF7BCFFCA
:103310003BA0FEF7B9FF701EC1B201222048401C3D
:1033200000F098F81E48007820F00F001C49087043
:103330000846007820F070002030087008460078B9
:1033400020F08000803008702A4639461448401C1E
:10335000FCF7FAFE681CC2B21149204600F05CF985
:103360002846BDE8FC81F2200E49CDE900100E4848
:103370000CC80EA0FEF788FF17A0FEF785FF0848CF
:103380000078C30906480078C0F3021204480078A8
:1033900000F00F0120A0FEF777FF0020E1E700001A
:1033A00064000020C83C0008280000201B5B34306B
:1033B0003B33326D5B256C6C645D1B5B306D201B99
:1033C0005B323B34303B33336D2573282564291B36
:1033D0005B306D3A200000001B5B313B34303B33E7
:1033E000336D5741524E1B5B306D200054696D6543
:1033F0006F7574207573652025640D0A0000000048
:103400004741544557415920555345522044415452
:1034100041203D200000000020466C61675F76651A
:103420007273696F6E203D2025642C20466C6167A5
:103430005F74797065203D2025642C20466C61679F
:103440005F646972656374696F6E203D2025642036
:103450000D0A00002DE9F04104460D4616460027EE
:1034600005E0217806A0FEF70FFF641C7F1CAF4229
:10347000F7DB16B104A0FEF707FFBDE8F0810000FE
:1034800025303278000000000D0A000010B5044617
:1034900004F10800FDF7C0FC04F10800FEF710FD80
:1034A000002010BD2DE9FE4304460F464E20304952
:1034B000CDE900102F480CC82FA0FEF7E5FE39A07B
:1034C000FEF7E2FE53202A49CDE9001029480CC836
:1034D00029A0FEF7D9FE39A0FEF7D6FE57202449D1
:1034E000CDE9001023480CC823A0FEF7CDFE36A07E
:1034F000FEF7CAFE1F4960C95B201D49CDE90010D7
:103500001C480CC81CA0FEF7BFFE32A0FEF7BCFE94
:1035100004F10800FEF7D4FC5E201549CDE9001047
:1035200014480CC814A0FEF7AFFE31A0FEF7ACFEA5
:103530000EE000220F496068D1E900315B1B61EBAE
:103540000601C01A8A4103D24FF0FF30BDE8FE8366
:1035500004F10800FDF7D4FC80460228E9D102AA54
:10356000394604F10800FDF745FCBDF80800EDE719
:103570007E3C0008280000201B5B34303B33326D5A
:103580005B256C6C645D1B5B306D201B5B323B34D8
:10359000303B33336D2573282564291B5B306D3A2E
:1035A000200000006C6F72615F6E65745F72656110
:1035B000642053544152540D0A00000020535441DA
:1035C000525420320D0A00002053544152542033EB
:1035D0000D0A00006C6F72615F6E65745F726561E9
:1035E000642053544152542052580D0A00000000E8
:1035F0006C6F72615F6E65745F72656164205354B5
:10360000415254205358313237364C6F5261507208
:103610006F636573730D0A002DE9F0470446884611
:1036200015461049C0C92A46414604F10800FEF774
:1036300036FC0EE000220B492068D1E900319B1BCB
:1036400061EB0701C01A8A4103D24FF0FF30BDE899
:10365000F08704F10800FDF753FC81460428E9D106
:103660002846F4E72800002086B04FF0FF08DFF876
:10367000F092BC4FBC4860C84FF4E060FDF764FABC
:1036800000F094FAFFF7A2FAFEF728FD3A20B749B6
:10369000CDE90010B4480CC8B5A0FEF7F5FDBFA0F9
:1036A000FEF7F2FD3B20B149CDE90010AE480CC851
:1036B000AFA0FEF7E9FDBDA2BFA1C2A0FEF7E4FDE9
:1036C0003D20AA49CDE90010A7480CC8A8A0FEF7E4
:1036D000DBFDC1A0FEF7D8FD01220C214846FFF713
:1036E000B9FE0020C24908610A2048750920087502
:1036F00004208875002486E004EB4401C1EB8411AA
:10370000BC4A02EBC10101F10800FDF74DFB002CA2
:103710004FD1B94904EB4400C0EB8410B54A02EB29
:10372000C000C0F8C011B54904EB4400C0EB8410E0
:1037300002EBC000C0F8C811B14904EB4400C0EB73
:10374000841002EBC000C0F8C411AE4904EB440081
:10375000C0EB841002EBC000C0F8D011AA4904EB02
:103760004400C0EB841002EBC000C0F8CC11A749A4
:1037700004EB4400C0EB841002EBC000C0F8D4118D
:10378000A34904EB4400C0EB841002EBC000C1600D
:10379000012104EB4400C0EB841002EBC000C176B1
:1037A00004EB4401C1EB841102EBC1009049FFF727
:1037B0005FFD4FF47A7004EB4401C1EB84118D4A34
:1037C00042F83100400004EB4401C1EB841102EBEC
:1037D000C1014860411004EB4400C0EB841002EBCF
:1037E000C0000162490004EB4400C0EB841002EB0E
:1037F000C000416204EB4401C1EB841102EBC10043
:10380000FFF744FE641C012CFFF676AF814938684F
:10381000884214D101208049087068205349CDE9BD
:10382000001051480CC852A0FEF72EFD7BA0FEF7F9
:103830002BFD01220C21381DFFF70CFE0EE00220AB
:10384000754908706C204949CDE9001046480CC8FC
:1038500047A0FEF719FD77A0FEF716FD7FE06E4842
:10386000007820B1012833D0022876D14BE07A4984
:103870006048FFF7FDFC0C2249465E48FFF702FD59
:103880008046B8F1000F04DD374860C80020FFF71C
:1038900077F93548D0E900104A1B60EB06004EF678
:1038A000602300219A1A814111D282202F49CDE94B
:1038B00000102D480CC82EA0FEF7E6FC67A0FEF70E
:1038C000E3FC6BA0FEF7E0FC01205349087045E0E3
:1038D0002548006800F0F6F88246FCF751FF44499D
:1038E0004448FFF7C5FC5C4B3A1D49464148FFF789
:1038F000E9FA8046B8F1000F04DD1B4860C80020DB
:10390000454908702AE01848006800F0DBF8824654
:10391000FCF736FF36493748FFF7AAFC03AA4946A9
:103920003448FFF757F98046B8F1000F13DD3948E6
:103930000290102102A800F06DF91022394602A869
:10394000FCF726FC38B901220C21381DFFF782FD57
:1039500001203149087001E0FFE700BF00BF7EE7AA
:10396000E8F7FF1F00FC000828000020243D0008A5
:103970001B5B34303B33326D5B256C6C645D1B5BD1
:10398000306D201B5B323B34303B33336D25732865
:103990002564291B5B306D3A2000000055534152CD
:1039A00054315F436F6E6669670D0A0032313A33F6
:1039B000393A3330000000004A756E203238203228
:1039C000303138004275696C64202C202573202525
:1039D00073200D0A000000004E4F4445204D4F4417
:1039E000554C45202C204E4D4143203D20000000E9
:1039F000E0040020E80000209B0D0008CF1E000816
:103A0000131F0008E11E0008231F0008073B0008E1
:103A1000893A000861925478580000204E4F44457E
:103A2000204D4F44554C45202C20474D4143203DCF
:103A3000200000004E4F4445204D4F44554C45203A
:103A40002C204E4F2042494E442047415445574177
:103A500059200D0A00000000B80400201B5B313B18
:103A600034303B33336D5741524E1B5B306D200079
:103A70005B6F66666C696E655D206E6F6465206C59
:103A80006F7374200D0A000070B506460C46304670
:103A9000FCF752FB002502E0FCF744FB6D1CA5423D
:103AA000FADBFCF73FFBC72190FBF1F201FB1200B0
:103AB0000249034A02FB001070BD0000801A701812
:103AC00090D003002DE9F04104464FF47A6643F2AA
:103AD000B0672046FCF730FB002502E0FCF722FB34
:103AE0006D1C1420B4FBF0F100FB1140A842F5D886
:103AF000FCF718FBB91B491E90FBF1F201FB120009
:103B00003044BDE8F08170B5044600F015F804F0CB
:103B10007F00FEF793FA0020FEF790FA054600F0CA
:103B200003F8284670BD000010B510210148FCF7CD
:103B300080FF10BD0008014010B510210148FCF7BE
:103B400076FF10BD0008014000B585B0FDF70EF905
:103B50001820ADF80C000020ADF800004FF4827082
:103B6000ADF802000020ADF80400ADF80600ADF895
:103B700008004FF40070ADF80A000020ADF80E0008
:103B80000720ADF8100069460748FDF7D1F8FDF7AA
:103B9000A1F801210448FDF7F3F801210248FDF7DF
:103BA0008DF805B000BD00000030014030B516486A
:103BB00000684FF47A72B0FBF2F1B1F1807F01D36B
:103BC00001201DE021F07F40401E4FF0E0225061B7
:103BD00050170F22002807DA13071D0E0B4B00F0B9
:103BE0000F04241F1D5503E013071C0E084B1C5423
:103BF00000BF00204FF0E0229061072010610020FC
:103C000008B100BFFEE730BD0000002018ED00E065
:103C100000E400E02DE9F04105460E46134C204635
:103C200006EB00082F46FCF74FFE3420FCF7C6FDDC
:103C30002046FCF7C9FD042804D0FCF705FE00204F
:103C4000BDE8F0810CE020463968FCF707FE042847
:103C500002D1241D3F1D03E0FCF7F6FD0020EFE735
:103C60004445F0D3FCF7F0FD0120E9E700FC000833
:103C70006C6F72615F6E65745F70726F63006C6F02
:103C800072615F6E65745F72656164006C6F726112
:103C90005F6E65745F476174657761795F557365C1
:103CA000725F64617461006C6F72615F6E65745FF6
:103CB000476174657761795F4E6574776F726B5F8A
:103CC00072657175657374006C6F72615F6E657497
:103CD0005F557365725F64617461006C6F72615FE0
:103CE0006E65745F4E6574776F726B5F7265717528
:103CF000657374006C6F72615F6E65745F426173AF
:103D0000655F73746174696F6E5F62696E64696E1A
:103D10006700486172644661756C745F48616E64E7
:103D20006C6572006D61696E000000004C3D00081A
:103D30000000002064000000A8220008B03D000838
:103D400064000020A4140000B822000800A24A0465
:103D5000000000000000000001020304060708093B
:103D60000000000001020304010203040607080921
:103D7000020406080000000000000000100000001F
:103D80000020000000100140400ECF191408090265
:103D90000100000004000000E8030000D00700005C
:103DA00040000000010000000000000000000000D2
:04000005080000ED02
:00000001FF
